{
  "_format": "hh-sol-artifact-1",
  "contractName": "NFTFactory",
  "sourceName": "contracts/NFTFactory.sol",
  "abi": [
    {
      "anonymous": false,
      "inputs": [
        {
          "indexed": true,
          "internalType": "address",
          "name": "creator",
          "type": "address"
        },
        {
          "indexed": true,
          "internalType": "address",
          "name": "collection",
          "type": "address"
        },
        {
          "indexed": false,
          "internalType": "string",
          "name": "name",
          "type": "string"
        },
        {
          "indexed": false,
          "internalType": "string",
          "name": "symbol",
          "type": "string"
        },
        {
          "indexed": false,
          "internalType": "string",
          "name": "cover",
          "type": "string"
        }
      ],
      "name": "CollectionCreated",
      "type": "event"
    },
    {
      "inputs": [
        {
          "internalType": "uint256",
          "name": "",
          "type": "uint256"
        }
      ],
      "name": "collections",
      "outputs": [
        {
          "internalType": "address",
          "name": "",
          "type": "address"
        }
      ],
      "stateMutability": "view",
      "type": "function"
    },
    {
      "inputs": [],
      "name": "collectionsCount",
      "outputs": [
        {
          "internalType": "uint256",
          "name": "",
          "type": "uint256"
        }
      ],
      "stateMutability": "view",
      "type": "function"
    },
    {
      "inputs": [
        {
          "internalType": "string",
          "name": "name",
          "type": "string"
        },
        {
          "internalType": "string",
          "name": "symbol",
          "type": "string"
        },
        {
          "internalType": "string",
          "name": "cover",
          "type": "string"
        },
        {
          "internalType": "string",
          "name": "description",
          "type": "string"
        },
        {
          "internalType": "string",
          "name": "profile",
          "type": "string"
        },
        {
          "internalType": "string",
          "name": "creatorname",
          "type": "string"
        },
        {
          "internalType": "string",
          "name": "avatar",
          "type": "string"
        }
      ],
      "name": "createCollection",
      "outputs": [],
      "stateMutability": "nonpayable",
      "type": "function"
    },
    {
      "inputs": [],
      "name": "getCollections",
      "outputs": [
        {
          "internalType": "address[]",
          "name": "",
          "type": "address[]"
        }
      ],
      "stateMutability": "view",
      "type": "function"
    }
  ],
  "bytecode": "0x6080604052348015600f57600080fd5b506142bf8061001f6000396000f3fe608060405234801561001057600080fd5b506004361061004c5760003560e01c80631403864b1461005157806324cc06621461006d57806346e635861461008b578063fdbda0ec146100a9575b600080fd5b61006b60048036038101906100669190610435565b6100d9565b005b6100756101f5565b60405161008291906105b4565b60405180910390f35b610093610201565b6040516100a091906106bf565b60405180910390f35b6100c360048036038101906100be919061070d565b61028f565b6040516100d09190610749565b60405180910390f35b600087878787878787336040516100ef906102ce565b6101009897969594939291906107e3565b604051809103906000f08015801561011c573d6000803e3d6000fd5b5090506000819080600181540180825580915050600190039060005260206000200160009091909190916101000a81548173ffffffffffffffffffffffffffffffffffffffff021916908373ffffffffffffffffffffffffffffffffffffffff1602179055508073ffffffffffffffffffffffffffffffffffffffff163373ffffffffffffffffffffffffffffffffffffffff167f257420148154685ee05cdaf5c83f10362604770035323dde6f8f5224ef523c9f8a8a8a6040516101e393929190610892565b60405180910390a35050505050505050565b60008080549050905090565b6060600080548060200260200160405190810160405280929190818152602001828054801561028557602002820191906000526020600020905b8160009054906101000a900473ffffffffffffffffffffffffffffffffffffffff1673ffffffffffffffffffffffffffffffffffffffff168152602001906001019080831161023b575b5050505050905090565b6000818154811061029f57600080fd5b906000526020600020016000915054906101000a900473ffffffffffffffffffffffffffffffffffffffff1681565b6139ab806108df83390190565b6000604051905090565b600080fd5b600080fd5b600080fd5b600080fd5b6000601f19601f8301169050919050565b7f4e487b7100000000000000000000000000000000000000000000000000000000600052604160045260246000fd5b610342826102f9565b810181811067ffffffffffffffff821117156103615761036061030a565b5b80604052505050565b60006103746102db565b90506103808282610339565b919050565b600067ffffffffffffffff8211156103a05761039f61030a565b5b6103a9826102f9565b9050602081019050919050565b82818337600083830152505050565b60006103d86103d384610385565b61036a565b9050828152602081018484840111156103f4576103f36102f4565b5b6103ff8482856103b6565b509392505050565b600082601f83011261041c5761041b6102ef565b5b813561042c8482602086016103c5565b91505092915050565b600080600080600080600060e0888a031215610454576104536102e5565b5b600088013567ffffffffffffffff811115610472576104716102ea565b5b61047e8a828b01610407565b975050602088013567ffffffffffffffff81111561049f5761049e6102ea565b5b6104ab8a828b01610407565b965050604088013567ffffffffffffffff8111156104cc576104cb6102ea565b5b6104d88a828b01610407565b955050606088013567ffffffffffffffff8111156104f9576104f86102ea565b5b6105058a828b01610407565b945050608088013567ffffffffffffffff811115610526576105256102ea565b5b6105328a828b01610407565b93505060a088013567ffffffffffffffff811115610553576105526102ea565b5b61055f8a828b01610407565b92505060c088013567ffffffffffffffff8111156105805761057f6102ea565b5b61058c8a828b01610407565b91505092959891949750929550565b6000819050919050565b6105ae8161059b565b82525050565b60006020820190506105c960008301846105a5565b92915050565b600081519050919050565b600082825260208201905092915050565b6000819050602082019050919050565b600073ffffffffffffffffffffffffffffffffffffffff82169050919050565b6000610626826105fb565b9050919050565b6106368161061b565b82525050565b6000610648838361062d565b60208301905092915050565b6000602082019050919050565b600061066c826105cf565b61067681856105da565b9350610681836105eb565b8060005b838110156106b2578151610699888261063c565b97506106a483610654565b925050600181019050610685565b5085935050505092915050565b600060208201905081810360008301526106d98184610661565b905092915050565b6106ea8161059b565b81146106f557600080fd5b50565b600081359050610707816106e1565b92915050565b600060208284031215610723576107226102e5565b5b6000610731848285016106f8565b91505092915050565b6107438161061b565b82525050565b600060208201905061075e600083018461073a565b92915050565b600081519050919050565b600082825260208201905092915050565b60005b8381101561079e578082015181840152602081019050610783565b60008484015250505050565b60006107b582610764565b6107bf818561076f565b93506107cf818560208601610780565b6107d8816102f9565b840191505092915050565b60006101008201905081810360008301526107fe818b6107aa565b90508181036020830152610812818a6107aa565b9050818103604083015261082681896107aa565b9050818103606083015261083a81886107aa565b9050818103608083015261084e81876107aa565b905081810360a083015261086281866107aa565b905081810360c083015261087681856107aa565b905061088560e083018461073a565b9998505050505050505050565b600060608201905081810360008301526108ac81866107aa565b905081810360208301526108c081856107aa565b905081810360408301526108d481846107aa565b905094935050505056fe608060405234801561001057600080fd5b506040516139ab3803806139ab833981810160405281019061003291906103ef565b8088888160009081610044919061078a565b508060019081610054919061078a565b505050600073ffffffffffffffffffffffffffffffffffffffff168173ffffffffffffffffffffffffffffffffffffffff16036100c95760006040517f1e4fbdf70000000000000000000000000000000000000000000000000000000081526004016100c0919061086b565b60405180910390fd5b6100d88161015660201b60201c565b5087600a90816100e8919061078a565b5086600b90816100f8919061078a565b5085600c9081610108919061078a565b5084600d9081610118919061078a565b5083600e9081610128919061078a565b5082600f9081610138919061078a565b508160109081610148919061078a565b505050505050505050610886565b6000600760009054906101000a900473ffffffffffffffffffffffffffffffffffffffff16905081600760006101000a81548173ffffffffffffffffffffffffffffffffffffffff021916908373ffffffffffffffffffffffffffffffffffffffff1602179055508173ffffffffffffffffffffffffffffffffffffffff168173ffffffffffffffffffffffffffffffffffffffff167f8be0079c531659141344cd1fd0a4f28419497f9722a3daafe3b4186f6b6457e060405160405180910390a35050565b6000604051905090565b600080fd5b600080fd5b600080fd5b600080fd5b6000601f19601f8301169050919050565b7f4e487b7100000000000000000000000000000000000000000000000000000000600052604160045260246000fd5b6102838261023a565b810181811067ffffffffffffffff821117156102a2576102a161024b565b5b80604052505050565b60006102b561021c565b90506102c1828261027a565b919050565b600067ffffffffffffffff8211156102e1576102e061024b565b5b6102ea8261023a565b9050602081019050919050565b60005b838110156103155780820151818401526020810190506102fa565b60008484015250505050565b600061033461032f846102c6565b6102ab565b9050828152602081018484840111156103505761034f610235565b5b61035b8482856102f7565b509392505050565b600082601f83011261037857610377610230565b5b8151610388848260208601610321565b91505092915050565b600073ffffffffffffffffffffffffffffffffffffffff82169050919050565b60006103bc82610391565b9050919050565b6103cc816103b1565b81146103d757600080fd5b50565b6000815190506103e9816103c3565b92915050565b600080600080600080600080610100898b0312156104105761040f610226565b5b600089015167ffffffffffffffff81111561042e5761042d61022b565b5b61043a8b828c01610363565b985050602089015167ffffffffffffffff81111561045b5761045a61022b565b5b6104678b828c01610363565b975050604089015167ffffffffffffffff8111156104885761048761022b565b5b6104948b828c01610363565b965050606089015167ffffffffffffffff8111156104b5576104b461022b565b5b6104c18b828c01610363565b955050608089015167ffffffffffffffff8111156104e2576104e161022b565b5b6104ee8b828c01610363565b94505060a089015167ffffffffffffffff81111561050f5761050e61022b565b5b61051b8b828c01610363565b93505060c089015167ffffffffffffffff81111561053c5761053b61022b565b5b6105488b828c01610363565b92505060e06105598b828c016103da565b9150509295985092959890939650565b600081519050919050565b7f4e487b7100000000000000000000000000000000000000000000000000000000600052602260045260246000fd5b600060028204905060018216806105bb57607f821691505b6020821081036105ce576105cd610574565b5b50919050565b60008190508160005260206000209050919050565b60006020601f8301049050919050565b600082821b905092915050565b6000600883026106367fffffffffffffffffffffffffffffffffffffffffffffffffffffffffffffffff826105f9565b61064086836105f9565b95508019841693508086168417925050509392505050565b6000819050919050565b6000819050919050565b600061068761068261067d84610658565b610662565b610658565b9050919050565b6000819050919050565b6106a18361066c565b6106b56106ad8261068e565b848454610606565b825550505050565b600090565b6106ca6106bd565b6106d5818484610698565b505050565b5b818110156106f9576106ee6000826106c2565b6001810190506106db565b5050565b601f82111561073e5761070f816105d4565b610718846105e9565b81016020851015610727578190505b61073b610733856105e9565b8301826106da565b50505b505050565b600082821c905092915050565b600061076160001984600802610743565b1980831691505092915050565b600061077a8383610750565b9150826002028217905092915050565b61079382610569565b67ffffffffffffffff8111156107ac576107ab61024b565b5b6107b682546105a3565b6107c18282856106fd565b600060209050601f8311600181146107f457600084156107e2578287015190505b6107ec858261076e565b865550610854565b601f198416610802866105d4565b60005b8281101561082a57848901518255600182019150602085019450602081019050610805565b868310156108475784890151610843601f891682610750565b8355505b6001600288020188555050505b505050505050565b610865816103b1565b82525050565b6000602082019050610880600083018461085c565b92915050565b613116806108956000396000f3fe608060405234801561001057600080fd5b50600436106101da5760003560e01c806385edc73e11610104578063b88d4fde116100a2578063e2c6875c11610071578063e2c6875c14610547578063e5326ab114610565578063e985e9c514610583578063f2fde38b146105b3576101da565b8063b88d4fde146104ad578063c155f3b1146104c9578063c87b56dd146104e7578063d0def52114610517576101da565b806395d89b41116100de57806395d89b4114610425578063a22cb46514610443578063abc8c7af1461045f578063b04eec591461047d576101da565b806385edc73e146103cb57806386268740146103e95780638da5cb5b14610407576101da565b806332045a851161017c57806370a082311161014b57806370a0823114610357578063715018a61461038757806373ad6c2d1461039157806375794a3c146103ad576101da565b806332045a85146102d157806342842e0e146102ef57806342966c681461030b5780636352211e14610327576101da565b8063095ea7b3116101b8578063095ea7b31461025d5780631f6f90bd1461027957806323b872dd146102975780632f39352a146102b3576101da565b806301ffc9a7146101df57806306fdde031461020f578063081812fc1461022d575b600080fd5b6101f960048036038101906101f49190612496565b6105cf565b60405161020691906124de565b60405180910390f35b610217610630565b6040516102249190612589565b60405180910390f35b610247600480360381019061024291906125e1565b6106c2565b604051610254919061264f565b60405180910390f35b61027760048036038101906102729190612696565b6106de565b005b6102816106f4565b60405161028e9190612589565b60405180910390f35b6102b160048036038101906102ac91906126d6565b610782565b005b6102bb610884565b6040516102c89190612589565b60405180910390f35b6102d9610912565b6040516102e69190612589565b60405180910390f35b610309600480360381019061030491906126d6565b6109a4565b005b610325600480360381019061032091906125e1565b6109c4565b005b610341600480360381019061033c91906125e1565b610a46565b60405161034e919061264f565b60405180910390f35b610371600480360381019061036c9190612729565b610a58565b60405161037e9190612765565b60405180910390f35b61038f610b12565b005b6103ab60048036038101906103a69190612729565b610b26565b005b6103b5610b72565b6040516103c29190612765565b60405180910390f35b6103d3610b78565b6040516103e09190612589565b60405180910390f35b6103f1610c06565b6040516103fe9190612589565b60405180910390f35b61040f610c94565b60405161041c919061264f565b60405180910390f35b61042d610cbe565b60405161043a9190612589565b60405180910390f35b61045d600480360381019061045891906127ac565b610d50565b005b610467610d66565b604051610474919061264f565b60405180910390f35b61049760048036038101906104929190612921565b610d8c565b6040516104a49190612765565b60405180910390f35b6104c760048036038101906104c29190612a1e565b610eaa565b005b6104d1610ecf565b6040516104de9190612589565b60405180910390f35b61050160048036038101906104fc91906125e1565b610f5d565b60405161050e9190612589565b60405180910390f35b610531600480360381019061052c9190612921565b611070565b60405161053e9190612765565b60405180910390f35b61054f6110fd565b60405161055c9190612589565b60405180910390f35b61056d61118b565b60405161057a9190612589565b60405180910390f35b61059d60048036038101906105989190612aa1565b611219565b6040516105aa91906124de565b60405180910390f35b6105cd60048036038101906105c89190612729565b6112ad565b005b6000634906490660e01b7bffffffffffffffffffffffffffffffffffffffffffffffffffffffff1916827bffffffffffffffffffffffffffffffffffffffffffffffffffffffff19161480610629575061062882611333565b5b9050919050565b60606000805461063f90612b10565b80601f016020809104026020016040519081016040528092919081815260200182805461066b90612b10565b80156106b85780601f1061068d576101008083540402835291602001916106b8565b820191906000526020600020905b81548152906001019060200180831161069b57829003601f168201915b5050505050905090565b60006106cd82611415565b506106d78261149d565b9050919050565b6106f082826106eb6114da565b6114e2565b5050565b600f805461070190612b10565b80601f016020809104026020016040519081016040528092919081815260200182805461072d90612b10565b801561077a5780601f1061074f5761010080835404028352916020019161077a565b820191906000526020600020905b81548152906001019060200180831161075d57829003601f168201915b505050505081565b600073ffffffffffffffffffffffffffffffffffffffff168273ffffffffffffffffffffffffffffffffffffffff16036107f45760006040517f64a0ae920000000000000000000000000000000000000000000000000000000081526004016107eb919061264f565b60405180910390fd5b600061080883836108036114da565b6114f4565b90508373ffffffffffffffffffffffffffffffffffffffff168173ffffffffffffffffffffffffffffffffffffffff161461087e578382826040517f64283d7b00000000000000000000000000000000000000000000000000000000815260040161087593929190612b41565b60405180910390fd5b50505050565b600b805461089190612b10565b80601f01602080910402602001604051908101604052809291908181526020018280546108bd90612b10565b801561090a5780601f106108df5761010080835404028352916020019161090a565b820191906000526020600020905b8154815290600101906020018083116108ed57829003601f168201915b505050505081565b6060600a805461092190612b10565b80601f016020809104026020016040519081016040528092919081815260200182805461094d90612b10565b801561099a5780601f1061096f5761010080835404028352916020019161099a565b820191906000526020600020905b81548152906001019060200180831161097d57829003601f168201915b5050505050905090565b6109bf83838360405180602001604052806000815250610eaa565b505050565b3373ffffffffffffffffffffffffffffffffffffffff166109e482610a46565b73ffffffffffffffffffffffffffffffffffffffff1614610a3a576040517f08c379a0000000000000000000000000000000000000000000000000000000008152600401610a3190612bc4565b60405180910390fd5b610a438161170e565b50565b6000610a5182611415565b9050919050565b60008073ffffffffffffffffffffffffffffffffffffffff168273ffffffffffffffffffffffffffffffffffffffff1603610acb5760006040517f89c62b64000000000000000000000000000000000000000000000000000000008152600401610ac2919061264f565b60405180910390fd5b600360008373ffffffffffffffffffffffffffffffffffffffff1673ffffffffffffffffffffffffffffffffffffffff168152602001908152602001600020549050919050565b610b1a611794565b610b24600061181b565b565b610b2e611794565b80600960006101000a81548173ffffffffffffffffffffffffffffffffffffffff021916908373ffffffffffffffffffffffffffffffffffffffff16021790555050565b60085481565b60108054610b8590612b10565b80601f0160208091040260200160405190810160405280929190818152602001828054610bb190612b10565b8015610bfe5780601f10610bd357610100808354040283529160200191610bfe565b820191906000526020600020905b815481529060010190602001808311610be157829003601f168201915b505050505081565b600e8054610c1390612b10565b80601f0160208091040260200160405190810160405280929190818152602001828054610c3f90612b10565b8015610c8c5780601f10610c6157610100808354040283529160200191610c8c565b820191906000526020600020905b815481529060010190602001808311610c6f57829003601f168201915b505050505081565b6000600760009054906101000a900473ffffffffffffffffffffffffffffffffffffffff16905090565b606060018054610ccd90612b10565b80601f0160208091040260200160405190810160405280929190818152602001828054610cf990612b10565b8015610d465780601f10610d1b57610100808354040283529160200191610d46565b820191906000526020600020905b815481529060010190602001808311610d2957829003601f168201915b5050505050905090565b610d62610d5b6114da565b83836118e1565b5050565b600960009054906101000a900473ffffffffffffffffffffffffffffffffffffffff1681565b6000600960009054906101000a900473ffffffffffffffffffffffffffffffffffffffff1673ffffffffffffffffffffffffffffffffffffffff163373ffffffffffffffffffffffffffffffffffffffff1614610e1e576040517f08c379a0000000000000000000000000000000000000000000000000000000008152600401610e1590612c30565b60405180910390fd5b6000600854905060086000815480929190610e3890612c7f565b9190505550610e478482611a50565b610e518184611a6e565b808473ffffffffffffffffffffffffffffffffffffffff167fe7cd4ce7f2a465edc730269a1305e8a48bad821e8fb7e152ec413829c01a53c485604051610e989190612589565b60405180910390a38091505092915050565b610eb5848484610782565b610ec9610ec06114da565b85858585611aca565b50505050565b600c8054610edc90612b10565b80601f0160208091040260200160405190810160405280929190818152602001828054610f0890612b10565b8015610f555780601f10610f2a57610100808354040283529160200191610f55565b820191906000526020600020905b815481529060010190602001808311610f3857829003601f168201915b505050505081565b6060610f6882611415565b506000600660008481526020019081526020016000208054610f8990612b10565b80601f0160208091040260200160405190810160405280929190818152602001828054610fb590612b10565b80156110025780601f10610fd757610100808354040283529160200191611002565b820191906000526020600020905b815481529060010190602001808311610fe557829003601f168201915b505050505090506000611013611c7b565b9050600081510361102857819250505061106b565b60008251111561105d578082604051602001611045929190612d03565b6040516020818303038152906040529250505061106b565b61106684611c92565b925050505b919050565b60008060085490506008600081548092919061108b90612c7f565b919050555061109a8482611a50565b6110a48184611a6e565b808473ffffffffffffffffffffffffffffffffffffffff167fe7cd4ce7f2a465edc730269a1305e8a48bad821e8fb7e152ec413829c01a53c4856040516110eb9190612589565b60405180910390a38091505092915050565b600d805461110a90612b10565b80601f016020809104026020016040519081016040528092919081815260200182805461113690612b10565b80156111835780601f1061115857610100808354040283529160200191611183565b820191906000526020600020905b81548152906001019060200180831161116657829003601f168201915b505050505081565b600a805461119890612b10565b80601f01602080910402602001604051908101604052809291908181526020018280546111c490612b10565b80156112115780601f106111e657610100808354040283529160200191611211565b820191906000526020600020905b8154815290600101906020018083116111f457829003601f168201915b505050505081565b6000600560008473ffffffffffffffffffffffffffffffffffffffff1673ffffffffffffffffffffffffffffffffffffffff16815260200190815260200160002060008373ffffffffffffffffffffffffffffffffffffffff1673ffffffffffffffffffffffffffffffffffffffff16815260200190815260200160002060009054906101000a900460ff16905092915050565b6112b5611794565b600073ffffffffffffffffffffffffffffffffffffffff168173ffffffffffffffffffffffffffffffffffffffff16036113275760006040517f1e4fbdf700000000000000000000000000000000000000000000000000000000815260040161131e919061264f565b60405180910390fd5b6113308161181b565b50565b60007f80ac58cd000000000000000000000000000000000000000000000000000000007bffffffffffffffffffffffffffffffffffffffffffffffffffffffff1916827bffffffffffffffffffffffffffffffffffffffffffffffffffffffff191614806113fe57507f5b5e139f000000000000000000000000000000000000000000000000000000007bffffffffffffffffffffffffffffffffffffffffffffffffffffffff1916827bffffffffffffffffffffffffffffffffffffffffffffffffffffffff1916145b8061140e575061140d82611cfb565b5b9050919050565b60008061142183611d65565b9050600073ffffffffffffffffffffffffffffffffffffffff168173ffffffffffffffffffffffffffffffffffffffff160361149457826040517f7e27328900000000000000000000000000000000000000000000000000000000815260040161148b9190612765565b60405180910390fd5b80915050919050565b60006004600083815260200190815260200160002060009054906101000a900473ffffffffffffffffffffffffffffffffffffffff169050919050565b600033905090565b6114ef8383836001611da2565b505050565b60008061150084611d65565b9050600073ffffffffffffffffffffffffffffffffffffffff168373ffffffffffffffffffffffffffffffffffffffff161461154257611541818486611f67565b5b600073ffffffffffffffffffffffffffffffffffffffff168173ffffffffffffffffffffffffffffffffffffffff16146115d357611584600085600080611da2565b6001600360008373ffffffffffffffffffffffffffffffffffffffff1673ffffffffffffffffffffffffffffffffffffffff168152602001908152602001600020600082825403925050819055505b600073ffffffffffffffffffffffffffffffffffffffff168573ffffffffffffffffffffffffffffffffffffffff1614611656576001600360008773ffffffffffffffffffffffffffffffffffffffff1673ffffffffffffffffffffffffffffffffffffffff168152602001908152602001600020600082825401925050819055505b846002600086815260200190815260200160002060006101000a81548173ffffffffffffffffffffffffffffffffffffffff021916908373ffffffffffffffffffffffffffffffffffffffff160217905550838573ffffffffffffffffffffffffffffffffffffffff168273ffffffffffffffffffffffffffffffffffffffff167fddf252ad1be2c89b69c2b068fc378daa952ba7f163c4a11628f55a4df523b3ef60405160405180910390a4809150509392505050565b600061171d60008360006114f4565b9050600073ffffffffffffffffffffffffffffffffffffffff168173ffffffffffffffffffffffffffffffffffffffff160361179057816040517f7e2732890000000000000000000000000000000000000000000000000000000081526004016117879190612765565b60405180910390fd5b5050565b61179c6114da565b73ffffffffffffffffffffffffffffffffffffffff166117ba610c94565b73ffffffffffffffffffffffffffffffffffffffff1614611819576117dd6114da565b6040517f118cdaa7000000000000000000000000000000000000000000000000000000008152600401611810919061264f565b60405180910390fd5b565b6000600760009054906101000a900473ffffffffffffffffffffffffffffffffffffffff16905081600760006101000a81548173ffffffffffffffffffffffffffffffffffffffff021916908373ffffffffffffffffffffffffffffffffffffffff1602179055508173ffffffffffffffffffffffffffffffffffffffff168173ffffffffffffffffffffffffffffffffffffffff167f8be0079c531659141344cd1fd0a4f28419497f9722a3daafe3b4186f6b6457e060405160405180910390a35050565b600073ffffffffffffffffffffffffffffffffffffffff168273ffffffffffffffffffffffffffffffffffffffff160361195257816040517f5b08ba18000000000000000000000000000000000000000000000000000000008152600401611949919061264f565b60405180910390fd5b80600560008573ffffffffffffffffffffffffffffffffffffffff1673ffffffffffffffffffffffffffffffffffffffff16815260200190815260200160002060008473ffffffffffffffffffffffffffffffffffffffff1673ffffffffffffffffffffffffffffffffffffffff16815260200190815260200160002060006101000a81548160ff0219169083151502179055508173ffffffffffffffffffffffffffffffffffffffff168373ffffffffffffffffffffffffffffffffffffffff167f17307eab39ab6107e8899845ad3d59bd9653f200f220920489ca2b5937696c3183604051611a4391906124de565b60405180910390a3505050565b611a6a82826040518060200160405280600081525061202b565b5050565b80600660008481526020019081526020016000209081611a8e9190612ed3565b507ff8e1a15aba9398e019f0b49df1a4fde98ee17ae345cb5f6b5e2c27f5033e8ce782604051611abe9190612765565b60405180910390a15050565b60008373ffffffffffffffffffffffffffffffffffffffff163b1115611c74578273ffffffffffffffffffffffffffffffffffffffff1663150b7a02868685856040518563ffffffff1660e01b8152600401611b299493929190612ffa565b6020604051808303816000875af1925050508015611b6557506040513d601f19601f82011682018060405250810190611b62919061305b565b60015b611be9573d8060008114611b95576040519150601f19603f3d011682016040523d82523d6000602084013e611b9a565b606091505b506000815103611be157836040517f64a0ae92000000000000000000000000000000000000000000000000000000008152600401611bd8919061264f565b60405180910390fd5b805160208201fd5b63150b7a0260e01b7bffffffffffffffffffffffffffffffffffffffffffffffffffffffff1916817bffffffffffffffffffffffffffffffffffffffffffffffffffffffff191614611c7257836040517f64a0ae92000000000000000000000000000000000000000000000000000000008152600401611c69919061264f565b60405180910390fd5b505b5050505050565b606060405180602001604052806000815250905090565b6060611c9d82611415565b506000611ca8611c7b565b90506000815111611cc85760405180602001604052806000815250611cf3565b80611cd28461204f565b604051602001611ce3929190612d03565b6040516020818303038152906040525b915050919050565b60007f01ffc9a7000000000000000000000000000000000000000000000000000000007bffffffffffffffffffffffffffffffffffffffffffffffffffffffff1916827bffffffffffffffffffffffffffffffffffffffffffffffffffffffff1916149050919050565b60006002600083815260200190815260200160002060009054906101000a900473ffffffffffffffffffffffffffffffffffffffff169050919050565b8080611ddb5750600073ffffffffffffffffffffffffffffffffffffffff168273ffffffffffffffffffffffffffffffffffffffff1614155b15611f0f576000611deb84611415565b9050600073ffffffffffffffffffffffffffffffffffffffff168373ffffffffffffffffffffffffffffffffffffffff1614158015611e5657508273ffffffffffffffffffffffffffffffffffffffff168173ffffffffffffffffffffffffffffffffffffffff1614155b8015611e695750611e678184611219565b155b15611eab57826040517fa9fbf51f000000000000000000000000000000000000000000000000000000008152600401611ea2919061264f565b60405180910390fd5b8115611f0d57838573ffffffffffffffffffffffffffffffffffffffff168273ffffffffffffffffffffffffffffffffffffffff167f8c5be1e5ebec7d5bd14f71427d1e84f3dd0314c0f7b2291e5b200ac8c7c3b92560405160405180910390a45b505b836004600085815260200190815260200160002060006101000a81548173ffffffffffffffffffffffffffffffffffffffff021916908373ffffffffffffffffffffffffffffffffffffffff16021790555050505050565b611f7283838361211d565b61202657600073ffffffffffffffffffffffffffffffffffffffff168373ffffffffffffffffffffffffffffffffffffffff1603611fe757806040517f7e273289000000000000000000000000000000000000000000000000000000008152600401611fde9190612765565b60405180910390fd5b81816040517f177e802f00000000000000000000000000000000000000000000000000000000815260040161201d929190613088565b60405180910390fd5b505050565b61203583836121de565b61204a6120406114da565b6000858585611aca565b505050565b60606000600161205e846122d7565b01905060008167ffffffffffffffff81111561207d5761207c6127f6565b5b6040519080825280601f01601f1916602001820160405280156120af5781602001600182028036833780820191505090505b509050600082602083010190505b600115612112578080600190039150507f3031323334353637383961626364656600000000000000000000000000000000600a86061a8153600a8581612106576121056130b1565b5b049450600085036120bd575b819350505050919050565b60008073ffffffffffffffffffffffffffffffffffffffff168373ffffffffffffffffffffffffffffffffffffffff16141580156121d557508273ffffffffffffffffffffffffffffffffffffffff168473ffffffffffffffffffffffffffffffffffffffff16148061219657506121958484611219565b5b806121d457508273ffffffffffffffffffffffffffffffffffffffff166121bc8361149d565b73ffffffffffffffffffffffffffffffffffffffff16145b5b90509392505050565b600073ffffffffffffffffffffffffffffffffffffffff168273ffffffffffffffffffffffffffffffffffffffff16036122505760006040517f64a0ae92000000000000000000000000000000000000000000000000000000008152600401612247919061264f565b60405180910390fd5b600061225e838360006114f4565b9050600073ffffffffffffffffffffffffffffffffffffffff168173ffffffffffffffffffffffffffffffffffffffff16146122d25760006040517f73c6ac6e0000000000000000000000000000000000000000000000000000000081526004016122c9919061264f565b60405180910390fd5b505050565b600080600090507a184f03e93ff9f4daa797ed6e38ed64bf6a1f0100000000000000008310612335577a184f03e93ff9f4daa797ed6e38ed64bf6a1f010000000000000000838161232b5761232a6130b1565b5b0492506040810190505b6d04ee2d6d415b85acef81000000008310612372576d04ee2d6d415b85acef81000000008381612368576123676130b1565b5b0492506020810190505b662386f26fc1000083106123a157662386f26fc100008381612397576123966130b1565b5b0492506010810190505b6305f5e10083106123ca576305f5e10083816123c0576123bf6130b1565b5b0492506008810190505b61271083106123ef5761271083816123e5576123e46130b1565b5b0492506004810190505b606483106124125760648381612408576124076130b1565b5b0492506002810190505b600a8310612421576001810190505b80915050919050565b6000604051905090565b600080fd5b600080fd5b60007fffffffff0000000000000000000000000000000000000000000000000000000082169050919050565b6124738161243e565b811461247e57600080fd5b50565b6000813590506124908161246a565b92915050565b6000602082840312156124ac576124ab612434565b5b60006124ba84828501612481565b91505092915050565b60008115159050919050565b6124d8816124c3565b82525050565b60006020820190506124f360008301846124cf565b92915050565b600081519050919050565b600082825260208201905092915050565b60005b83811015612533578082015181840152602081019050612518565b60008484015250505050565b6000601f19601f8301169050919050565b600061255b826124f9565b6125658185612504565b9350612575818560208601612515565b61257e8161253f565b840191505092915050565b600060208201905081810360008301526125a38184612550565b905092915050565b6000819050919050565b6125be816125ab565b81146125c957600080fd5b50565b6000813590506125db816125b5565b92915050565b6000602082840312156125f7576125f6612434565b5b6000612605848285016125cc565b91505092915050565b600073ffffffffffffffffffffffffffffffffffffffff82169050919050565b60006126398261260e565b9050919050565b6126498161262e565b82525050565b60006020820190506126646000830184612640565b92915050565b6126738161262e565b811461267e57600080fd5b50565b6000813590506126908161266a565b92915050565b600080604083850312156126ad576126ac612434565b5b60006126bb85828601612681565b92505060206126cc858286016125cc565b9150509250929050565b6000806000606084860312156126ef576126ee612434565b5b60006126fd86828701612681565b935050602061270e86828701612681565b925050604061271f868287016125cc565b9150509250925092565b60006020828403121561273f5761273e612434565b5b600061274d84828501612681565b91505092915050565b61275f816125ab565b82525050565b600060208201905061277a6000830184612756565b92915050565b612789816124c3565b811461279457600080fd5b50565b6000813590506127a681612780565b92915050565b600080604083850312156127c3576127c2612434565b5b60006127d185828601612681565b92505060206127e285828601612797565b9150509250929050565b600080fd5b600080fd5b7f4e487b7100000000000000000000000000000000000000000000000000000000600052604160045260246000fd5b61282e8261253f565b810181811067ffffffffffffffff8211171561284d5761284c6127f6565b5b80604052505050565b600061286061242a565b905061286c8282612825565b919050565b600067ffffffffffffffff82111561288c5761288b6127f6565b5b6128958261253f565b9050602081019050919050565b82818337600083830152505050565b60006128c46128bf84612871565b612856565b9050828152602081018484840111156128e0576128df6127f1565b5b6128eb8482856128a2565b509392505050565b600082601f830112612908576129076127ec565b5b81356129188482602086016128b1565b91505092915050565b6000806040838503121561293857612937612434565b5b600061294685828601612681565b925050602083013567ffffffffffffffff81111561296757612966612439565b5b612973858286016128f3565b9150509250929050565b600067ffffffffffffffff821115612998576129976127f6565b5b6129a18261253f565b9050602081019050919050565b60006129c16129bc8461297d565b612856565b9050828152602081018484840111156129dd576129dc6127f1565b5b6129e88482856128a2565b509392505050565b600082601f830112612a0557612a046127ec565b5b8135612a158482602086016129ae565b91505092915050565b60008060008060808587031215612a3857612a37612434565b5b6000612a4687828801612681565b9450506020612a5787828801612681565b9350506040612a68878288016125cc565b925050606085013567ffffffffffffffff811115612a8957612a88612439565b5b612a95878288016129f0565b91505092959194509250565b60008060408385031215612ab857612ab7612434565b5b6000612ac685828601612681565b9250506020612ad785828601612681565b9150509250929050565b7f4e487b7100000000000000000000000000000000000000000000000000000000600052602260045260246000fd5b60006002820490506001821680612b2857607f821691505b602082108103612b3b57612b3a612ae1565b5b50919050565b6000606082019050612b566000830186612640565b612b636020830185612756565b612b706040830184612640565b949350505050565b7f4e6f74206f776e65720000000000000000000000000000000000000000000000600082015250565b6000612bae600983612504565b9150612bb982612b78565b602082019050919050565b60006020820190508181036000830152612bdd81612ba1565b9050919050565b7f4e6f74206d61726b6574706c6163650000000000000000000000000000000000600082015250565b6000612c1a600f83612504565b9150612c2582612be4565b602082019050919050565b60006020820190508181036000830152612c4981612c0d565b9050919050565b7f4e487b7100000000000000000000000000000000000000000000000000000000600052601160045260246000fd5b6000612c8a826125ab565b91507fffffffffffffffffffffffffffffffffffffffffffffffffffffffffffffffff8203612cbc57612cbb612c50565b5b600182019050919050565b600081905092915050565b6000612cdd826124f9565b612ce78185612cc7565b9350612cf7818560208601612515565b80840191505092915050565b6000612d0f8285612cd2565b9150612d1b8284612cd2565b91508190509392505050565b60008190508160005260206000209050919050565b60006020601f8301049050919050565b600082821b905092915050565b600060088302612d897fffffffffffffffffffffffffffffffffffffffffffffffffffffffffffffffff82612d4c565b612d938683612d4c565b95508019841693508086168417925050509392505050565b6000819050919050565b6000612dd0612dcb612dc6846125ab565b612dab565b6125ab565b9050919050565b6000819050919050565b612dea83612db5565b612dfe612df682612dd7565b848454612d59565b825550505050565b600090565b612e13612e06565b612e1e818484612de1565b505050565b5b81811015612e4257612e37600082612e0b565b600181019050612e24565b5050565b601f821115612e8757612e5881612d27565b612e6184612d3c565b81016020851015612e70578190505b612e84612e7c85612d3c565b830182612e23565b50505b505050565b600082821c905092915050565b6000612eaa60001984600802612e8c565b1980831691505092915050565b6000612ec38383612e99565b9150826002028217905092915050565b612edc826124f9565b67ffffffffffffffff811115612ef557612ef46127f6565b5b612eff8254612b10565b612f0a828285612e46565b600060209050601f831160018114612f3d5760008415612f2b578287015190505b612f358582612eb7565b865550612f9d565b601f198416612f4b86612d27565b60005b82811015612f7357848901518255600182019150602085019450602081019050612f4e565b86831015612f905784890151612f8c601f891682612e99565b8355505b6001600288020188555050505b505050505050565b600081519050919050565b600082825260208201905092915050565b6000612fcc82612fa5565b612fd68185612fb0565b9350612fe6818560208601612515565b612fef8161253f565b840191505092915050565b600060808201905061300f6000830187612640565b61301c6020830186612640565b6130296040830185612756565b818103606083015261303b8184612fc1565b905095945050505050565b6000815190506130558161246a565b92915050565b60006020828403121561307157613070612434565b5b600061307f84828501613046565b91505092915050565b600060408201905061309d6000830185612640565b6130aa6020830184612756565b9392505050565b7f4e487b7100000000000000000000000000000000000000000000000000000000600052601260045260246000fdfea26469706673582212207b7337d6640394c964a55bf8182f3b7203fc41d1d72850aab2d92eac82c554c664736f6c634300081c0033a2646970667358221220e30d2f72a8bee3740343d2e6ef01597f1fd4b4fb6c632ee684c8ddb0a374497f64736f6c634300081c0033",
  "linkReferences": {},
  "deployedLinkReferences": {}
}