{
  "_format": "hh-sol-artifact-1",
  "contractName": "NFTFactory",
  "sourceName": "contracts/NFTFactory.sol",
  "abi": [
    {
      "anonymous": false,
      "inputs": [
        {
          "indexed": true,
          "internalType": "address",
          "name": "creator",
          "type": "address"
        },
        {
          "indexed": true,
          "internalType": "address",
          "name": "collection",
          "type": "address"
        },
        {
          "indexed": false,
          "internalType": "string",
          "name": "name",
          "type": "string"
        },
        {
          "indexed": false,
          "internalType": "string",
          "name": "symbol",
          "type": "string"
        },
        {
          "indexed": false,
          "internalType": "string",
          "name": "description",
          "type": "string"
        },
        {
          "indexed": false,
          "internalType": "string",
          "name": "creatorname",
          "type": "string"
        },
        {
          "indexed": false,
          "internalType": "string",
          "name": "cover",
          "type": "string"
        },
        {
          "indexed": false,
          "internalType": "string",
          "name": "profile",
          "type": "string"
        },
        {
          "indexed": false,
          "internalType": "string",
          "name": "avatar",
          "type": "string"
        }
      ],
      "name": "CollectionCreated",
      "type": "event"
    },
    {
      "inputs": [
        {
          "internalType": "uint256",
          "name": "",
          "type": "uint256"
        }
      ],
      "name": "collections",
      "outputs": [
        {
          "internalType": "address",
          "name": "",
          "type": "address"
        }
      ],
      "stateMutability": "view",
      "type": "function"
    },
    {
      "inputs": [],
      "name": "collectionsCount",
      "outputs": [
        {
          "internalType": "uint256",
          "name": "",
          "type": "uint256"
        }
      ],
      "stateMutability": "view",
      "type": "function"
    },
    {
      "inputs": [
        {
          "internalType": "string",
          "name": "name",
          "type": "string"
        },
        {
          "internalType": "string",
          "name": "symbol",
          "type": "string"
        },
        {
          "internalType": "string",
          "name": "description",
          "type": "string"
        },
        {
          "internalType": "string",
          "name": "creatorname",
          "type": "string"
        },
        {
          "internalType": "string",
          "name": "cover",
          "type": "string"
        },
        {
          "internalType": "string",
          "name": "profile",
          "type": "string"
        },
        {
          "internalType": "string",
          "name": "avatar",
          "type": "string"
        }
      ],
      "name": "createCollection",
      "outputs": [],
      "stateMutability": "nonpayable",
      "type": "function"
    },
    {
      "inputs": [],
      "name": "getCollections",
      "outputs": [
        {
          "internalType": "address[]",
          "name": "",
          "type": "address[]"
        }
      ],
      "stateMutability": "view",
      "type": "function"
    }
  ],
  "bytecode": "0x6080604052348015600f57600080fd5b506142608061001f6000396000f3fe608060405234801561001057600080fd5b506004361061004c5760003560e01c80631403864b1461005157806324cc06621461006d57806346e635861461008b578063fdbda0ec146100a9575b600080fd5b61006b6004803603810190610066919061043d565b6100d9565b005b6100756101fd565b60405161008291906105bc565b60405180910390f35b610093610209565b6040516100a091906106c7565b60405180910390f35b6100c360048036038101906100be9190610715565b610297565b6040516100d09190610751565b60405180910390f35b600087878787878787336040516100ef906102d6565b6101009897969594939291906107eb565b604051809103906000f08015801561011c573d6000803e3d6000fd5b5090506000819080600181540180825580915050600190039060005260206000200160009091909190916101000a81548173ffffffffffffffffffffffffffffffffffffffff021916908373ffffffffffffffffffffffffffffffffffffffff1602179055508073ffffffffffffffffffffffffffffffffffffffff163373ffffffffffffffffffffffffffffffffffffffff167f955ccde38aa469bfb30cdfe789259058b2036ba69c786fa8c8bf17b06fb3eb158a8a8a8a8a8a8a6040516101eb979695949392919061089a565b60405180910390a35050505050505050565b60008080549050905090565b6060600080548060200260200160405190810160405280929190818152602001828054801561028d57602002820191906000526020600020905b8160009054906101000a900473ffffffffffffffffffffffffffffffffffffffff1673ffffffffffffffffffffffffffffffffffffffff1681526020019060010190808311610243575b5050505050905090565b600081815481106102a757600080fd5b906000526020600020016000915054906101000a900473ffffffffffffffffffffffffffffffffffffffff1681565b6138f08061093b83390190565b6000604051905090565b600080fd5b600080fd5b600080fd5b600080fd5b6000601f19601f8301169050919050565b7f4e487b7100000000000000000000000000000000000000000000000000000000600052604160045260246000fd5b61034a82610301565b810181811067ffffffffffffffff8211171561036957610368610312565b5b80604052505050565b600061037c6102e3565b90506103888282610341565b919050565b600067ffffffffffffffff8211156103a8576103a7610312565b5b6103b182610301565b9050602081019050919050565b82818337600083830152505050565b60006103e06103db8461038d565b610372565b9050828152602081018484840111156103fc576103fb6102fc565b5b6104078482856103be565b509392505050565b600082601f830112610424576104236102f7565b5b81356104348482602086016103cd565b91505092915050565b600080600080600080600060e0888a03121561045c5761045b6102ed565b5b600088013567ffffffffffffffff81111561047a576104796102f2565b5b6104868a828b0161040f565b975050602088013567ffffffffffffffff8111156104a7576104a66102f2565b5b6104b38a828b0161040f565b965050604088013567ffffffffffffffff8111156104d4576104d36102f2565b5b6104e08a828b0161040f565b955050606088013567ffffffffffffffff811115610501576105006102f2565b5b61050d8a828b0161040f565b945050608088013567ffffffffffffffff81111561052e5761052d6102f2565b5b61053a8a828b0161040f565b93505060a088013567ffffffffffffffff81111561055b5761055a6102f2565b5b6105678a828b0161040f565b92505060c088013567ffffffffffffffff811115610588576105876102f2565b5b6105948a828b0161040f565b91505092959891949750929550565b6000819050919050565b6105b6816105a3565b82525050565b60006020820190506105d160008301846105ad565b92915050565b600081519050919050565b600082825260208201905092915050565b6000819050602082019050919050565b600073ffffffffffffffffffffffffffffffffffffffff82169050919050565b600061062e82610603565b9050919050565b61063e81610623565b82525050565b60006106508383610635565b60208301905092915050565b6000602082019050919050565b6000610674826105d7565b61067e81856105e2565b9350610689836105f3565b8060005b838110156106ba5781516106a18882610644565b97506106ac8361065c565b92505060018101905061068d565b5085935050505092915050565b600060208201905081810360008301526106e18184610669565b905092915050565b6106f2816105a3565b81146106fd57600080fd5b50565b60008135905061070f816106e9565b92915050565b60006020828403121561072b5761072a6102ed565b5b600061073984828501610700565b91505092915050565b61074b81610623565b82525050565b60006020820190506107666000830184610742565b92915050565b600081519050919050565b600082825260208201905092915050565b60005b838110156107a657808201518184015260208101905061078b565b60008484015250505050565b60006107bd8261076c565b6107c78185610777565b93506107d7818560208601610788565b6107e081610301565b840191505092915050565b6000610100820190508181036000830152610806818b6107b2565b9050818103602083015261081a818a6107b2565b9050818103604083015261082e81896107b2565b9050818103606083015261084281886107b2565b9050818103608083015261085681876107b2565b905081810360a083015261086a81866107b2565b905081810360c083015261087e81856107b2565b905061088d60e0830184610742565b9998505050505050505050565b600060e08201905081810360008301526108b4818a6107b2565b905081810360208301526108c881896107b2565b905081810360408301526108dc81886107b2565b905081810360608301526108f081876107b2565b9050818103608083015261090481866107b2565b905081810360a083015261091881856107b2565b905081810360c083015261092c81846107b2565b90509897505050505050505056fe608060405234801561001057600080fd5b506040516138f03803806138f0833981810160405281019061003291906103ef565b8088888160009081610044919061078a565b508060019081610054919061078a565b505050600073ffffffffffffffffffffffffffffffffffffffff168173ffffffffffffffffffffffffffffffffffffffff16036100c95760006040517f1e4fbdf70000000000000000000000000000000000000000000000000000000081526004016100c0919061086b565b60405180910390fd5b6100d88161015660201b60201c565b5087600a90816100e8919061078a565b5086600b90816100f8919061078a565b5085600d9081610108919061078a565b5084600f9081610118919061078a565b5083600c9081610128919061078a565b5082600e9081610138919061078a565b508160109081610148919061078a565b505050505050505050610886565b6000600760009054906101000a900473ffffffffffffffffffffffffffffffffffffffff16905081600760006101000a81548173ffffffffffffffffffffffffffffffffffffffff021916908373ffffffffffffffffffffffffffffffffffffffff1602179055508173ffffffffffffffffffffffffffffffffffffffff168173ffffffffffffffffffffffffffffffffffffffff167f8be0079c531659141344cd1fd0a4f28419497f9722a3daafe3b4186f6b6457e060405160405180910390a35050565b6000604051905090565b600080fd5b600080fd5b600080fd5b600080fd5b6000601f19601f8301169050919050565b7f4e487b7100000000000000000000000000000000000000000000000000000000600052604160045260246000fd5b6102838261023a565b810181811067ffffffffffffffff821117156102a2576102a161024b565b5b80604052505050565b60006102b561021c565b90506102c1828261027a565b919050565b600067ffffffffffffffff8211156102e1576102e061024b565b5b6102ea8261023a565b9050602081019050919050565b60005b838110156103155780820151818401526020810190506102fa565b60008484015250505050565b600061033461032f846102c6565b6102ab565b9050828152602081018484840111156103505761034f610235565b5b61035b8482856102f7565b509392505050565b600082601f83011261037857610377610230565b5b8151610388848260208601610321565b91505092915050565b600073ffffffffffffffffffffffffffffffffffffffff82169050919050565b60006103bc82610391565b9050919050565b6103cc816103b1565b81146103d757600080fd5b50565b6000815190506103e9816103c3565b92915050565b600080600080600080600080610100898b0312156104105761040f610226565b5b600089015167ffffffffffffffff81111561042e5761042d61022b565b5b61043a8b828c01610363565b985050602089015167ffffffffffffffff81111561045b5761045a61022b565b5b6104678b828c01610363565b975050604089015167ffffffffffffffff8111156104885761048761022b565b5b6104948b828c01610363565b965050606089015167ffffffffffffffff8111156104b5576104b461022b565b5b6104c18b828c01610363565b955050608089015167ffffffffffffffff8111156104e2576104e161022b565b5b6104ee8b828c01610363565b94505060a089015167ffffffffffffffff81111561050f5761050e61022b565b5b61051b8b828c01610363565b93505060c089015167ffffffffffffffff81111561053c5761053b61022b565b5b6105488b828c01610363565b92505060e06105598b828c016103da565b9150509295985092959890939650565b600081519050919050565b7f4e487b7100000000000000000000000000000000000000000000000000000000600052602260045260246000fd5b600060028204905060018216806105bb57607f821691505b6020821081036105ce576105cd610574565b5b50919050565b60008190508160005260206000209050919050565b60006020601f8301049050919050565b600082821b905092915050565b6000600883026106367fffffffffffffffffffffffffffffffffffffffffffffffffffffffffffffffff826105f9565b61064086836105f9565b95508019841693508086168417925050509392505050565b6000819050919050565b6000819050919050565b600061068761068261067d84610658565b610662565b610658565b9050919050565b6000819050919050565b6106a18361066c565b6106b56106ad8261068e565b848454610606565b825550505050565b600090565b6106ca6106bd565b6106d5818484610698565b505050565b5b818110156106f9576106ee6000826106c2565b6001810190506106db565b5050565b601f82111561073e5761070f816105d4565b610718846105e9565b81016020851015610727578190505b61073b610733856105e9565b8301826106da565b50505b505050565b600082821c905092915050565b600061076160001984600802610743565b1980831691505092915050565b600061077a8383610750565b9150826002028217905092915050565b61079382610569565b67ffffffffffffffff8111156107ac576107ab61024b565b5b6107b682546105a3565b6107c18282856106fd565b600060209050601f8311600181146107f457600084156107e2578287015190505b6107ec858261076e565b865550610854565b601f198416610802866105d4565b60005b8281101561082a57848901518255600182019150602085019450602081019050610805565b868310156108475784890151610843601f891682610750565b8355505b6001600288020188555050505b505050505050565b610865816103b1565b82525050565b6000602082019050610880600083018461085c565b92915050565b61305b806108956000396000f3fe608060405234801561001057600080fd5b50600436106101cf5760003560e01c806385edc73e11610104578063b88d4fde116100a2578063e2c6875c11610071578063e2c6875c1461051e578063e5326ab11461053c578063e985e9c51461055a578063f2fde38b1461058a576101cf565b8063b88d4fde14610484578063c155f3b1146104a0578063c87b56dd146104be578063d0def521146104ee576101cf565b806395d89b41116100de57806395d89b41146103fc578063a22cb4651461041a578063abc8c7af14610436578063b04eec5914610454576101cf565b806385edc73e146103a257806386268740146103c05780638da5cb5b146103de576101cf565b806342842e0e1161017157806370a082311161014b57806370a082311461032e578063715018a61461035e57806373ad6c2d1461036857806375794a3c14610384576101cf565b806342842e0e146102c657806342966c68146102e25780636352211e146102fe576101cf565b8063095ea7b3116101ad578063095ea7b3146102525780631f6f90bd1461026e57806323b872dd1461028c5780632f39352a146102a8576101cf565b806301ffc9a7146101d457806306fdde0314610204578063081812fc14610222575b600080fd5b6101ee60048036038101906101e991906123db565b6105a6565b6040516101fb9190612423565b60405180910390f35b61020c610607565b60405161021991906124ce565b60405180910390f35b61023c60048036038101906102379190612526565b610699565b6040516102499190612594565b60405180910390f35b61026c600480360381019061026791906125db565b6106b5565b005b6102766106cb565b60405161028391906124ce565b60405180910390f35b6102a660048036038101906102a1919061261b565b610759565b005b6102b061085b565b6040516102bd91906124ce565b60405180910390f35b6102e060048036038101906102db919061261b565b6108e9565b005b6102fc60048036038101906102f79190612526565b610909565b005b61031860048036038101906103139190612526565b61098b565b6040516103259190612594565b60405180910390f35b6103486004803603810190610343919061266e565b61099d565b60405161035591906126aa565b60405180910390f35b610366610a57565b005b610382600480360381019061037d919061266e565b610a6b565b005b61038c610ab7565b60405161039991906126aa565b60405180910390f35b6103aa610abd565b6040516103b791906124ce565b60405180910390f35b6103c8610b4b565b6040516103d591906124ce565b60405180910390f35b6103e6610bd9565b6040516103f39190612594565b60405180910390f35b610404610c03565b60405161041191906124ce565b60405180910390f35b610434600480360381019061042f91906126f1565b610c95565b005b61043e610cab565b60405161044b9190612594565b60405180910390f35b61046e60048036038101906104699190612866565b610cd1565b60405161047b91906126aa565b60405180910390f35b61049e60048036038101906104999190612963565b610def565b005b6104a8610e14565b6040516104b591906124ce565b60405180910390f35b6104d860048036038101906104d39190612526565b610ea2565b6040516104e591906124ce565b60405180910390f35b61050860048036038101906105039190612866565b610fb5565b60405161051591906126aa565b60405180910390f35b610526611042565b60405161053391906124ce565b60405180910390f35b6105446110d0565b60405161055191906124ce565b60405180910390f35b610574600480360381019061056f91906129e6565b61115e565b6040516105819190612423565b60405180910390f35b6105a4600480360381019061059f919061266e565b6111f2565b005b6000634906490660e01b7bffffffffffffffffffffffffffffffffffffffffffffffffffffffff1916827bffffffffffffffffffffffffffffffffffffffffffffffffffffffff1916148061060057506105ff82611278565b5b9050919050565b60606000805461061690612a55565b80601f016020809104026020016040519081016040528092919081815260200182805461064290612a55565b801561068f5780601f106106645761010080835404028352916020019161068f565b820191906000526020600020905b81548152906001019060200180831161067257829003601f168201915b5050505050905090565b60006106a48261135a565b506106ae826113e2565b9050919050565b6106c782826106c261141f565b611427565b5050565b600f80546106d890612a55565b80601f016020809104026020016040519081016040528092919081815260200182805461070490612a55565b80156107515780601f1061072657610100808354040283529160200191610751565b820191906000526020600020905b81548152906001019060200180831161073457829003601f168201915b505050505081565b600073ffffffffffffffffffffffffffffffffffffffff168273ffffffffffffffffffffffffffffffffffffffff16036107cb5760006040517f64a0ae920000000000000000000000000000000000000000000000000000000081526004016107c29190612594565b60405180910390fd5b60006107df83836107da61141f565b611439565b90508373ffffffffffffffffffffffffffffffffffffffff168173ffffffffffffffffffffffffffffffffffffffff1614610855578382826040517f64283d7b00000000000000000000000000000000000000000000000000000000815260040161084c93929190612a86565b60405180910390fd5b50505050565b600b805461086890612a55565b80601f016020809104026020016040519081016040528092919081815260200182805461089490612a55565b80156108e15780601f106108b6576101008083540402835291602001916108e1565b820191906000526020600020905b8154815290600101906020018083116108c457829003601f168201915b505050505081565b61090483838360405180602001604052806000815250610def565b505050565b3373ffffffffffffffffffffffffffffffffffffffff166109298261098b565b73ffffffffffffffffffffffffffffffffffffffff161461097f576040517f08c379a000000000000000000000000000000000000000000000000000000000815260040161097690612b09565b60405180910390fd5b61098881611653565b50565b60006109968261135a565b9050919050565b60008073ffffffffffffffffffffffffffffffffffffffff168273ffffffffffffffffffffffffffffffffffffffff1603610a105760006040517f89c62b64000000000000000000000000000000000000000000000000000000008152600401610a079190612594565b60405180910390fd5b600360008373ffffffffffffffffffffffffffffffffffffffff1673ffffffffffffffffffffffffffffffffffffffff168152602001908152602001600020549050919050565b610a5f6116d9565b610a696000611760565b565b610a736116d9565b80600960006101000a81548173ffffffffffffffffffffffffffffffffffffffff021916908373ffffffffffffffffffffffffffffffffffffffff16021790555050565b60085481565b60108054610aca90612a55565b80601f0160208091040260200160405190810160405280929190818152602001828054610af690612a55565b8015610b435780601f10610b1857610100808354040283529160200191610b43565b820191906000526020600020905b815481529060010190602001808311610b2657829003601f168201915b505050505081565b600e8054610b5890612a55565b80601f0160208091040260200160405190810160405280929190818152602001828054610b8490612a55565b8015610bd15780601f10610ba657610100808354040283529160200191610bd1565b820191906000526020600020905b815481529060010190602001808311610bb457829003601f168201915b505050505081565b6000600760009054906101000a900473ffffffffffffffffffffffffffffffffffffffff16905090565b606060018054610c1290612a55565b80601f0160208091040260200160405190810160405280929190818152602001828054610c3e90612a55565b8015610c8b5780601f10610c6057610100808354040283529160200191610c8b565b820191906000526020600020905b815481529060010190602001808311610c6e57829003601f168201915b5050505050905090565b610ca7610ca061141f565b8383611826565b5050565b600960009054906101000a900473ffffffffffffffffffffffffffffffffffffffff1681565b6000600960009054906101000a900473ffffffffffffffffffffffffffffffffffffffff1673ffffffffffffffffffffffffffffffffffffffff163373ffffffffffffffffffffffffffffffffffffffff1614610d63576040517f08c379a0000000000000000000000000000000000000000000000000000000008152600401610d5a90612b75565b60405180910390fd5b6000600854905060086000815480929190610d7d90612bc4565b9190505550610d8c8482611995565b610d9681846119b3565b808473ffffffffffffffffffffffffffffffffffffffff167fe7cd4ce7f2a465edc730269a1305e8a48bad821e8fb7e152ec413829c01a53c485604051610ddd91906124ce565b60405180910390a38091505092915050565b610dfa848484610759565b610e0e610e0561141f565b85858585611a0f565b50505050565b600c8054610e2190612a55565b80601f0160208091040260200160405190810160405280929190818152602001828054610e4d90612a55565b8015610e9a5780601f10610e6f57610100808354040283529160200191610e9a565b820191906000526020600020905b815481529060010190602001808311610e7d57829003601f168201915b505050505081565b6060610ead8261135a565b506000600660008481526020019081526020016000208054610ece90612a55565b80601f0160208091040260200160405190810160405280929190818152602001828054610efa90612a55565b8015610f475780601f10610f1c57610100808354040283529160200191610f47565b820191906000526020600020905b815481529060010190602001808311610f2a57829003601f168201915b505050505090506000610f58611bc0565b90506000815103610f6d578192505050610fb0565b600082511115610fa2578082604051602001610f8a929190612c48565b60405160208183030381529060405292505050610fb0565b610fab84611bd7565b925050505b919050565b600080600854905060086000815480929190610fd090612bc4565b9190505550610fdf8482611995565b610fe981846119b3565b808473ffffffffffffffffffffffffffffffffffffffff167fe7cd4ce7f2a465edc730269a1305e8a48bad821e8fb7e152ec413829c01a53c48560405161103091906124ce565b60405180910390a38091505092915050565b600d805461104f90612a55565b80601f016020809104026020016040519081016040528092919081815260200182805461107b90612a55565b80156110c85780601f1061109d576101008083540402835291602001916110c8565b820191906000526020600020905b8154815290600101906020018083116110ab57829003601f168201915b505050505081565b600a80546110dd90612a55565b80601f016020809104026020016040519081016040528092919081815260200182805461110990612a55565b80156111565780601f1061112b57610100808354040283529160200191611156565b820191906000526020600020905b81548152906001019060200180831161113957829003601f168201915b505050505081565b6000600560008473ffffffffffffffffffffffffffffffffffffffff1673ffffffffffffffffffffffffffffffffffffffff16815260200190815260200160002060008373ffffffffffffffffffffffffffffffffffffffff1673ffffffffffffffffffffffffffffffffffffffff16815260200190815260200160002060009054906101000a900460ff16905092915050565b6111fa6116d9565b600073ffffffffffffffffffffffffffffffffffffffff168173ffffffffffffffffffffffffffffffffffffffff160361126c5760006040517f1e4fbdf70000000000000000000000000000000000000000000000000000000081526004016112639190612594565b60405180910390fd5b61127581611760565b50565b60007f80ac58cd000000000000000000000000000000000000000000000000000000007bffffffffffffffffffffffffffffffffffffffffffffffffffffffff1916827bffffffffffffffffffffffffffffffffffffffffffffffffffffffff1916148061134357507f5b5e139f000000000000000000000000000000000000000000000000000000007bffffffffffffffffffffffffffffffffffffffffffffffffffffffff1916827bffffffffffffffffffffffffffffffffffffffffffffffffffffffff1916145b80611353575061135282611c40565b5b9050919050565b60008061136683611caa565b9050600073ffffffffffffffffffffffffffffffffffffffff168173ffffffffffffffffffffffffffffffffffffffff16036113d957826040517f7e2732890000000000000000000000000000000000000000000000000000000081526004016113d091906126aa565b60405180910390fd5b80915050919050565b60006004600083815260200190815260200160002060009054906101000a900473ffffffffffffffffffffffffffffffffffffffff169050919050565b600033905090565b6114348383836001611ce7565b505050565b60008061144584611caa565b9050600073ffffffffffffffffffffffffffffffffffffffff168373ffffffffffffffffffffffffffffffffffffffff161461148757611486818486611eac565b5b600073ffffffffffffffffffffffffffffffffffffffff168173ffffffffffffffffffffffffffffffffffffffff1614611518576114c9600085600080611ce7565b6001600360008373ffffffffffffffffffffffffffffffffffffffff1673ffffffffffffffffffffffffffffffffffffffff168152602001908152602001600020600082825403925050819055505b600073ffffffffffffffffffffffffffffffffffffffff168573ffffffffffffffffffffffffffffffffffffffff161461159b576001600360008773ffffffffffffffffffffffffffffffffffffffff1673ffffffffffffffffffffffffffffffffffffffff168152602001908152602001600020600082825401925050819055505b846002600086815260200190815260200160002060006101000a81548173ffffffffffffffffffffffffffffffffffffffff021916908373ffffffffffffffffffffffffffffffffffffffff160217905550838573ffffffffffffffffffffffffffffffffffffffff168273ffffffffffffffffffffffffffffffffffffffff167fddf252ad1be2c89b69c2b068fc378daa952ba7f163c4a11628f55a4df523b3ef60405160405180910390a4809150509392505050565b60006116626000836000611439565b9050600073ffffffffffffffffffffffffffffffffffffffff168173ffffffffffffffffffffffffffffffffffffffff16036116d557816040517f7e2732890000000000000000000000000000000000000000000000000000000081526004016116cc91906126aa565b60405180910390fd5b5050565b6116e161141f565b73ffffffffffffffffffffffffffffffffffffffff166116ff610bd9565b73ffffffffffffffffffffffffffffffffffffffff161461175e5761172261141f565b6040517f118cdaa70000000000000000000000000000000000000000000000000000000081526004016117559190612594565b60405180910390fd5b565b6000600760009054906101000a900473ffffffffffffffffffffffffffffffffffffffff16905081600760006101000a81548173ffffffffffffffffffffffffffffffffffffffff021916908373ffffffffffffffffffffffffffffffffffffffff1602179055508173ffffffffffffffffffffffffffffffffffffffff168173ffffffffffffffffffffffffffffffffffffffff167f8be0079c531659141344cd1fd0a4f28419497f9722a3daafe3b4186f6b6457e060405160405180910390a35050565b600073ffffffffffffffffffffffffffffffffffffffff168273ffffffffffffffffffffffffffffffffffffffff160361189757816040517f5b08ba1800000000000000000000000000000000000000000000000000000000815260040161188e9190612594565b60405180910390fd5b80600560008573ffffffffffffffffffffffffffffffffffffffff1673ffffffffffffffffffffffffffffffffffffffff16815260200190815260200160002060008473ffffffffffffffffffffffffffffffffffffffff1673ffffffffffffffffffffffffffffffffffffffff16815260200190815260200160002060006101000a81548160ff0219169083151502179055508173ffffffffffffffffffffffffffffffffffffffff168373ffffffffffffffffffffffffffffffffffffffff167f17307eab39ab6107e8899845ad3d59bd9653f200f220920489ca2b5937696c31836040516119889190612423565b60405180910390a3505050565b6119af828260405180602001604052806000815250611f70565b5050565b806006600084815260200190815260200160002090816119d39190612e18565b507ff8e1a15aba9398e019f0b49df1a4fde98ee17ae345cb5f6b5e2c27f5033e8ce782604051611a0391906126aa565b60405180910390a15050565b60008373ffffffffffffffffffffffffffffffffffffffff163b1115611bb9578273ffffffffffffffffffffffffffffffffffffffff1663150b7a02868685856040518563ffffffff1660e01b8152600401611a6e9493929190612f3f565b6020604051808303816000875af1925050508015611aaa57506040513d601f19601f82011682018060405250810190611aa79190612fa0565b60015b611b2e573d8060008114611ada576040519150601f19603f3d011682016040523d82523d6000602084013e611adf565b606091505b506000815103611b2657836040517f64a0ae92000000000000000000000000000000000000000000000000000000008152600401611b1d9190612594565b60405180910390fd5b805160208201fd5b63150b7a0260e01b7bffffffffffffffffffffffffffffffffffffffffffffffffffffffff1916817bffffffffffffffffffffffffffffffffffffffffffffffffffffffff191614611bb757836040517f64a0ae92000000000000000000000000000000000000000000000000000000008152600401611bae9190612594565b60405180910390fd5b505b5050505050565b606060405180602001604052806000815250905090565b6060611be28261135a565b506000611bed611bc0565b90506000815111611c0d5760405180602001604052806000815250611c38565b80611c1784611f94565b604051602001611c28929190612c48565b6040516020818303038152906040525b915050919050565b60007f01ffc9a7000000000000000000000000000000000000000000000000000000007bffffffffffffffffffffffffffffffffffffffffffffffffffffffff1916827bffffffffffffffffffffffffffffffffffffffffffffffffffffffff1916149050919050565b60006002600083815260200190815260200160002060009054906101000a900473ffffffffffffffffffffffffffffffffffffffff169050919050565b8080611d205750600073ffffffffffffffffffffffffffffffffffffffff168273ffffffffffffffffffffffffffffffffffffffff1614155b15611e54576000611d308461135a565b9050600073ffffffffffffffffffffffffffffffffffffffff168373ffffffffffffffffffffffffffffffffffffffff1614158015611d9b57508273ffffffffffffffffffffffffffffffffffffffff168173ffffffffffffffffffffffffffffffffffffffff1614155b8015611dae5750611dac818461115e565b155b15611df057826040517fa9fbf51f000000000000000000000000000000000000000000000000000000008152600401611de79190612594565b60405180910390fd5b8115611e5257838573ffffffffffffffffffffffffffffffffffffffff168273ffffffffffffffffffffffffffffffffffffffff167f8c5be1e5ebec7d5bd14f71427d1e84f3dd0314c0f7b2291e5b200ac8c7c3b92560405160405180910390a45b505b836004600085815260200190815260200160002060006101000a81548173ffffffffffffffffffffffffffffffffffffffff021916908373ffffffffffffffffffffffffffffffffffffffff16021790555050505050565b611eb7838383612062565b611f6b57600073ffffffffffffffffffffffffffffffffffffffff168373ffffffffffffffffffffffffffffffffffffffff1603611f2c57806040517f7e273289000000000000000000000000000000000000000000000000000000008152600401611f2391906126aa565b60405180910390fd5b81816040517f177e802f000000000000000000000000000000000000000000000000000000008152600401611f62929190612fcd565b60405180910390fd5b505050565b611f7a8383612123565b611f8f611f8561141f565b6000858585611a0f565b505050565b606060006001611fa38461221c565b01905060008167ffffffffffffffff811115611fc257611fc161273b565b5b6040519080825280601f01601f191660200182016040528015611ff45781602001600182028036833780820191505090505b509050600082602083010190505b600115612057578080600190039150507f3031323334353637383961626364656600000000000000000000000000000000600a86061a8153600a858161204b5761204a612ff6565b5b04945060008503612002575b819350505050919050565b60008073ffffffffffffffffffffffffffffffffffffffff168373ffffffffffffffffffffffffffffffffffffffff161415801561211a57508273ffffffffffffffffffffffffffffffffffffffff168473ffffffffffffffffffffffffffffffffffffffff1614806120db57506120da848461115e565b5b8061211957508273ffffffffffffffffffffffffffffffffffffffff16612101836113e2565b73ffffffffffffffffffffffffffffffffffffffff16145b5b90509392505050565b600073ffffffffffffffffffffffffffffffffffffffff168273ffffffffffffffffffffffffffffffffffffffff16036121955760006040517f64a0ae9200000000000000000000000000000000000000000000000000000000815260040161218c9190612594565b60405180910390fd5b60006121a383836000611439565b9050600073ffffffffffffffffffffffffffffffffffffffff168173ffffffffffffffffffffffffffffffffffffffff16146122175760006040517f73c6ac6e00000000000000000000000000000000000000000000000000000000815260040161220e9190612594565b60405180910390fd5b505050565b600080600090507a184f03e93ff9f4daa797ed6e38ed64bf6a1f010000000000000000831061227a577a184f03e93ff9f4daa797ed6e38ed64bf6a1f01000000000000000083816122705761226f612ff6565b5b0492506040810190505b6d04ee2d6d415b85acef810000000083106122b7576d04ee2d6d415b85acef810000000083816122ad576122ac612ff6565b5b0492506020810190505b662386f26fc1000083106122e657662386f26fc1000083816122dc576122db612ff6565b5b0492506010810190505b6305f5e100831061230f576305f5e100838161230557612304612ff6565b5b0492506008810190505b612710831061233457612710838161232a57612329612ff6565b5b0492506004810190505b60648310612357576064838161234d5761234c612ff6565b5b0492506002810190505b600a8310612366576001810190505b80915050919050565b6000604051905090565b600080fd5b600080fd5b60007fffffffff0000000000000000000000000000000000000000000000000000000082169050919050565b6123b881612383565b81146123c357600080fd5b50565b6000813590506123d5816123af565b92915050565b6000602082840312156123f1576123f0612379565b5b60006123ff848285016123c6565b91505092915050565b60008115159050919050565b61241d81612408565b82525050565b60006020820190506124386000830184612414565b92915050565b600081519050919050565b600082825260208201905092915050565b60005b8381101561247857808201518184015260208101905061245d565b60008484015250505050565b6000601f19601f8301169050919050565b60006124a08261243e565b6124aa8185612449565b93506124ba81856020860161245a565b6124c381612484565b840191505092915050565b600060208201905081810360008301526124e88184612495565b905092915050565b6000819050919050565b612503816124f0565b811461250e57600080fd5b50565b600081359050612520816124fa565b92915050565b60006020828403121561253c5761253b612379565b5b600061254a84828501612511565b91505092915050565b600073ffffffffffffffffffffffffffffffffffffffff82169050919050565b600061257e82612553565b9050919050565b61258e81612573565b82525050565b60006020820190506125a96000830184612585565b92915050565b6125b881612573565b81146125c357600080fd5b50565b6000813590506125d5816125af565b92915050565b600080604083850312156125f2576125f1612379565b5b6000612600858286016125c6565b925050602061261185828601612511565b9150509250929050565b60008060006060848603121561263457612633612379565b5b6000612642868287016125c6565b9350506020612653868287016125c6565b925050604061266486828701612511565b9150509250925092565b60006020828403121561268457612683612379565b5b6000612692848285016125c6565b91505092915050565b6126a4816124f0565b82525050565b60006020820190506126bf600083018461269b565b92915050565b6126ce81612408565b81146126d957600080fd5b50565b6000813590506126eb816126c5565b92915050565b6000806040838503121561270857612707612379565b5b6000612716858286016125c6565b9250506020612727858286016126dc565b9150509250929050565b600080fd5b600080fd5b7f4e487b7100000000000000000000000000000000000000000000000000000000600052604160045260246000fd5b61277382612484565b810181811067ffffffffffffffff821117156127925761279161273b565b5b80604052505050565b60006127a561236f565b90506127b1828261276a565b919050565b600067ffffffffffffffff8211156127d1576127d061273b565b5b6127da82612484565b9050602081019050919050565b82818337600083830152505050565b6000612809612804846127b6565b61279b565b90508281526020810184848401111561282557612824612736565b5b6128308482856127e7565b509392505050565b600082601f83011261284d5761284c612731565b5b813561285d8482602086016127f6565b91505092915050565b6000806040838503121561287d5761287c612379565b5b600061288b858286016125c6565b925050602083013567ffffffffffffffff8111156128ac576128ab61237e565b5b6128b885828601612838565b9150509250929050565b600067ffffffffffffffff8211156128dd576128dc61273b565b5b6128e682612484565b9050602081019050919050565b6000612906612901846128c2565b61279b565b90508281526020810184848401111561292257612921612736565b5b61292d8482856127e7565b509392505050565b600082601f83011261294a57612949612731565b5b813561295a8482602086016128f3565b91505092915050565b6000806000806080858703121561297d5761297c612379565b5b600061298b878288016125c6565b945050602061299c878288016125c6565b93505060406129ad87828801612511565b925050606085013567ffffffffffffffff8111156129ce576129cd61237e565b5b6129da87828801612935565b91505092959194509250565b600080604083850312156129fd576129fc612379565b5b6000612a0b858286016125c6565b9250506020612a1c858286016125c6565b9150509250929050565b7f4e487b7100000000000000000000000000000000000000000000000000000000600052602260045260246000fd5b60006002820490506001821680612a6d57607f821691505b602082108103612a8057612a7f612a26565b5b50919050565b6000606082019050612a9b6000830186612585565b612aa8602083018561269b565b612ab56040830184612585565b949350505050565b7f4e6f74206f776e65720000000000000000000000000000000000000000000000600082015250565b6000612af3600983612449565b9150612afe82612abd565b602082019050919050565b60006020820190508181036000830152612b2281612ae6565b9050919050565b7f4e6f74206d61726b6574706c6163650000000000000000000000000000000000600082015250565b6000612b5f600f83612449565b9150612b6a82612b29565b602082019050919050565b60006020820190508181036000830152612b8e81612b52565b9050919050565b7f4e487b7100000000000000000000000000000000000000000000000000000000600052601160045260246000fd5b6000612bcf826124f0565b91507fffffffffffffffffffffffffffffffffffffffffffffffffffffffffffffffff8203612c0157612c00612b95565b5b600182019050919050565b600081905092915050565b6000612c228261243e565b612c2c8185612c0c565b9350612c3c81856020860161245a565b80840191505092915050565b6000612c548285612c17565b9150612c608284612c17565b91508190509392505050565b60008190508160005260206000209050919050565b60006020601f8301049050919050565b600082821b905092915050565b600060088302612cce7fffffffffffffffffffffffffffffffffffffffffffffffffffffffffffffffff82612c91565b612cd88683612c91565b95508019841693508086168417925050509392505050565b6000819050919050565b6000612d15612d10612d0b846124f0565b612cf0565b6124f0565b9050919050565b6000819050919050565b612d2f83612cfa565b612d43612d3b82612d1c565b848454612c9e565b825550505050565b600090565b612d58612d4b565b612d63818484612d26565b505050565b5b81811015612d8757612d7c600082612d50565b600181019050612d69565b5050565b601f821115612dcc57612d9d81612c6c565b612da684612c81565b81016020851015612db5578190505b612dc9612dc185612c81565b830182612d68565b50505b505050565b600082821c905092915050565b6000612def60001984600802612dd1565b1980831691505092915050565b6000612e088383612dde565b9150826002028217905092915050565b612e218261243e565b67ffffffffffffffff811115612e3a57612e3961273b565b5b612e448254612a55565b612e4f828285612d8b565b600060209050601f831160018114612e825760008415612e70578287015190505b612e7a8582612dfc565b865550612ee2565b601f198416612e9086612c6c565b60005b82811015612eb857848901518255600182019150602085019450602081019050612e93565b86831015612ed55784890151612ed1601f891682612dde565b8355505b6001600288020188555050505b505050505050565b600081519050919050565b600082825260208201905092915050565b6000612f1182612eea565b612f1b8185612ef5565b9350612f2b81856020860161245a565b612f3481612484565b840191505092915050565b6000608082019050612f546000830187612585565b612f616020830186612585565b612f6e604083018561269b565b8181036060830152612f808184612f06565b905095945050505050565b600081519050612f9a816123af565b92915050565b600060208284031215612fb657612fb5612379565b5b6000612fc484828501612f8b565b91505092915050565b6000604082019050612fe26000830185612585565b612fef602083018461269b565b9392505050565b7f4e487b7100000000000000000000000000000000000000000000000000000000600052601260045260246000fdfea2646970667358221220729526ece0491376eb2ea98df5ccdc7803bccc76f4720120fa9e9f4657834e6964736f6c634300081c0033a2646970667358221220cb962ee99c4898e502009376eb6235d28d662f65245346ee9160553f9f524fd264736f6c634300081c0033",
  "linkReferences": {},
  "deployedLinkReferences": {}
}