{
  "_format": "hh-sol-artifact-1",
  "contractName": "NFT",
  "sourceName": "contracts/Token.sol",
  "abi": [
    {
      "inputs": [],
      "stateMutability": "nonpayable",
      "type": "constructor"
    },
    {
      "inputs": [
        {
          "internalType": "address",
          "name": "sender",
          "type": "address"
        },
        {
          "internalType": "uint256",
          "name": "tokenId",
          "type": "uint256"
        },
        {
          "internalType": "address",
          "name": "owner",
          "type": "address"
        }
      ],
      "name": "ERC721IncorrectOwner",
      "type": "error"
    },
    {
      "inputs": [
        {
          "internalType": "address",
          "name": "operator",
          "type": "address"
        },
        {
          "internalType": "uint256",
          "name": "tokenId",
          "type": "uint256"
        }
      ],
      "name": "ERC721InsufficientApproval",
      "type": "error"
    },
    {
      "inputs": [
        {
          "internalType": "address",
          "name": "approver",
          "type": "address"
        }
      ],
      "name": "ERC721InvalidApprover",
      "type": "error"
    },
    {
      "inputs": [
        {
          "internalType": "address",
          "name": "operator",
          "type": "address"
        }
      ],
      "name": "ERC721InvalidOperator",
      "type": "error"
    },
    {
      "inputs": [
        {
          "internalType": "address",
          "name": "owner",
          "type": "address"
        }
      ],
      "name": "ERC721InvalidOwner",
      "type": "error"
    },
    {
      "inputs": [
        {
          "internalType": "address",
          "name": "receiver",
          "type": "address"
        }
      ],
      "name": "ERC721InvalidReceiver",
      "type": "error"
    },
    {
      "inputs": [
        {
          "internalType": "address",
          "name": "sender",
          "type": "address"
        }
      ],
      "name": "ERC721InvalidSender",
      "type": "error"
    },
    {
      "inputs": [
        {
          "internalType": "uint256",
          "name": "tokenId",
          "type": "uint256"
        }
      ],
      "name": "ERC721NonexistentToken",
      "type": "error"
    },
    {
      "inputs": [
        {
          "internalType": "address",
          "name": "owner",
          "type": "address"
        }
      ],
      "name": "OwnableInvalidOwner",
      "type": "error"
    },
    {
      "inputs": [
        {
          "internalType": "address",
          "name": "account",
          "type": "address"
        }
      ],
      "name": "OwnableUnauthorizedAccount",
      "type": "error"
    },
    {
      "anonymous": false,
      "inputs": [
        {
          "indexed": true,
          "internalType": "address",
          "name": "owner",
          "type": "address"
        },
        {
          "indexed": true,
          "internalType": "address",
          "name": "approved",
          "type": "address"
        },
        {
          "indexed": true,
          "internalType": "uint256",
          "name": "tokenId",
          "type": "uint256"
        }
      ],
      "name": "Approval",
      "type": "event"
    },
    {
      "anonymous": false,
      "inputs": [
        {
          "indexed": true,
          "internalType": "address",
          "name": "owner",
          "type": "address"
        },
        {
          "indexed": true,
          "internalType": "address",
          "name": "operator",
          "type": "address"
        },
        {
          "indexed": false,
          "internalType": "bool",
          "name": "approved",
          "type": "bool"
        }
      ],
      "name": "ApprovalForAll",
      "type": "event"
    },
    {
      "anonymous": false,
      "inputs": [
        {
          "indexed": false,
          "internalType": "uint256",
          "name": "_fromTokenId",
          "type": "uint256"
        },
        {
          "indexed": false,
          "internalType": "uint256",
          "name": "_toTokenId",
          "type": "uint256"
        }
      ],
      "name": "BatchMetadataUpdate",
      "type": "event"
    },
    {
      "anonymous": false,
      "inputs": [
        {
          "indexed": false,
          "internalType": "uint256",
          "name": "_tokenId",
          "type": "uint256"
        }
      ],
      "name": "MetadataUpdate",
      "type": "event"
    },
    {
      "anonymous": false,
      "inputs": [
        {
          "indexed": true,
          "internalType": "address",
          "name": "to",
          "type": "address"
        },
        {
          "indexed": true,
          "internalType": "uint256",
          "name": "tokenId",
          "type": "uint256"
        },
        {
          "indexed": false,
          "internalType": "string",
          "name": "tokenURI",
          "type": "string"
        }
      ],
      "name": "Minted",
      "type": "event"
    },
    {
      "anonymous": false,
      "inputs": [
        {
          "indexed": true,
          "internalType": "address",
          "name": "previousOwner",
          "type": "address"
        },
        {
          "indexed": true,
          "internalType": "address",
          "name": "newOwner",
          "type": "address"
        }
      ],
      "name": "OwnershipTransferred",
      "type": "event"
    },
    {
      "anonymous": false,
      "inputs": [
        {
          "indexed": true,
          "internalType": "address",
          "name": "from",
          "type": "address"
        },
        {
          "indexed": true,
          "internalType": "address",
          "name": "to",
          "type": "address"
        },
        {
          "indexed": true,
          "internalType": "uint256",
          "name": "tokenId",
          "type": "uint256"
        }
      ],
      "name": "Transfer",
      "type": "event"
    },
    {
      "inputs": [
        {
          "internalType": "address",
          "name": "to",
          "type": "address"
        },
        {
          "internalType": "uint256",
          "name": "tokenId",
          "type": "uint256"
        }
      ],
      "name": "approve",
      "outputs": [],
      "stateMutability": "nonpayable",
      "type": "function"
    },
    {
      "inputs": [
        {
          "internalType": "address",
          "name": "owner",
          "type": "address"
        }
      ],
      "name": "balanceOf",
      "outputs": [
        {
          "internalType": "uint256",
          "name": "",
          "type": "uint256"
        }
      ],
      "stateMutability": "view",
      "type": "function"
    },
    {
      "inputs": [
        {
          "internalType": "uint256",
          "name": "tokenId",
          "type": "uint256"
        }
      ],
      "name": "burn",
      "outputs": [],
      "stateMutability": "nonpayable",
      "type": "function"
    },
    {
      "inputs": [
        {
          "internalType": "uint256",
          "name": "tokenId",
          "type": "uint256"
        }
      ],
      "name": "getApproved",
      "outputs": [
        {
          "internalType": "address",
          "name": "",
          "type": "address"
        }
      ],
      "stateMutability": "view",
      "type": "function"
    },
    {
      "inputs": [
        {
          "internalType": "address",
          "name": "owner",
          "type": "address"
        },
        {
          "internalType": "address",
          "name": "operator",
          "type": "address"
        }
      ],
      "name": "isApprovedForAll",
      "outputs": [
        {
          "internalType": "bool",
          "name": "",
          "type": "bool"
        }
      ],
      "stateMutability": "view",
      "type": "function"
    },
    {
      "inputs": [],
      "name": "marketplace",
      "outputs": [
        {
          "internalType": "address",
          "name": "",
          "type": "address"
        }
      ],
      "stateMutability": "view",
      "type": "function"
    },
    {
      "inputs": [
        {
          "internalType": "address",
          "name": "to",
          "type": "address"
        },
        {
          "internalType": "string",
          "name": "uri",
          "type": "string"
        }
      ],
      "name": "mint",
      "outputs": [
        {
          "internalType": "uint256",
          "name": "",
          "type": "uint256"
        }
      ],
      "stateMutability": "nonpayable",
      "type": "function"
    },
    {
      "inputs": [
        {
          "internalType": "address",
          "name": "to",
          "type": "address"
        },
        {
          "internalType": "string",
          "name": "uri",
          "type": "string"
        }
      ],
      "name": "mintFromMarketplace",
      "outputs": [
        {
          "internalType": "uint256",
          "name": "",
          "type": "uint256"
        }
      ],
      "stateMutability": "nonpayable",
      "type": "function"
    },
    {
      "inputs": [],
      "name": "name",
      "outputs": [
        {
          "internalType": "string",
          "name": "",
          "type": "string"
        }
      ],
      "stateMutability": "view",
      "type": "function"
    },
    {
      "inputs": [],
      "name": "nextTokenId",
      "outputs": [
        {
          "internalType": "uint256",
          "name": "",
          "type": "uint256"
        }
      ],
      "stateMutability": "view",
      "type": "function"
    },
    {
      "inputs": [],
      "name": "owner",
      "outputs": [
        {
          "internalType": "address",
          "name": "",
          "type": "address"
        }
      ],
      "stateMutability": "view",
      "type": "function"
    },
    {
      "inputs": [
        {
          "internalType": "uint256",
          "name": "tokenId",
          "type": "uint256"
        }
      ],
      "name": "ownerOf",
      "outputs": [
        {
          "internalType": "address",
          "name": "",
          "type": "address"
        }
      ],
      "stateMutability": "view",
      "type": "function"
    },
    {
      "inputs": [],
      "name": "renounceOwnership",
      "outputs": [],
      "stateMutability": "nonpayable",
      "type": "function"
    },
    {
      "inputs": [
        {
          "internalType": "address",
          "name": "from",
          "type": "address"
        },
        {
          "internalType": "address",
          "name": "to",
          "type": "address"
        },
        {
          "internalType": "uint256",
          "name": "tokenId",
          "type": "uint256"
        }
      ],
      "name": "safeTransferFrom",
      "outputs": [],
      "stateMutability": "nonpayable",
      "type": "function"
    },
    {
      "inputs": [
        {
          "internalType": "address",
          "name": "from",
          "type": "address"
        },
        {
          "internalType": "address",
          "name": "to",
          "type": "address"
        },
        {
          "internalType": "uint256",
          "name": "tokenId",
          "type": "uint256"
        },
        {
          "internalType": "bytes",
          "name": "data",
          "type": "bytes"
        }
      ],
      "name": "safeTransferFrom",
      "outputs": [],
      "stateMutability": "nonpayable",
      "type": "function"
    },
    {
      "inputs": [
        {
          "internalType": "address",
          "name": "operator",
          "type": "address"
        },
        {
          "internalType": "bool",
          "name": "approved",
          "type": "bool"
        }
      ],
      "name": "setApprovalForAll",
      "outputs": [],
      "stateMutability": "nonpayable",
      "type": "function"
    },
    {
      "inputs": [
        {
          "internalType": "address",
          "name": "_marketplace",
          "type": "address"
        }
      ],
      "name": "setMarketplace",
      "outputs": [],
      "stateMutability": "nonpayable",
      "type": "function"
    },
    {
      "inputs": [
        {
          "internalType": "bytes4",
          "name": "interfaceId",
          "type": "bytes4"
        }
      ],
      "name": "supportsInterface",
      "outputs": [
        {
          "internalType": "bool",
          "name": "",
          "type": "bool"
        }
      ],
      "stateMutability": "view",
      "type": "function"
    },
    {
      "inputs": [],
      "name": "symbol",
      "outputs": [
        {
          "internalType": "string",
          "name": "",
          "type": "string"
        }
      ],
      "stateMutability": "view",
      "type": "function"
    },
    {
      "inputs": [
        {
          "internalType": "uint256",
          "name": "tokenId",
          "type": "uint256"
        }
      ],
      "name": "tokenURI",
      "outputs": [
        {
          "internalType": "string",
          "name": "",
          "type": "string"
        }
      ],
      "stateMutability": "view",
      "type": "function"
    },
    {
      "inputs": [
        {
          "internalType": "address",
          "name": "from",
          "type": "address"
        },
        {
          "internalType": "address",
          "name": "to",
          "type": "address"
        },
        {
          "internalType": "uint256",
          "name": "tokenId",
          "type": "uint256"
        }
      ],
      "name": "transferFrom",
      "outputs": [],
      "stateMutability": "nonpayable",
      "type": "function"
    },
    {
      "inputs": [
        {
          "internalType": "address",
          "name": "newOwner",
          "type": "address"
        }
      ],
      "name": "transferOwnership",
      "outputs": [],
      "stateMutability": "nonpayable",
      "type": "function"
    }
  ],
  "bytecode": "0x608060405234801561001057600080fd5b50336040518060400160405280600681526020017f4d79204e465400000000000000000000000000000000000000000000000000008152506040518060400160405280600481526020017f4d4e465400000000000000000000000000000000000000000000000000000000815250816000908161008d919061043d565b50806001908161009d919061043d565b505050600073ffffffffffffffffffffffffffffffffffffffff168173ffffffffffffffffffffffffffffffffffffffff16036101125760006040517f1e4fbdf70000000000000000000000000000000000000000000000000000000081526004016101099190610550565b60405180910390fd5b6101218161012760201b60201c565b5061056b565b6000600760009054906101000a900473ffffffffffffffffffffffffffffffffffffffff16905081600760006101000a81548173ffffffffffffffffffffffffffffffffffffffff021916908373ffffffffffffffffffffffffffffffffffffffff1602179055508173ffffffffffffffffffffffffffffffffffffffff168173ffffffffffffffffffffffffffffffffffffffff167f8be0079c531659141344cd1fd0a4f28419497f9722a3daafe3b4186f6b6457e060405160405180910390a35050565b600081519050919050565b7f4e487b7100000000000000000000000000000000000000000000000000000000600052604160045260246000fd5b7f4e487b7100000000000000000000000000000000000000000000000000000000600052602260045260246000fd5b6000600282049050600182168061026e57607f821691505b60208210810361028157610280610227565b5b50919050565b60008190508160005260206000209050919050565b60006020601f8301049050919050565b600082821b905092915050565b6000600883026102e97fffffffffffffffffffffffffffffffffffffffffffffffffffffffffffffffff826102ac565b6102f386836102ac565b95508019841693508086168417925050509392505050565b6000819050919050565b6000819050919050565b600061033a6103356103308461030b565b610315565b61030b565b9050919050565b6000819050919050565b6103548361031f565b61036861036082610341565b8484546102b9565b825550505050565b600090565b61037d610370565b61038881848461034b565b505050565b5b818110156103ac576103a1600082610375565b60018101905061038e565b5050565b601f8211156103f1576103c281610287565b6103cb8461029c565b810160208510156103da578190505b6103ee6103e68561029c565b83018261038d565b50505b505050565b600082821c905092915050565b6000610414600019846008026103f6565b1980831691505092915050565b600061042d8383610403565b9150826002028217905092915050565b610446826101ed565b67ffffffffffffffff81111561045f5761045e6101f8565b5b6104698254610256565b6104748282856103b0565b600060209050601f8311600181146104a75760008415610495578287015190505b61049f8582610421565b865550610507565b601f1984166104b586610287565b60005b828110156104dd578489015182556001820191506020850194506020810190506104b8565b868310156104fa57848901516104f6601f891682610403565b8355505b6001600288020188555050505b505050505050565b600073ffffffffffffffffffffffffffffffffffffffff82169050919050565b600061053a8261050f565b9050919050565b61054a8161052f565b82525050565b60006020820190506105656000830184610541565b92915050565b612b128061057a6000396000f3fe608060405234801561001057600080fd5b50600436106101425760003560e01c806375794a3c116100b8578063b04eec591161007c578063b04eec591461034f578063b88d4fde1461037f578063c87b56dd1461039b578063d0def521146103cb578063e985e9c5146103fb578063f2fde38b1461042b57610142565b806375794a3c146102bb5780638da5cb5b146102d957806395d89b41146102f7578063a22cb46514610315578063abc8c7af1461033157610142565b806342842e0e1161010a57806342842e0e146101fd57806342966c68146102195780636352211e1461023557806370a0823114610265578063715018a61461029557806373ad6c2d1461029f57610142565b806301ffc9a71461014757806306fdde0314610177578063081812fc14610195578063095ea7b3146101c557806323b872dd146101e1575b600080fd5b610161600480360381019061015c9190611e92565b610447565b60405161016e9190611eda565b60405180910390f35b61017f6104a8565b60405161018c9190611f85565b60405180910390f35b6101af60048036038101906101aa9190611fdd565b61053a565b6040516101bc919061204b565b60405180910390f35b6101df60048036038101906101da9190612092565b610556565b005b6101fb60048036038101906101f691906120d2565b61056c565b005b610217600480360381019061021291906120d2565b61066e565b005b610233600480360381019061022e9190611fdd565b61068e565b005b61024f600480360381019061024a9190611fdd565b610710565b60405161025c919061204b565b60405180910390f35b61027f600480360381019061027a9190612125565b610722565b60405161028c9190612161565b60405180910390f35b61029d6107dc565b005b6102b960048036038101906102b49190612125565b6107f0565b005b6102c361083c565b6040516102d09190612161565b60405180910390f35b6102e1610842565b6040516102ee919061204b565b60405180910390f35b6102ff61086c565b60405161030c9190611f85565b60405180910390f35b61032f600480360381019061032a91906121a8565b6108fe565b005b610339610914565b604051610346919061204b565b60405180910390f35b6103696004803603810190610364919061231d565b61093a565b6040516103769190612161565b60405180910390f35b6103996004803603810190610394919061241a565b610a54565b005b6103b560048036038101906103b09190611fdd565b610a79565b6040516103c29190611f85565b60405180910390f35b6103e560048036038101906103e0919061231d565b610b8c565b6040516103f29190612161565b60405180910390f35b6104156004803603810190610410919061249d565b610c15565b6040516104229190611eda565b60405180910390f35b61044560048036038101906104409190612125565b610ca9565b005b6000634906490660e01b7bffffffffffffffffffffffffffffffffffffffffffffffffffffffff1916827bffffffffffffffffffffffffffffffffffffffffffffffffffffffff191614806104a157506104a082610d2f565b5b9050919050565b6060600080546104b79061250c565b80601f01602080910402602001604051908101604052809291908181526020018280546104e39061250c565b80156105305780601f1061050557610100808354040283529160200191610530565b820191906000526020600020905b81548152906001019060200180831161051357829003601f168201915b5050505050905090565b600061054582610e11565b5061054f82610e99565b9050919050565b6105688282610563610ed6565b610ede565b5050565b600073ffffffffffffffffffffffffffffffffffffffff168273ffffffffffffffffffffffffffffffffffffffff16036105de5760006040517f64a0ae920000000000000000000000000000000000000000000000000000000081526004016105d5919061204b565b60405180910390fd5b60006105f283836105ed610ed6565b610ef0565b90508373ffffffffffffffffffffffffffffffffffffffff168173ffffffffffffffffffffffffffffffffffffffff1614610668578382826040517f64283d7b00000000000000000000000000000000000000000000000000000000815260040161065f9392919061253d565b60405180910390fd5b50505050565b61068983838360405180602001604052806000815250610a54565b505050565b3373ffffffffffffffffffffffffffffffffffffffff166106ae82610710565b73ffffffffffffffffffffffffffffffffffffffff1614610704576040517f08c379a00000000000000000000000000000000000000000000000000000000081526004016106fb906125c0565b60405180910390fd5b61070d8161110a565b50565b600061071b82610e11565b9050919050565b60008073ffffffffffffffffffffffffffffffffffffffff168273ffffffffffffffffffffffffffffffffffffffff16036107955760006040517f89c62b6400000000000000000000000000000000000000000000000000000000815260040161078c919061204b565b60405180910390fd5b600360008373ffffffffffffffffffffffffffffffffffffffff1673ffffffffffffffffffffffffffffffffffffffff168152602001908152602001600020549050919050565b6107e4611190565b6107ee6000611217565b565b6107f8611190565b80600960006101000a81548173ffffffffffffffffffffffffffffffffffffffff021916908373ffffffffffffffffffffffffffffffffffffffff16021790555050565b60085481565b6000600760009054906101000a900473ffffffffffffffffffffffffffffffffffffffff16905090565b60606001805461087b9061250c565b80601f01602080910402602001604051908101604052809291908181526020018280546108a79061250c565b80156108f45780601f106108c9576101008083540402835291602001916108f4565b820191906000526020600020905b8154815290600101906020018083116108d757829003601f168201915b5050505050905090565b610910610909610ed6565b83836112dd565b5050565b600960009054906101000a900473ffffffffffffffffffffffffffffffffffffffff1681565b6000600960009054906101000a900473ffffffffffffffffffffffffffffffffffffffff1673ffffffffffffffffffffffffffffffffffffffff163373ffffffffffffffffffffffffffffffffffffffff16146109cc576040517f08c379a00000000000000000000000000000000000000000000000000000000081526004016109c39061262c565b60405180910390fd5b6000600860008154809291906109e19061267b565b9190505590506109f1848261144c565b6109fb818461146a565b808473ffffffffffffffffffffffffffffffffffffffff167fe7cd4ce7f2a465edc730269a1305e8a48bad821e8fb7e152ec413829c01a53c485604051610a429190611f85565b60405180910390a38091505092915050565b610a5f84848461056c565b610a73610a6a610ed6565b858585856114c6565b50505050565b6060610a8482610e11565b506000600660008481526020019081526020016000208054610aa59061250c565b80601f0160208091040260200160405190810160405280929190818152602001828054610ad19061250c565b8015610b1e5780601f10610af357610100808354040283529160200191610b1e565b820191906000526020600020905b815481529060010190602001808311610b0157829003601f168201915b505050505090506000610b2f611677565b90506000815103610b44578192505050610b87565b600082511115610b79578082604051602001610b619291906126ff565b60405160208183030381529060405292505050610b87565b610b828461168e565b925050505b919050565b60008060086000815480929190610ba29061267b565b919050559050610bb2848261144c565b610bbc818461146a565b808473ffffffffffffffffffffffffffffffffffffffff167fe7cd4ce7f2a465edc730269a1305e8a48bad821e8fb7e152ec413829c01a53c485604051610c039190611f85565b60405180910390a38091505092915050565b6000600560008473ffffffffffffffffffffffffffffffffffffffff1673ffffffffffffffffffffffffffffffffffffffff16815260200190815260200160002060008373ffffffffffffffffffffffffffffffffffffffff1673ffffffffffffffffffffffffffffffffffffffff16815260200190815260200160002060009054906101000a900460ff16905092915050565b610cb1611190565b600073ffffffffffffffffffffffffffffffffffffffff168173ffffffffffffffffffffffffffffffffffffffff1603610d235760006040517f1e4fbdf7000000000000000000000000000000000000000000000000000000008152600401610d1a919061204b565b60405180910390fd5b610d2c81611217565b50565b60007f80ac58cd000000000000000000000000000000000000000000000000000000007bffffffffffffffffffffffffffffffffffffffffffffffffffffffff1916827bffffffffffffffffffffffffffffffffffffffffffffffffffffffff19161480610dfa57507f5b5e139f000000000000000000000000000000000000000000000000000000007bffffffffffffffffffffffffffffffffffffffffffffffffffffffff1916827bffffffffffffffffffffffffffffffffffffffffffffffffffffffff1916145b80610e0a5750610e09826116f7565b5b9050919050565b600080610e1d83611761565b9050600073ffffffffffffffffffffffffffffffffffffffff168173ffffffffffffffffffffffffffffffffffffffff1603610e9057826040517f7e273289000000000000000000000000000000000000000000000000000000008152600401610e879190612161565b60405180910390fd5b80915050919050565b60006004600083815260200190815260200160002060009054906101000a900473ffffffffffffffffffffffffffffffffffffffff169050919050565b600033905090565b610eeb838383600161179e565b505050565b600080610efc84611761565b9050600073ffffffffffffffffffffffffffffffffffffffff168373ffffffffffffffffffffffffffffffffffffffff1614610f3e57610f3d818486611963565b5b600073ffffffffffffffffffffffffffffffffffffffff168173ffffffffffffffffffffffffffffffffffffffff1614610fcf57610f8060008560008061179e565b6001600360008373ffffffffffffffffffffffffffffffffffffffff1673ffffffffffffffffffffffffffffffffffffffff168152602001908152602001600020600082825403925050819055505b600073ffffffffffffffffffffffffffffffffffffffff168573ffffffffffffffffffffffffffffffffffffffff1614611052576001600360008773ffffffffffffffffffffffffffffffffffffffff1673ffffffffffffffffffffffffffffffffffffffff168152602001908152602001600020600082825401925050819055505b846002600086815260200190815260200160002060006101000a81548173ffffffffffffffffffffffffffffffffffffffff021916908373ffffffffffffffffffffffffffffffffffffffff160217905550838573ffffffffffffffffffffffffffffffffffffffff168273ffffffffffffffffffffffffffffffffffffffff167fddf252ad1be2c89b69c2b068fc378daa952ba7f163c4a11628f55a4df523b3ef60405160405180910390a4809150509392505050565b60006111196000836000610ef0565b9050600073ffffffffffffffffffffffffffffffffffffffff168173ffffffffffffffffffffffffffffffffffffffff160361118c57816040517f7e2732890000000000000000000000000000000000000000000000000000000081526004016111839190612161565b60405180910390fd5b5050565b611198610ed6565b73ffffffffffffffffffffffffffffffffffffffff166111b6610842565b73ffffffffffffffffffffffffffffffffffffffff1614611215576111d9610ed6565b6040517f118cdaa700000000000000000000000000000000000000000000000000000000815260040161120c919061204b565b60405180910390fd5b565b6000600760009054906101000a900473ffffffffffffffffffffffffffffffffffffffff16905081600760006101000a81548173ffffffffffffffffffffffffffffffffffffffff021916908373ffffffffffffffffffffffffffffffffffffffff1602179055508173ffffffffffffffffffffffffffffffffffffffff168173ffffffffffffffffffffffffffffffffffffffff167f8be0079c531659141344cd1fd0a4f28419497f9722a3daafe3b4186f6b6457e060405160405180910390a35050565b600073ffffffffffffffffffffffffffffffffffffffff168273ffffffffffffffffffffffffffffffffffffffff160361134e57816040517f5b08ba18000000000000000000000000000000000000000000000000000000008152600401611345919061204b565b60405180910390fd5b80600560008573ffffffffffffffffffffffffffffffffffffffff1673ffffffffffffffffffffffffffffffffffffffff16815260200190815260200160002060008473ffffffffffffffffffffffffffffffffffffffff1673ffffffffffffffffffffffffffffffffffffffff16815260200190815260200160002060006101000a81548160ff0219169083151502179055508173ffffffffffffffffffffffffffffffffffffffff168373ffffffffffffffffffffffffffffffffffffffff167f17307eab39ab6107e8899845ad3d59bd9653f200f220920489ca2b5937696c318360405161143f9190611eda565b60405180910390a3505050565b611466828260405180602001604052806000815250611a27565b5050565b8060066000848152602001908152602001600020908161148a91906128cf565b507ff8e1a15aba9398e019f0b49df1a4fde98ee17ae345cb5f6b5e2c27f5033e8ce7826040516114ba9190612161565b60405180910390a15050565b60008373ffffffffffffffffffffffffffffffffffffffff163b1115611670578273ffffffffffffffffffffffffffffffffffffffff1663150b7a02868685856040518563ffffffff1660e01b815260040161152594939291906129f6565b6020604051808303816000875af192505050801561156157506040513d601f19601f8201168201806040525081019061155e9190612a57565b60015b6115e5573d8060008114611591576040519150601f19603f3d011682016040523d82523d6000602084013e611596565b606091505b5060008151036115dd57836040517f64a0ae920000000000000000000000000000000000000000000000000000000081526004016115d4919061204b565b60405180910390fd5b805160208201fd5b63150b7a0260e01b7bffffffffffffffffffffffffffffffffffffffffffffffffffffffff1916817bffffffffffffffffffffffffffffffffffffffffffffffffffffffff19161461166e57836040517f64a0ae92000000000000000000000000000000000000000000000000000000008152600401611665919061204b565b60405180910390fd5b505b5050505050565b606060405180602001604052806000815250905090565b606061169982610e11565b5060006116a4611677565b905060008151116116c457604051806020016040528060008152506116ef565b806116ce84611a4b565b6040516020016116df9291906126ff565b6040516020818303038152906040525b915050919050565b60007f01ffc9a7000000000000000000000000000000000000000000000000000000007bffffffffffffffffffffffffffffffffffffffffffffffffffffffff1916827bffffffffffffffffffffffffffffffffffffffffffffffffffffffff1916149050919050565b60006002600083815260200190815260200160002060009054906101000a900473ffffffffffffffffffffffffffffffffffffffff169050919050565b80806117d75750600073ffffffffffffffffffffffffffffffffffffffff168273ffffffffffffffffffffffffffffffffffffffff1614155b1561190b5760006117e784610e11565b9050600073ffffffffffffffffffffffffffffffffffffffff168373ffffffffffffffffffffffffffffffffffffffff161415801561185257508273ffffffffffffffffffffffffffffffffffffffff168173ffffffffffffffffffffffffffffffffffffffff1614155b801561186557506118638184610c15565b155b156118a757826040517fa9fbf51f00000000000000000000000000000000000000000000000000000000815260040161189e919061204b565b60405180910390fd5b811561190957838573ffffffffffffffffffffffffffffffffffffffff168273ffffffffffffffffffffffffffffffffffffffff167f8c5be1e5ebec7d5bd14f71427d1e84f3dd0314c0f7b2291e5b200ac8c7c3b92560405160405180910390a45b505b836004600085815260200190815260200160002060006101000a81548173ffffffffffffffffffffffffffffffffffffffff021916908373ffffffffffffffffffffffffffffffffffffffff16021790555050505050565b61196e838383611b19565b611a2257600073ffffffffffffffffffffffffffffffffffffffff168373ffffffffffffffffffffffffffffffffffffffff16036119e357806040517f7e2732890000000000000000000000000000000000000000000000000000000081526004016119da9190612161565b60405180910390fd5b81816040517f177e802f000000000000000000000000000000000000000000000000000000008152600401611a19929190612a84565b60405180910390fd5b505050565b611a318383611bda565b611a46611a3c610ed6565b60008585856114c6565b505050565b606060006001611a5a84611cd3565b01905060008167ffffffffffffffff811115611a7957611a786121f2565b5b6040519080825280601f01601f191660200182016040528015611aab5781602001600182028036833780820191505090505b509050600082602083010190505b600115611b0e578080600190039150507f3031323334353637383961626364656600000000000000000000000000000000600a86061a8153600a8581611b0257611b01612aad565b5b04945060008503611ab9575b819350505050919050565b60008073ffffffffffffffffffffffffffffffffffffffff168373ffffffffffffffffffffffffffffffffffffffff1614158015611bd157508273ffffffffffffffffffffffffffffffffffffffff168473ffffffffffffffffffffffffffffffffffffffff161480611b925750611b918484610c15565b5b80611bd057508273ffffffffffffffffffffffffffffffffffffffff16611bb883610e99565b73ffffffffffffffffffffffffffffffffffffffff16145b5b90509392505050565b600073ffffffffffffffffffffffffffffffffffffffff168273ffffffffffffffffffffffffffffffffffffffff1603611c4c5760006040517f64a0ae92000000000000000000000000000000000000000000000000000000008152600401611c43919061204b565b60405180910390fd5b6000611c5a83836000610ef0565b9050600073ffffffffffffffffffffffffffffffffffffffff168173ffffffffffffffffffffffffffffffffffffffff1614611cce5760006040517f73c6ac6e000000000000000000000000000000000000000000000000000000008152600401611cc5919061204b565b60405180910390fd5b505050565b600080600090507a184f03e93ff9f4daa797ed6e38ed64bf6a1f0100000000000000008310611d31577a184f03e93ff9f4daa797ed6e38ed64bf6a1f0100000000000000008381611d2757611d26612aad565b5b0492506040810190505b6d04ee2d6d415b85acef81000000008310611d6e576d04ee2d6d415b85acef81000000008381611d6457611d63612aad565b5b0492506020810190505b662386f26fc100008310611d9d57662386f26fc100008381611d9357611d92612aad565b5b0492506010810190505b6305f5e1008310611dc6576305f5e1008381611dbc57611dbb612aad565b5b0492506008810190505b6127108310611deb576127108381611de157611de0612aad565b5b0492506004810190505b60648310611e0e5760648381611e0457611e03612aad565b5b0492506002810190505b600a8310611e1d576001810190505b80915050919050565b6000604051905090565b600080fd5b600080fd5b60007fffffffff0000000000000000000000000000000000000000000000000000000082169050919050565b611e6f81611e3a565b8114611e7a57600080fd5b50565b600081359050611e8c81611e66565b92915050565b600060208284031215611ea857611ea7611e30565b5b6000611eb684828501611e7d565b91505092915050565b60008115159050919050565b611ed481611ebf565b82525050565b6000602082019050611eef6000830184611ecb565b92915050565b600081519050919050565b600082825260208201905092915050565b60005b83811015611f2f578082015181840152602081019050611f14565b60008484015250505050565b6000601f19601f8301169050919050565b6000611f5782611ef5565b611f618185611f00565b9350611f71818560208601611f11565b611f7a81611f3b565b840191505092915050565b60006020820190508181036000830152611f9f8184611f4c565b905092915050565b6000819050919050565b611fba81611fa7565b8114611fc557600080fd5b50565b600081359050611fd781611fb1565b92915050565b600060208284031215611ff357611ff2611e30565b5b600061200184828501611fc8565b91505092915050565b600073ffffffffffffffffffffffffffffffffffffffff82169050919050565b60006120358261200a565b9050919050565b6120458161202a565b82525050565b6000602082019050612060600083018461203c565b92915050565b61206f8161202a565b811461207a57600080fd5b50565b60008135905061208c81612066565b92915050565b600080604083850312156120a9576120a8611e30565b5b60006120b78582860161207d565b92505060206120c885828601611fc8565b9150509250929050565b6000806000606084860312156120eb576120ea611e30565b5b60006120f98682870161207d565b935050602061210a8682870161207d565b925050604061211b86828701611fc8565b9150509250925092565b60006020828403121561213b5761213a611e30565b5b60006121498482850161207d565b91505092915050565b61215b81611fa7565b82525050565b60006020820190506121766000830184612152565b92915050565b61218581611ebf565b811461219057600080fd5b50565b6000813590506121a28161217c565b92915050565b600080604083850312156121bf576121be611e30565b5b60006121cd8582860161207d565b92505060206121de85828601612193565b9150509250929050565b600080fd5b600080fd5b7f4e487b7100000000000000000000000000000000000000000000000000000000600052604160045260246000fd5b61222a82611f3b565b810181811067ffffffffffffffff82111715612249576122486121f2565b5b80604052505050565b600061225c611e26565b90506122688282612221565b919050565b600067ffffffffffffffff821115612288576122876121f2565b5b61229182611f3b565b9050602081019050919050565b82818337600083830152505050565b60006122c06122bb8461226d565b612252565b9050828152602081018484840111156122dc576122db6121ed565b5b6122e784828561229e565b509392505050565b600082601f830112612304576123036121e8565b5b81356123148482602086016122ad565b91505092915050565b6000806040838503121561233457612333611e30565b5b60006123428582860161207d565b925050602083013567ffffffffffffffff81111561236357612362611e35565b5b61236f858286016122ef565b9150509250929050565b600067ffffffffffffffff821115612394576123936121f2565b5b61239d82611f3b565b9050602081019050919050565b60006123bd6123b884612379565b612252565b9050828152602081018484840111156123d9576123d86121ed565b5b6123e484828561229e565b509392505050565b600082601f830112612401576124006121e8565b5b81356124118482602086016123aa565b91505092915050565b6000806000806080858703121561243457612433611e30565b5b60006124428782880161207d565b94505060206124538782880161207d565b935050604061246487828801611fc8565b925050606085013567ffffffffffffffff81111561248557612484611e35565b5b612491878288016123ec565b91505092959194509250565b600080604083850312156124b4576124b3611e30565b5b60006124c28582860161207d565b92505060206124d38582860161207d565b9150509250929050565b7f4e487b7100000000000000000000000000000000000000000000000000000000600052602260045260246000fd5b6000600282049050600182168061252457607f821691505b602082108103612537576125366124dd565b5b50919050565b6000606082019050612552600083018661203c565b61255f6020830185612152565b61256c604083018461203c565b949350505050565b7f4e6f74206f776e65720000000000000000000000000000000000000000000000600082015250565b60006125aa600983611f00565b91506125b582612574565b602082019050919050565b600060208201905081810360008301526125d98161259d565b9050919050565b7f4e6f74206d61726b6574706c6163650000000000000000000000000000000000600082015250565b6000612616600f83611f00565b9150612621826125e0565b602082019050919050565b6000602082019050818103600083015261264581612609565b9050919050565b7f4e487b7100000000000000000000000000000000000000000000000000000000600052601160045260246000fd5b600061268682611fa7565b91507fffffffffffffffffffffffffffffffffffffffffffffffffffffffffffffffff82036126b8576126b761264c565b5b600182019050919050565b600081905092915050565b60006126d982611ef5565b6126e381856126c3565b93506126f3818560208601611f11565b80840191505092915050565b600061270b82856126ce565b915061271782846126ce565b91508190509392505050565b60008190508160005260206000209050919050565b60006020601f8301049050919050565b600082821b905092915050565b6000600883026127857fffffffffffffffffffffffffffffffffffffffffffffffffffffffffffffffff82612748565b61278f8683612748565b95508019841693508086168417925050509392505050565b6000819050919050565b60006127cc6127c76127c284611fa7565b6127a7565b611fa7565b9050919050565b6000819050919050565b6127e6836127b1565b6127fa6127f2826127d3565b848454612755565b825550505050565b600090565b61280f612802565b61281a8184846127dd565b505050565b5b8181101561283e57612833600082612807565b600181019050612820565b5050565b601f8211156128835761285481612723565b61285d84612738565b8101602085101561286c578190505b61288061287885612738565b83018261281f565b50505b505050565b600082821c905092915050565b60006128a660001984600802612888565b1980831691505092915050565b60006128bf8383612895565b9150826002028217905092915050565b6128d882611ef5565b67ffffffffffffffff8111156128f1576128f06121f2565b5b6128fb825461250c565b612906828285612842565b600060209050601f8311600181146129395760008415612927578287015190505b61293185826128b3565b865550612999565b601f19841661294786612723565b60005b8281101561296f5784890151825560018201915060208501945060208101905061294a565b8683101561298c5784890151612988601f891682612895565b8355505b6001600288020188555050505b505050505050565b600081519050919050565b600082825260208201905092915050565b60006129c8826129a1565b6129d281856129ac565b93506129e2818560208601611f11565b6129eb81611f3b565b840191505092915050565b6000608082019050612a0b600083018761203c565b612a18602083018661203c565b612a256040830185612152565b8181036060830152612a3781846129bd565b905095945050505050565b600081519050612a5181611e66565b92915050565b600060208284031215612a6d57612a6c611e30565b5b6000612a7b84828501612a42565b91505092915050565b6000604082019050612a99600083018561203c565b612aa66020830184612152565b9392505050565b7f4e487b7100000000000000000000000000000000000000000000000000000000600052601260045260246000fdfea2646970667358221220fb1a3379e0e336e49d4a33a48337f2ad77e7c1554cc8d820a9c4f148f7310a6864736f6c634300081c0033",
  "linkReferences": {},
  "deployedLinkReferences": {}
}