{
  "_format": "hh-sol-artifact-1",
  "contractName": "NFT",
  "sourceName": "contracts/Token.sol",
  "abi": [
    {
      "inputs": [
        {
          "internalType": "string",
          "name": "_name",
          "type": "string"
        },
        {
          "internalType": "string",
          "name": "_symbol",
          "type": "string"
        },
        {
          "internalType": "string",
          "name": "_description",
          "type": "string"
        },
        {
          "internalType": "string",
          "name": "_creatorname",
          "type": "string"
        },
        {
          "internalType": "string",
          "name": "_cover",
          "type": "string"
        },
        {
          "internalType": "string",
          "name": "_profile",
          "type": "string"
        },
        {
          "internalType": "string",
          "name": "_avatar",
          "type": "string"
        },
        {
          "internalType": "address",
          "name": "_creator",
          "type": "address"
        }
      ],
      "stateMutability": "nonpayable",
      "type": "constructor"
    },
    {
      "inputs": [
        {
          "internalType": "address",
          "name": "sender",
          "type": "address"
        },
        {
          "internalType": "uint256",
          "name": "tokenId",
          "type": "uint256"
        },
        {
          "internalType": "address",
          "name": "owner",
          "type": "address"
        }
      ],
      "name": "ERC721IncorrectOwner",
      "type": "error"
    },
    {
      "inputs": [
        {
          "internalType": "address",
          "name": "operator",
          "type": "address"
        },
        {
          "internalType": "uint256",
          "name": "tokenId",
          "type": "uint256"
        }
      ],
      "name": "ERC721InsufficientApproval",
      "type": "error"
    },
    {
      "inputs": [
        {
          "internalType": "address",
          "name": "approver",
          "type": "address"
        }
      ],
      "name": "ERC721InvalidApprover",
      "type": "error"
    },
    {
      "inputs": [
        {
          "internalType": "address",
          "name": "operator",
          "type": "address"
        }
      ],
      "name": "ERC721InvalidOperator",
      "type": "error"
    },
    {
      "inputs": [
        {
          "internalType": "address",
          "name": "owner",
          "type": "address"
        }
      ],
      "name": "ERC721InvalidOwner",
      "type": "error"
    },
    {
      "inputs": [
        {
          "internalType": "address",
          "name": "receiver",
          "type": "address"
        }
      ],
      "name": "ERC721InvalidReceiver",
      "type": "error"
    },
    {
      "inputs": [
        {
          "internalType": "address",
          "name": "sender",
          "type": "address"
        }
      ],
      "name": "ERC721InvalidSender",
      "type": "error"
    },
    {
      "inputs": [
        {
          "internalType": "uint256",
          "name": "tokenId",
          "type": "uint256"
        }
      ],
      "name": "ERC721NonexistentToken",
      "type": "error"
    },
    {
      "inputs": [
        {
          "internalType": "address",
          "name": "owner",
          "type": "address"
        }
      ],
      "name": "OwnableInvalidOwner",
      "type": "error"
    },
    {
      "inputs": [
        {
          "internalType": "address",
          "name": "account",
          "type": "address"
        }
      ],
      "name": "OwnableUnauthorizedAccount",
      "type": "error"
    },
    {
      "anonymous": false,
      "inputs": [
        {
          "indexed": true,
          "internalType": "address",
          "name": "owner",
          "type": "address"
        },
        {
          "indexed": true,
          "internalType": "address",
          "name": "approved",
          "type": "address"
        },
        {
          "indexed": true,
          "internalType": "uint256",
          "name": "tokenId",
          "type": "uint256"
        }
      ],
      "name": "Approval",
      "type": "event"
    },
    {
      "anonymous": false,
      "inputs": [
        {
          "indexed": true,
          "internalType": "address",
          "name": "owner",
          "type": "address"
        },
        {
          "indexed": true,
          "internalType": "address",
          "name": "operator",
          "type": "address"
        },
        {
          "indexed": false,
          "internalType": "bool",
          "name": "approved",
          "type": "bool"
        }
      ],
      "name": "ApprovalForAll",
      "type": "event"
    },
    {
      "anonymous": false,
      "inputs": [
        {
          "indexed": false,
          "internalType": "uint256",
          "name": "_fromTokenId",
          "type": "uint256"
        },
        {
          "indexed": false,
          "internalType": "uint256",
          "name": "_toTokenId",
          "type": "uint256"
        }
      ],
      "name": "BatchMetadataUpdate",
      "type": "event"
    },
    {
      "anonymous": false,
      "inputs": [
        {
          "indexed": false,
          "internalType": "uint256",
          "name": "_tokenId",
          "type": "uint256"
        }
      ],
      "name": "MetadataUpdate",
      "type": "event"
    },
    {
      "anonymous": false,
      "inputs": [
        {
          "indexed": true,
          "internalType": "address",
          "name": "to",
          "type": "address"
        },
        {
          "indexed": true,
          "internalType": "uint256",
          "name": "tokenId",
          "type": "uint256"
        },
        {
          "indexed": false,
          "internalType": "string",
          "name": "tokenURI",
          "type": "string"
        }
      ],
      "name": "Minted",
      "type": "event"
    },
    {
      "anonymous": false,
      "inputs": [
        {
          "indexed": true,
          "internalType": "address",
          "name": "previousOwner",
          "type": "address"
        },
        {
          "indexed": true,
          "internalType": "address",
          "name": "newOwner",
          "type": "address"
        }
      ],
      "name": "OwnershipTransferred",
      "type": "event"
    },
    {
      "anonymous": false,
      "inputs": [
        {
          "indexed": true,
          "internalType": "address",
          "name": "from",
          "type": "address"
        },
        {
          "indexed": true,
          "internalType": "address",
          "name": "to",
          "type": "address"
        },
        {
          "indexed": true,
          "internalType": "uint256",
          "name": "tokenId",
          "type": "uint256"
        }
      ],
      "name": "Transfer",
      "type": "event"
    },
    {
      "inputs": [
        {
          "internalType": "address",
          "name": "to",
          "type": "address"
        },
        {
          "internalType": "uint256",
          "name": "tokenId",
          "type": "uint256"
        }
      ],
      "name": "approve",
      "outputs": [],
      "stateMutability": "nonpayable",
      "type": "function"
    },
    {
      "inputs": [
        {
          "internalType": "address",
          "name": "owner",
          "type": "address"
        }
      ],
      "name": "balanceOf",
      "outputs": [
        {
          "internalType": "uint256",
          "name": "",
          "type": "uint256"
        }
      ],
      "stateMutability": "view",
      "type": "function"
    },
    {
      "inputs": [
        {
          "internalType": "uint256",
          "name": "tokenId",
          "type": "uint256"
        }
      ],
      "name": "burn",
      "outputs": [],
      "stateMutability": "nonpayable",
      "type": "function"
    },
    {
      "inputs": [],
      "name": "collectionCover",
      "outputs": [
        {
          "internalType": "string",
          "name": "",
          "type": "string"
        }
      ],
      "stateMutability": "view",
      "type": "function"
    },
    {
      "inputs": [],
      "name": "collectionDescription",
      "outputs": [
        {
          "internalType": "string",
          "name": "",
          "type": "string"
        }
      ],
      "stateMutability": "view",
      "type": "function"
    },
    {
      "inputs": [],
      "name": "collectionName",
      "outputs": [
        {
          "internalType": "string",
          "name": "",
          "type": "string"
        }
      ],
      "stateMutability": "view",
      "type": "function"
    },
    {
      "inputs": [],
      "name": "collectionSymbol",
      "outputs": [
        {
          "internalType": "string",
          "name": "",
          "type": "string"
        }
      ],
      "stateMutability": "view",
      "type": "function"
    },
    {
      "inputs": [],
      "name": "creatorAvatar",
      "outputs": [
        {
          "internalType": "string",
          "name": "",
          "type": "string"
        }
      ],
      "stateMutability": "view",
      "type": "function"
    },
    {
      "inputs": [],
      "name": "creatorName",
      "outputs": [
        {
          "internalType": "string",
          "name": "",
          "type": "string"
        }
      ],
      "stateMutability": "view",
      "type": "function"
    },
    {
      "inputs": [
        {
          "internalType": "uint256",
          "name": "tokenId",
          "type": "uint256"
        }
      ],
      "name": "getApproved",
      "outputs": [
        {
          "internalType": "address",
          "name": "",
          "type": "address"
        }
      ],
      "stateMutability": "view",
      "type": "function"
    },
    {
      "inputs": [
        {
          "internalType": "address",
          "name": "owner",
          "type": "address"
        },
        {
          "internalType": "address",
          "name": "operator",
          "type": "address"
        }
      ],
      "name": "isApprovedForAll",
      "outputs": [
        {
          "internalType": "bool",
          "name": "",
          "type": "bool"
        }
      ],
      "stateMutability": "view",
      "type": "function"
    },
    {
      "inputs": [],
      "name": "marketplace",
      "outputs": [
        {
          "internalType": "address",
          "name": "",
          "type": "address"
        }
      ],
      "stateMutability": "view",
      "type": "function"
    },
    {
      "inputs": [
        {
          "internalType": "address",
          "name": "to",
          "type": "address"
        },
        {
          "internalType": "string",
          "name": "uri",
          "type": "string"
        }
      ],
      "name": "mint",
      "outputs": [
        {
          "internalType": "uint256",
          "name": "",
          "type": "uint256"
        }
      ],
      "stateMutability": "nonpayable",
      "type": "function"
    },
    {
      "inputs": [
        {
          "internalType": "address",
          "name": "to",
          "type": "address"
        },
        {
          "internalType": "string",
          "name": "uri",
          "type": "string"
        }
      ],
      "name": "mintFromMarketplace",
      "outputs": [
        {
          "internalType": "uint256",
          "name": "",
          "type": "uint256"
        }
      ],
      "stateMutability": "nonpayable",
      "type": "function"
    },
    {
      "inputs": [],
      "name": "name",
      "outputs": [
        {
          "internalType": "string",
          "name": "",
          "type": "string"
        }
      ],
      "stateMutability": "view",
      "type": "function"
    },
    {
      "inputs": [],
      "name": "nextTokenId",
      "outputs": [
        {
          "internalType": "uint256",
          "name": "",
          "type": "uint256"
        }
      ],
      "stateMutability": "view",
      "type": "function"
    },
    {
      "inputs": [],
      "name": "owner",
      "outputs": [
        {
          "internalType": "address",
          "name": "",
          "type": "address"
        }
      ],
      "stateMutability": "view",
      "type": "function"
    },
    {
      "inputs": [
        {
          "internalType": "uint256",
          "name": "tokenId",
          "type": "uint256"
        }
      ],
      "name": "ownerOf",
      "outputs": [
        {
          "internalType": "address",
          "name": "",
          "type": "address"
        }
      ],
      "stateMutability": "view",
      "type": "function"
    },
    {
      "inputs": [],
      "name": "profileImage",
      "outputs": [
        {
          "internalType": "string",
          "name": "",
          "type": "string"
        }
      ],
      "stateMutability": "view",
      "type": "function"
    },
    {
      "inputs": [],
      "name": "renounceOwnership",
      "outputs": [],
      "stateMutability": "nonpayable",
      "type": "function"
    },
    {
      "inputs": [
        {
          "internalType": "address",
          "name": "from",
          "type": "address"
        },
        {
          "internalType": "address",
          "name": "to",
          "type": "address"
        },
        {
          "internalType": "uint256",
          "name": "tokenId",
          "type": "uint256"
        }
      ],
      "name": "safeTransferFrom",
      "outputs": [],
      "stateMutability": "nonpayable",
      "type": "function"
    },
    {
      "inputs": [
        {
          "internalType": "address",
          "name": "from",
          "type": "address"
        },
        {
          "internalType": "address",
          "name": "to",
          "type": "address"
        },
        {
          "internalType": "uint256",
          "name": "tokenId",
          "type": "uint256"
        },
        {
          "internalType": "bytes",
          "name": "data",
          "type": "bytes"
        }
      ],
      "name": "safeTransferFrom",
      "outputs": [],
      "stateMutability": "nonpayable",
      "type": "function"
    },
    {
      "inputs": [
        {
          "internalType": "address",
          "name": "operator",
          "type": "address"
        },
        {
          "internalType": "bool",
          "name": "approved",
          "type": "bool"
        }
      ],
      "name": "setApprovalForAll",
      "outputs": [],
      "stateMutability": "nonpayable",
      "type": "function"
    },
    {
      "inputs": [
        {
          "internalType": "address",
          "name": "_marketplace",
          "type": "address"
        }
      ],
      "name": "setMarketplace",
      "outputs": [],
      "stateMutability": "nonpayable",
      "type": "function"
    },
    {
      "inputs": [
        {
          "internalType": "bytes4",
          "name": "interfaceId",
          "type": "bytes4"
        }
      ],
      "name": "supportsInterface",
      "outputs": [
        {
          "internalType": "bool",
          "name": "",
          "type": "bool"
        }
      ],
      "stateMutability": "view",
      "type": "function"
    },
    {
      "inputs": [],
      "name": "symbol",
      "outputs": [
        {
          "internalType": "string",
          "name": "",
          "type": "string"
        }
      ],
      "stateMutability": "view",
      "type": "function"
    },
    {
      "inputs": [
        {
          "internalType": "uint256",
          "name": "tokenId",
          "type": "uint256"
        }
      ],
      "name": "tokenURI",
      "outputs": [
        {
          "internalType": "string",
          "name": "",
          "type": "string"
        }
      ],
      "stateMutability": "view",
      "type": "function"
    },
    {
      "inputs": [
        {
          "internalType": "address",
          "name": "from",
          "type": "address"
        },
        {
          "internalType": "address",
          "name": "to",
          "type": "address"
        },
        {
          "internalType": "uint256",
          "name": "tokenId",
          "type": "uint256"
        }
      ],
      "name": "transferFrom",
      "outputs": [],
      "stateMutability": "nonpayable",
      "type": "function"
    },
    {
      "inputs": [
        {
          "internalType": "address",
          "name": "newOwner",
          "type": "address"
        }
      ],
      "name": "transferOwnership",
      "outputs": [],
      "stateMutability": "nonpayable",
      "type": "function"
    }
  ],
  "bytecode": "0x608060405234801561001057600080fd5b506040516138e83803806138e8833981810160405281019061003291906103ef565b8088888160009081610044919061078a565b508060019081610054919061078a565b505050600073ffffffffffffffffffffffffffffffffffffffff168173ffffffffffffffffffffffffffffffffffffffff16036100c95760006040517f1e4fbdf70000000000000000000000000000000000000000000000000000000081526004016100c0919061086b565b60405180910390fd5b6100d88161015660201b60201c565b5087600a90816100e8919061078a565b5086600b90816100f8919061078a565b5085600d9081610108919061078a565b5084600f9081610118919061078a565b5083600c9081610128919061078a565b5082600e9081610138919061078a565b508160109081610148919061078a565b505050505050505050610886565b6000600760009054906101000a900473ffffffffffffffffffffffffffffffffffffffff16905081600760006101000a81548173ffffffffffffffffffffffffffffffffffffffff021916908373ffffffffffffffffffffffffffffffffffffffff1602179055508173ffffffffffffffffffffffffffffffffffffffff168173ffffffffffffffffffffffffffffffffffffffff167f8be0079c531659141344cd1fd0a4f28419497f9722a3daafe3b4186f6b6457e060405160405180910390a35050565b6000604051905090565b600080fd5b600080fd5b600080fd5b600080fd5b6000601f19601f8301169050919050565b7f4e487b7100000000000000000000000000000000000000000000000000000000600052604160045260246000fd5b6102838261023a565b810181811067ffffffffffffffff821117156102a2576102a161024b565b5b80604052505050565b60006102b561021c565b90506102c1828261027a565b919050565b600067ffffffffffffffff8211156102e1576102e061024b565b5b6102ea8261023a565b9050602081019050919050565b60005b838110156103155780820151818401526020810190506102fa565b60008484015250505050565b600061033461032f846102c6565b6102ab565b9050828152602081018484840111156103505761034f610235565b5b61035b8482856102f7565b509392505050565b600082601f83011261037857610377610230565b5b8151610388848260208601610321565b91505092915050565b600073ffffffffffffffffffffffffffffffffffffffff82169050919050565b60006103bc82610391565b9050919050565b6103cc816103b1565b81146103d757600080fd5b50565b6000815190506103e9816103c3565b92915050565b600080600080600080600080610100898b0312156104105761040f610226565b5b600089015167ffffffffffffffff81111561042e5761042d61022b565b5b61043a8b828c01610363565b985050602089015167ffffffffffffffff81111561045b5761045a61022b565b5b6104678b828c01610363565b975050604089015167ffffffffffffffff8111156104885761048761022b565b5b6104948b828c01610363565b965050606089015167ffffffffffffffff8111156104b5576104b461022b565b5b6104c18b828c01610363565b955050608089015167ffffffffffffffff8111156104e2576104e161022b565b5b6104ee8b828c01610363565b94505060a089015167ffffffffffffffff81111561050f5761050e61022b565b5b61051b8b828c01610363565b93505060c089015167ffffffffffffffff81111561053c5761053b61022b565b5b6105488b828c01610363565b92505060e06105598b828c016103da565b9150509295985092959890939650565b600081519050919050565b7f4e487b7100000000000000000000000000000000000000000000000000000000600052602260045260246000fd5b600060028204905060018216806105bb57607f821691505b6020821081036105ce576105cd610574565b5b50919050565b60008190508160005260206000209050919050565b60006020601f8301049050919050565b600082821b905092915050565b6000600883026106367fffffffffffffffffffffffffffffffffffffffffffffffffffffffffffffffff826105f9565b61064086836105f9565b95508019841693508086168417925050509392505050565b6000819050919050565b6000819050919050565b600061068761068261067d84610658565b610662565b610658565b9050919050565b6000819050919050565b6106a18361066c565b6106b56106ad8261068e565b848454610606565b825550505050565b600090565b6106ca6106bd565b6106d5818484610698565b505050565b5b818110156106f9576106ee6000826106c2565b6001810190506106db565b5050565b601f82111561073e5761070f816105d4565b610718846105e9565b81016020851015610727578190505b61073b610733856105e9565b8301826106da565b50505b505050565b600082821c905092915050565b600061076160001984600802610743565b1980831691505092915050565b600061077a8383610750565b9150826002028217905092915050565b61079382610569565b67ffffffffffffffff8111156107ac576107ab61024b565b5b6107b682546105a3565b6107c18282856106fd565b600060209050601f8311600181146107f457600084156107e2578287015190505b6107ec858261076e565b865550610854565b601f198416610802866105d4565b60005b8281101561082a57848901518255600182019150602085019450602081019050610805565b868310156108475784890151610843601f891682610750565b8355505b6001600288020188555050505b505050505050565b610865816103b1565b82525050565b6000602082019050610880600083018461085c565b92915050565b613053806108956000396000f3fe608060405234801561001057600080fd5b50600436106101cf5760003560e01c806385edc73e11610104578063b88d4fde116100a2578063e2c6875c11610071578063e2c6875c1461051e578063e5326ab11461053c578063e985e9c51461055a578063f2fde38b1461058a576101cf565b8063b88d4fde14610484578063c155f3b1146104a0578063c87b56dd146104be578063d0def521146104ee576101cf565b806395d89b41116100de57806395d89b41146103fc578063a22cb4651461041a578063abc8c7af14610436578063b04eec5914610454576101cf565b806385edc73e146103a257806386268740146103c05780638da5cb5b146103de576101cf565b806342842e0e1161017157806370a082311161014b57806370a082311461032e578063715018a61461035e57806373ad6c2d1461036857806375794a3c14610384576101cf565b806342842e0e146102c657806342966c68146102e25780636352211e146102fe576101cf565b8063095ea7b3116101ad578063095ea7b3146102525780631f6f90bd1461026e57806323b872dd1461028c5780632f39352a146102a8576101cf565b806301ffc9a7146101d457806306fdde0314610204578063081812fc14610222575b600080fd5b6101ee60048036038101906101e991906123d3565b6105a6565b6040516101fb919061241b565b60405180910390f35b61020c610607565b60405161021991906124c6565b60405180910390f35b61023c6004803603810190610237919061251e565b610699565b604051610249919061258c565b60405180910390f35b61026c600480360381019061026791906125d3565b6106b5565b005b6102766106cb565b60405161028391906124c6565b60405180910390f35b6102a660048036038101906102a19190612613565b610759565b005b6102b061085b565b6040516102bd91906124c6565b60405180910390f35b6102e060048036038101906102db9190612613565b6108e9565b005b6102fc60048036038101906102f7919061251e565b610909565b005b6103186004803603810190610313919061251e565b61098b565b604051610325919061258c565b60405180910390f35b61034860048036038101906103439190612666565b61099d565b60405161035591906126a2565b60405180910390f35b610366610a57565b005b610382600480360381019061037d9190612666565b610a6b565b005b61038c610aaf565b60405161039991906126a2565b60405180910390f35b6103aa610ab5565b6040516103b791906124c6565b60405180910390f35b6103c8610b43565b6040516103d591906124c6565b60405180910390f35b6103e6610bd1565b6040516103f3919061258c565b60405180910390f35b610404610bfb565b60405161041191906124c6565b60405180910390f35b610434600480360381019061042f91906126e9565b610c8d565b005b61043e610ca3565b60405161044b919061258c565b60405180910390f35b61046e6004803603810190610469919061285e565b610cc9565b60405161047b91906126a2565b60405180910390f35b61049e6004803603810190610499919061295b565b610de7565b005b6104a8610e0c565b6040516104b591906124c6565b60405180910390f35b6104d860048036038101906104d3919061251e565b610e9a565b6040516104e591906124c6565b60405180910390f35b6105086004803603810190610503919061285e565b610fad565b60405161051591906126a2565b60405180910390f35b61052661103a565b60405161053391906124c6565b60405180910390f35b6105446110c8565b60405161055191906124c6565b60405180910390f35b610574600480360381019061056f91906129de565b611156565b604051610581919061241b565b60405180910390f35b6105a4600480360381019061059f9190612666565b6111ea565b005b6000634906490660e01b7bffffffffffffffffffffffffffffffffffffffffffffffffffffffff1916827bffffffffffffffffffffffffffffffffffffffffffffffffffffffff1916148061060057506105ff82611270565b5b9050919050565b60606000805461061690612a4d565b80601f016020809104026020016040519081016040528092919081815260200182805461064290612a4d565b801561068f5780601f106106645761010080835404028352916020019161068f565b820191906000526020600020905b81548152906001019060200180831161067257829003601f168201915b5050505050905090565b60006106a482611352565b506106ae826113da565b9050919050565b6106c782826106c2611417565b61141f565b5050565b600f80546106d890612a4d565b80601f016020809104026020016040519081016040528092919081815260200182805461070490612a4d565b80156107515780601f1061072657610100808354040283529160200191610751565b820191906000526020600020905b81548152906001019060200180831161073457829003601f168201915b505050505081565b600073ffffffffffffffffffffffffffffffffffffffff168273ffffffffffffffffffffffffffffffffffffffff16036107cb5760006040517f64a0ae920000000000000000000000000000000000000000000000000000000081526004016107c2919061258c565b60405180910390fd5b60006107df83836107da611417565b611431565b90508373ffffffffffffffffffffffffffffffffffffffff168173ffffffffffffffffffffffffffffffffffffffff1614610855578382826040517f64283d7b00000000000000000000000000000000000000000000000000000000815260040161084c93929190612a7e565b60405180910390fd5b50505050565b600b805461086890612a4d565b80601f016020809104026020016040519081016040528092919081815260200182805461089490612a4d565b80156108e15780601f106108b6576101008083540402835291602001916108e1565b820191906000526020600020905b8154815290600101906020018083116108c457829003601f168201915b505050505081565b61090483838360405180602001604052806000815250610de7565b505050565b3373ffffffffffffffffffffffffffffffffffffffff166109298261098b565b73ffffffffffffffffffffffffffffffffffffffff161461097f576040517f08c379a000000000000000000000000000000000000000000000000000000000815260040161097690612b01565b60405180910390fd5b6109888161164b565b50565b600061099682611352565b9050919050565b60008073ffffffffffffffffffffffffffffffffffffffff168273ffffffffffffffffffffffffffffffffffffffff1603610a105760006040517f89c62b64000000000000000000000000000000000000000000000000000000008152600401610a07919061258c565b60405180910390fd5b600360008373ffffffffffffffffffffffffffffffffffffffff1673ffffffffffffffffffffffffffffffffffffffff168152602001908152602001600020549050919050565b610a5f6116d1565b610a696000611758565b565b80600960006101000a81548173ffffffffffffffffffffffffffffffffffffffff021916908373ffffffffffffffffffffffffffffffffffffffff16021790555050565b60085481565b60108054610ac290612a4d565b80601f0160208091040260200160405190810160405280929190818152602001828054610aee90612a4d565b8015610b3b5780601f10610b1057610100808354040283529160200191610b3b565b820191906000526020600020905b815481529060010190602001808311610b1e57829003601f168201915b505050505081565b600e8054610b5090612a4d565b80601f0160208091040260200160405190810160405280929190818152602001828054610b7c90612a4d565b8015610bc95780601f10610b9e57610100808354040283529160200191610bc9565b820191906000526020600020905b815481529060010190602001808311610bac57829003601f168201915b505050505081565b6000600760009054906101000a900473ffffffffffffffffffffffffffffffffffffffff16905090565b606060018054610c0a90612a4d565b80601f0160208091040260200160405190810160405280929190818152602001828054610c3690612a4d565b8015610c835780601f10610c5857610100808354040283529160200191610c83565b820191906000526020600020905b815481529060010190602001808311610c6657829003601f168201915b5050505050905090565b610c9f610c98611417565b838361181e565b5050565b600960009054906101000a900473ffffffffffffffffffffffffffffffffffffffff1681565b6000600960009054906101000a900473ffffffffffffffffffffffffffffffffffffffff1673ffffffffffffffffffffffffffffffffffffffff163373ffffffffffffffffffffffffffffffffffffffff1614610d5b576040517f08c379a0000000000000000000000000000000000000000000000000000000008152600401610d5290612b6d565b60405180910390fd5b6000600854905060086000815480929190610d7590612bbc565b9190505550610d84848261198d565b610d8e81846119ab565b808473ffffffffffffffffffffffffffffffffffffffff167fe7cd4ce7f2a465edc730269a1305e8a48bad821e8fb7e152ec413829c01a53c485604051610dd591906124c6565b60405180910390a38091505092915050565b610df2848484610759565b610e06610dfd611417565b85858585611a07565b50505050565b600c8054610e1990612a4d565b80601f0160208091040260200160405190810160405280929190818152602001828054610e4590612a4d565b8015610e925780601f10610e6757610100808354040283529160200191610e92565b820191906000526020600020905b815481529060010190602001808311610e7557829003601f168201915b505050505081565b6060610ea582611352565b506000600660008481526020019081526020016000208054610ec690612a4d565b80601f0160208091040260200160405190810160405280929190818152602001828054610ef290612a4d565b8015610f3f5780601f10610f1457610100808354040283529160200191610f3f565b820191906000526020600020905b815481529060010190602001808311610f2257829003601f168201915b505050505090506000610f50611bb8565b90506000815103610f65578192505050610fa8565b600082511115610f9a578082604051602001610f82929190612c40565b60405160208183030381529060405292505050610fa8565b610fa384611bcf565b925050505b919050565b600080600854905060086000815480929190610fc890612bbc565b9190505550610fd7848261198d565b610fe181846119ab565b808473ffffffffffffffffffffffffffffffffffffffff167fe7cd4ce7f2a465edc730269a1305e8a48bad821e8fb7e152ec413829c01a53c48560405161102891906124c6565b60405180910390a38091505092915050565b600d805461104790612a4d565b80601f016020809104026020016040519081016040528092919081815260200182805461107390612a4d565b80156110c05780601f10611095576101008083540402835291602001916110c0565b820191906000526020600020905b8154815290600101906020018083116110a357829003601f168201915b505050505081565b600a80546110d590612a4d565b80601f016020809104026020016040519081016040528092919081815260200182805461110190612a4d565b801561114e5780601f106111235761010080835404028352916020019161114e565b820191906000526020600020905b81548152906001019060200180831161113157829003601f168201915b505050505081565b6000600560008473ffffffffffffffffffffffffffffffffffffffff1673ffffffffffffffffffffffffffffffffffffffff16815260200190815260200160002060008373ffffffffffffffffffffffffffffffffffffffff1673ffffffffffffffffffffffffffffffffffffffff16815260200190815260200160002060009054906101000a900460ff16905092915050565b6111f26116d1565b600073ffffffffffffffffffffffffffffffffffffffff168173ffffffffffffffffffffffffffffffffffffffff16036112645760006040517f1e4fbdf700000000000000000000000000000000000000000000000000000000815260040161125b919061258c565b60405180910390fd5b61126d81611758565b50565b60007f80ac58cd000000000000000000000000000000000000000000000000000000007bffffffffffffffffffffffffffffffffffffffffffffffffffffffff1916827bffffffffffffffffffffffffffffffffffffffffffffffffffffffff1916148061133b57507f5b5e139f000000000000000000000000000000000000000000000000000000007bffffffffffffffffffffffffffffffffffffffffffffffffffffffff1916827bffffffffffffffffffffffffffffffffffffffffffffffffffffffff1916145b8061134b575061134a82611c38565b5b9050919050565b60008061135e83611ca2565b9050600073ffffffffffffffffffffffffffffffffffffffff168173ffffffffffffffffffffffffffffffffffffffff16036113d157826040517f7e2732890000000000000000000000000000000000000000000000000000000081526004016113c891906126a2565b60405180910390fd5b80915050919050565b60006004600083815260200190815260200160002060009054906101000a900473ffffffffffffffffffffffffffffffffffffffff169050919050565b600033905090565b61142c8383836001611cdf565b505050565b60008061143d84611ca2565b9050600073ffffffffffffffffffffffffffffffffffffffff168373ffffffffffffffffffffffffffffffffffffffff161461147f5761147e818486611ea4565b5b600073ffffffffffffffffffffffffffffffffffffffff168173ffffffffffffffffffffffffffffffffffffffff1614611510576114c1600085600080611cdf565b6001600360008373ffffffffffffffffffffffffffffffffffffffff1673ffffffffffffffffffffffffffffffffffffffff168152602001908152602001600020600082825403925050819055505b600073ffffffffffffffffffffffffffffffffffffffff168573ffffffffffffffffffffffffffffffffffffffff1614611593576001600360008773ffffffffffffffffffffffffffffffffffffffff1673ffffffffffffffffffffffffffffffffffffffff168152602001908152602001600020600082825401925050819055505b846002600086815260200190815260200160002060006101000a81548173ffffffffffffffffffffffffffffffffffffffff021916908373ffffffffffffffffffffffffffffffffffffffff160217905550838573ffffffffffffffffffffffffffffffffffffffff168273ffffffffffffffffffffffffffffffffffffffff167fddf252ad1be2c89b69c2b068fc378daa952ba7f163c4a11628f55a4df523b3ef60405160405180910390a4809150509392505050565b600061165a6000836000611431565b9050600073ffffffffffffffffffffffffffffffffffffffff168173ffffffffffffffffffffffffffffffffffffffff16036116cd57816040517f7e2732890000000000000000000000000000000000000000000000000000000081526004016116c491906126a2565b60405180910390fd5b5050565b6116d9611417565b73ffffffffffffffffffffffffffffffffffffffff166116f7610bd1565b73ffffffffffffffffffffffffffffffffffffffff16146117565761171a611417565b6040517f118cdaa700000000000000000000000000000000000000000000000000000000815260040161174d919061258c565b60405180910390fd5b565b6000600760009054906101000a900473ffffffffffffffffffffffffffffffffffffffff16905081600760006101000a81548173ffffffffffffffffffffffffffffffffffffffff021916908373ffffffffffffffffffffffffffffffffffffffff1602179055508173ffffffffffffffffffffffffffffffffffffffff168173ffffffffffffffffffffffffffffffffffffffff167f8be0079c531659141344cd1fd0a4f28419497f9722a3daafe3b4186f6b6457e060405160405180910390a35050565b600073ffffffffffffffffffffffffffffffffffffffff168273ffffffffffffffffffffffffffffffffffffffff160361188f57816040517f5b08ba18000000000000000000000000000000000000000000000000000000008152600401611886919061258c565b60405180910390fd5b80600560008573ffffffffffffffffffffffffffffffffffffffff1673ffffffffffffffffffffffffffffffffffffffff16815260200190815260200160002060008473ffffffffffffffffffffffffffffffffffffffff1673ffffffffffffffffffffffffffffffffffffffff16815260200190815260200160002060006101000a81548160ff0219169083151502179055508173ffffffffffffffffffffffffffffffffffffffff168373ffffffffffffffffffffffffffffffffffffffff167f17307eab39ab6107e8899845ad3d59bd9653f200f220920489ca2b5937696c3183604051611980919061241b565b60405180910390a3505050565b6119a7828260405180602001604052806000815250611f68565b5050565b806006600084815260200190815260200160002090816119cb9190612e10565b507ff8e1a15aba9398e019f0b49df1a4fde98ee17ae345cb5f6b5e2c27f5033e8ce7826040516119fb91906126a2565b60405180910390a15050565b60008373ffffffffffffffffffffffffffffffffffffffff163b1115611bb1578273ffffffffffffffffffffffffffffffffffffffff1663150b7a02868685856040518563ffffffff1660e01b8152600401611a669493929190612f37565b6020604051808303816000875af1925050508015611aa257506040513d601f19601f82011682018060405250810190611a9f9190612f98565b60015b611b26573d8060008114611ad2576040519150601f19603f3d011682016040523d82523d6000602084013e611ad7565b606091505b506000815103611b1e57836040517f64a0ae92000000000000000000000000000000000000000000000000000000008152600401611b15919061258c565b60405180910390fd5b805160208201fd5b63150b7a0260e01b7bffffffffffffffffffffffffffffffffffffffffffffffffffffffff1916817bffffffffffffffffffffffffffffffffffffffffffffffffffffffff191614611baf57836040517f64a0ae92000000000000000000000000000000000000000000000000000000008152600401611ba6919061258c565b60405180910390fd5b505b5050505050565b606060405180602001604052806000815250905090565b6060611bda82611352565b506000611be5611bb8565b90506000815111611c055760405180602001604052806000815250611c30565b80611c0f84611f8c565b604051602001611c20929190612c40565b6040516020818303038152906040525b915050919050565b60007f01ffc9a7000000000000000000000000000000000000000000000000000000007bffffffffffffffffffffffffffffffffffffffffffffffffffffffff1916827bffffffffffffffffffffffffffffffffffffffffffffffffffffffff1916149050919050565b60006002600083815260200190815260200160002060009054906101000a900473ffffffffffffffffffffffffffffffffffffffff169050919050565b8080611d185750600073ffffffffffffffffffffffffffffffffffffffff168273ffffffffffffffffffffffffffffffffffffffff1614155b15611e4c576000611d2884611352565b9050600073ffffffffffffffffffffffffffffffffffffffff168373ffffffffffffffffffffffffffffffffffffffff1614158015611d9357508273ffffffffffffffffffffffffffffffffffffffff168173ffffffffffffffffffffffffffffffffffffffff1614155b8015611da65750611da48184611156565b155b15611de857826040517fa9fbf51f000000000000000000000000000000000000000000000000000000008152600401611ddf919061258c565b60405180910390fd5b8115611e4a57838573ffffffffffffffffffffffffffffffffffffffff168273ffffffffffffffffffffffffffffffffffffffff167f8c5be1e5ebec7d5bd14f71427d1e84f3dd0314c0f7b2291e5b200ac8c7c3b92560405160405180910390a45b505b836004600085815260200190815260200160002060006101000a81548173ffffffffffffffffffffffffffffffffffffffff021916908373ffffffffffffffffffffffffffffffffffffffff16021790555050505050565b611eaf83838361205a565b611f6357600073ffffffffffffffffffffffffffffffffffffffff168373ffffffffffffffffffffffffffffffffffffffff1603611f2457806040517f7e273289000000000000000000000000000000000000000000000000000000008152600401611f1b91906126a2565b60405180910390fd5b81816040517f177e802f000000000000000000000000000000000000000000000000000000008152600401611f5a929190612fc5565b60405180910390fd5b505050565b611f72838361211b565b611f87611f7d611417565b6000858585611a07565b505050565b606060006001611f9b84612214565b01905060008167ffffffffffffffff811115611fba57611fb9612733565b5b6040519080825280601f01601f191660200182016040528015611fec5781602001600182028036833780820191505090505b509050600082602083010190505b60011561204f578080600190039150507f3031323334353637383961626364656600000000000000000000000000000000600a86061a8153600a858161204357612042612fee565b5b04945060008503611ffa575b819350505050919050565b60008073ffffffffffffffffffffffffffffffffffffffff168373ffffffffffffffffffffffffffffffffffffffff161415801561211257508273ffffffffffffffffffffffffffffffffffffffff168473ffffffffffffffffffffffffffffffffffffffff1614806120d357506120d28484611156565b5b8061211157508273ffffffffffffffffffffffffffffffffffffffff166120f9836113da565b73ffffffffffffffffffffffffffffffffffffffff16145b5b90509392505050565b600073ffffffffffffffffffffffffffffffffffffffff168273ffffffffffffffffffffffffffffffffffffffff160361218d5760006040517f64a0ae92000000000000000000000000000000000000000000000000000000008152600401612184919061258c565b60405180910390fd5b600061219b83836000611431565b9050600073ffffffffffffffffffffffffffffffffffffffff168173ffffffffffffffffffffffffffffffffffffffff161461220f5760006040517f73c6ac6e000000000000000000000000000000000000000000000000000000008152600401612206919061258c565b60405180910390fd5b505050565b600080600090507a184f03e93ff9f4daa797ed6e38ed64bf6a1f0100000000000000008310612272577a184f03e93ff9f4daa797ed6e38ed64bf6a1f010000000000000000838161226857612267612fee565b5b0492506040810190505b6d04ee2d6d415b85acef810000000083106122af576d04ee2d6d415b85acef810000000083816122a5576122a4612fee565b5b0492506020810190505b662386f26fc1000083106122de57662386f26fc1000083816122d4576122d3612fee565b5b0492506010810190505b6305f5e1008310612307576305f5e10083816122fd576122fc612fee565b5b0492506008810190505b612710831061232c57612710838161232257612321612fee565b5b0492506004810190505b6064831061234f576064838161234557612344612fee565b5b0492506002810190505b600a831061235e576001810190505b80915050919050565b6000604051905090565b600080fd5b600080fd5b60007fffffffff0000000000000000000000000000000000000000000000000000000082169050919050565b6123b08161237b565b81146123bb57600080fd5b50565b6000813590506123cd816123a7565b92915050565b6000602082840312156123e9576123e8612371565b5b60006123f7848285016123be565b91505092915050565b60008115159050919050565b61241581612400565b82525050565b6000602082019050612430600083018461240c565b92915050565b600081519050919050565b600082825260208201905092915050565b60005b83811015612470578082015181840152602081019050612455565b60008484015250505050565b6000601f19601f8301169050919050565b600061249882612436565b6124a28185612441565b93506124b2818560208601612452565b6124bb8161247c565b840191505092915050565b600060208201905081810360008301526124e0818461248d565b905092915050565b6000819050919050565b6124fb816124e8565b811461250657600080fd5b50565b600081359050612518816124f2565b92915050565b60006020828403121561253457612533612371565b5b600061254284828501612509565b91505092915050565b600073ffffffffffffffffffffffffffffffffffffffff82169050919050565b60006125768261254b565b9050919050565b6125868161256b565b82525050565b60006020820190506125a1600083018461257d565b92915050565b6125b08161256b565b81146125bb57600080fd5b50565b6000813590506125cd816125a7565b92915050565b600080604083850312156125ea576125e9612371565b5b60006125f8858286016125be565b925050602061260985828601612509565b9150509250929050565b60008060006060848603121561262c5761262b612371565b5b600061263a868287016125be565b935050602061264b868287016125be565b925050604061265c86828701612509565b9150509250925092565b60006020828403121561267c5761267b612371565b5b600061268a848285016125be565b91505092915050565b61269c816124e8565b82525050565b60006020820190506126b76000830184612693565b92915050565b6126c681612400565b81146126d157600080fd5b50565b6000813590506126e3816126bd565b92915050565b60008060408385031215612700576126ff612371565b5b600061270e858286016125be565b925050602061271f858286016126d4565b9150509250929050565b600080fd5b600080fd5b7f4e487b7100000000000000000000000000000000000000000000000000000000600052604160045260246000fd5b61276b8261247c565b810181811067ffffffffffffffff8211171561278a57612789612733565b5b80604052505050565b600061279d612367565b90506127a98282612762565b919050565b600067ffffffffffffffff8211156127c9576127c8612733565b5b6127d28261247c565b9050602081019050919050565b82818337600083830152505050565b60006128016127fc846127ae565b612793565b90508281526020810184848401111561281d5761281c61272e565b5b6128288482856127df565b509392505050565b600082601f83011261284557612844612729565b5b81356128558482602086016127ee565b91505092915050565b6000806040838503121561287557612874612371565b5b6000612883858286016125be565b925050602083013567ffffffffffffffff8111156128a4576128a3612376565b5b6128b085828601612830565b9150509250929050565b600067ffffffffffffffff8211156128d5576128d4612733565b5b6128de8261247c565b9050602081019050919050565b60006128fe6128f9846128ba565b612793565b90508281526020810184848401111561291a5761291961272e565b5b6129258482856127df565b509392505050565b600082601f83011261294257612941612729565b5b81356129528482602086016128eb565b91505092915050565b6000806000806080858703121561297557612974612371565b5b6000612983878288016125be565b9450506020612994878288016125be565b93505060406129a587828801612509565b925050606085013567ffffffffffffffff8111156129c6576129c5612376565b5b6129d28782880161292d565b91505092959194509250565b600080604083850312156129f5576129f4612371565b5b6000612a03858286016125be565b9250506020612a14858286016125be565b9150509250929050565b7f4e487b7100000000000000000000000000000000000000000000000000000000600052602260045260246000fd5b60006002820490506001821680612a6557607f821691505b602082108103612a7857612a77612a1e565b5b50919050565b6000606082019050612a93600083018661257d565b612aa06020830185612693565b612aad604083018461257d565b949350505050565b7f4e6f74206f776e65720000000000000000000000000000000000000000000000600082015250565b6000612aeb600983612441565b9150612af682612ab5565b602082019050919050565b60006020820190508181036000830152612b1a81612ade565b9050919050565b7f4e6f74206d61726b6574706c6163650000000000000000000000000000000000600082015250565b6000612b57600f83612441565b9150612b6282612b21565b602082019050919050565b60006020820190508181036000830152612b8681612b4a565b9050919050565b7f4e487b7100000000000000000000000000000000000000000000000000000000600052601160045260246000fd5b6000612bc7826124e8565b91507fffffffffffffffffffffffffffffffffffffffffffffffffffffffffffffffff8203612bf957612bf8612b8d565b5b600182019050919050565b600081905092915050565b6000612c1a82612436565b612c248185612c04565b9350612c34818560208601612452565b80840191505092915050565b6000612c4c8285612c0f565b9150612c588284612c0f565b91508190509392505050565b60008190508160005260206000209050919050565b60006020601f8301049050919050565b600082821b905092915050565b600060088302612cc67fffffffffffffffffffffffffffffffffffffffffffffffffffffffffffffffff82612c89565b612cd08683612c89565b95508019841693508086168417925050509392505050565b6000819050919050565b6000612d0d612d08612d03846124e8565b612ce8565b6124e8565b9050919050565b6000819050919050565b612d2783612cf2565b612d3b612d3382612d14565b848454612c96565b825550505050565b600090565b612d50612d43565b612d5b818484612d1e565b505050565b5b81811015612d7f57612d74600082612d48565b600181019050612d61565b5050565b601f821115612dc457612d9581612c64565b612d9e84612c79565b81016020851015612dad578190505b612dc1612db985612c79565b830182612d60565b50505b505050565b600082821c905092915050565b6000612de760001984600802612dc9565b1980831691505092915050565b6000612e008383612dd6565b9150826002028217905092915050565b612e1982612436565b67ffffffffffffffff811115612e3257612e31612733565b5b612e3c8254612a4d565b612e47828285612d83565b600060209050601f831160018114612e7a5760008415612e68578287015190505b612e728582612df4565b865550612eda565b601f198416612e8886612c64565b60005b82811015612eb057848901518255600182019150602085019450602081019050612e8b565b86831015612ecd5784890151612ec9601f891682612dd6565b8355505b6001600288020188555050505b505050505050565b600081519050919050565b600082825260208201905092915050565b6000612f0982612ee2565b612f138185612eed565b9350612f23818560208601612452565b612f2c8161247c565b840191505092915050565b6000608082019050612f4c600083018761257d565b612f59602083018661257d565b612f666040830185612693565b8181036060830152612f788184612efe565b905095945050505050565b600081519050612f92816123a7565b92915050565b600060208284031215612fae57612fad612371565b5b6000612fbc84828501612f83565b91505092915050565b6000604082019050612fda600083018561257d565b612fe76020830184612693565b9392505050565b7f4e487b7100000000000000000000000000000000000000000000000000000000600052601260045260246000fdfea2646970667358221220d54ae96cebe8f978795bf2045ed59faadd472b295f41020afbda4615ec32c93564736f6c634300081c0033",
  "linkReferences": {},
  "deployedLinkReferences": {}
}