{
  "_format": "hh-sol-artifact-1",
  "contractName": "NFTMarketplace",
  "sourceName": "contracts/NFTMarketplace.sol",
  "abi": [
    {
      "inputs": [],
      "stateMutability": "nonpayable",
      "type": "constructor"
    },
    {
      "inputs": [],
      "name": "ReentrancyGuardReentrantCall",
      "type": "error"
    },
    {
      "anonymous": false,
      "inputs": [
        {
          "indexed": true,
          "internalType": "address",
          "name": "nft",
          "type": "address"
        },
        {
          "indexed": true,
          "internalType": "uint256",
          "name": "tokenId",
          "type": "uint256"
        },
        {
          "indexed": false,
          "internalType": "address",
          "name": "seller",
          "type": "address"
        },
        {
          "indexed": false,
          "internalType": "uint256",
          "name": "price",
          "type": "uint256"
        }
      ],
      "name": "Listed",
      "type": "event"
    },
    {
      "anonymous": false,
      "inputs": [
        {
          "indexed": true,
          "internalType": "address",
          "name": "nft",
          "type": "address"
        },
        {
          "indexed": true,
          "internalType": "uint256",
          "name": "tokenId",
          "type": "uint256"
        },
        {
          "indexed": false,
          "internalType": "address",
          "name": "buyer",
          "type": "address"
        },
        {
          "indexed": false,
          "internalType": "uint256",
          "name": "price",
          "type": "uint256"
        }
      ],
      "name": "Sale",
      "type": "event"
    },
    {
      "inputs": [
        {
          "internalType": "address",
          "name": "_nft",
          "type": "address"
        },
        {
          "internalType": "uint256",
          "name": "_tokenId",
          "type": "uint256"
        },
        {
          "internalType": "uint256",
          "name": "_price",
          "type": "uint256"
        }
      ],
      "name": "ListNFT",
      "outputs": [],
      "stateMutability": "nonpayable",
      "type": "function"
    },
    {
      "inputs": [
        {
          "internalType": "address",
          "name": "_nft",
          "type": "address"
        },
        {
          "internalType": "uint256",
          "name": "_tokenId",
          "type": "uint256"
        }
      ],
      "name": "buyNFT",
      "outputs": [],
      "stateMutability": "payable",
      "type": "function"
    },
    {
      "inputs": [],
      "name": "feePercent",
      "outputs": [
        {
          "internalType": "uint256",
          "name": "",
          "type": "uint256"
        }
      ],
      "stateMutability": "view",
      "type": "function"
    },
    {
      "inputs": [
        {
          "internalType": "address",
          "name": "",
          "type": "address"
        },
        {
          "internalType": "uint256",
          "name": "",
          "type": "uint256"
        }
      ],
      "name": "listings",
      "outputs": [
        {
          "internalType": "address",
          "name": "seller",
          "type": "address"
        },
        {
          "internalType": "uint256",
          "name": "price",
          "type": "uint256"
        }
      ],
      "stateMutability": "view",
      "type": "function"
    },
    {
      "inputs": [
        {
          "internalType": "address",
          "name": "_nft",
          "type": "address"
        },
        {
          "internalType": "string",
          "name": "tokenURI",
          "type": "string"
        },
        {
          "internalType": "uint256",
          "name": "price",
          "type": "uint256"
        }
      ],
      "name": "mintAndListNFT",
      "outputs": [],
      "stateMutability": "nonpayable",
      "type": "function"
    },
    {
      "inputs": [],
      "name": "owner",
      "outputs": [
        {
          "internalType": "address",
          "name": "",
          "type": "address"
        }
      ],
      "stateMutability": "view",
      "type": "function"
    }
  ],
  "bytecode": "0x60806040526019600155348015601457600080fd5b50600160008190555033600260006101000a81548173ffffffffffffffffffffffffffffffffffffffff021916908373ffffffffffffffffffffffffffffffffffffffff1602179055506115838061006d6000396000f3fe6080604052600436106100545760003560e01c806207df30146100595780636cd52e2a146100975780637fd6f15c146100c05780638da5cb5b146100eb57806399cdd7e614610116578063a82ba76f1461013f575b600080fd5b34801561006557600080fd5b50610080600480360381019061007b9190610ce0565b61015b565b60405161008e929190610d3e565b60405180910390f35b3480156100a357600080fd5b506100be60048036038101906100b99190610d67565b6101ac565b005b3480156100cc57600080fd5b506100d561056b565b6040516100e29190610dba565b60405180910390f35b3480156100f757600080fd5b50610100610571565b60405161010d9190610dd5565b60405180910390f35b34801561012257600080fd5b5061013d60048036038101906101389190610e55565b610597565b005b61015960048036038101906101549190610ce0565b610795565b005b6003602052816000526040600020602052806000526040600020600091509150508060000160009054906101000a900473ffffffffffffffffffffffffffffffffffffffff16908060010154905082565b600081116101ef576040517f08c379a00000000000000000000000000000000000000000000000000000000081526004016101e690610f26565b60405180910390fd5b60008390503373ffffffffffffffffffffffffffffffffffffffff168173ffffffffffffffffffffffffffffffffffffffff16636352211e856040518263ffffffff1660e01b81526004016102449190610dba565b602060405180830381865afa158015610261573d6000803e3d6000fd5b505050506040513d601f19601f820116820180604052508101906102859190610f5b565b73ffffffffffffffffffffffffffffffffffffffff16146102db576040517f08c379a00000000000000000000000000000000000000000000000000000000081526004016102d290610fd4565b60405180910390fd5b8073ffffffffffffffffffffffffffffffffffffffff1663e985e9c533306040518363ffffffff1660e01b8152600401610316929190610ff4565b602060405180830381865afa158015610333573d6000803e3d6000fd5b505050506040513d601f19601f820116820180604052508101906103579190611055565b8061040657503073ffffffffffffffffffffffffffffffffffffffff168173ffffffffffffffffffffffffffffffffffffffff1663081812fc856040518263ffffffff1660e01b81526004016103ad9190610dba565b602060405180830381865afa1580156103ca573d6000803e3d6000fd5b505050506040513d601f19601f820116820180604052508101906103ee9190610f5b565b73ffffffffffffffffffffffffffffffffffffffff16145b610445576040517f08c379a000000000000000000000000000000000000000000000000000000000815260040161043c906110ce565b60405180910390fd5b60405180604001604052803373ffffffffffffffffffffffffffffffffffffffff16815260200183815250600360008673ffffffffffffffffffffffffffffffffffffffff1673ffffffffffffffffffffffffffffffffffffffff168152602001908152602001600020600085815260200190815260200160002060008201518160000160006101000a81548173ffffffffffffffffffffffffffffffffffffffff021916908373ffffffffffffffffffffffffffffffffffffffff16021790555060208201518160010155905050828473ffffffffffffffffffffffffffffffffffffffff167f8b06cda60618abf2b2d07227f9dd63ec6349ca3269ce0eb18d49122a48362ad8338560405161055d929190610d3e565b60405180910390a350505050565b60015481565b600260009054906101000a900473ffffffffffffffffffffffffffffffffffffffff1681565b61059f610bf2565b600081116105e2576040517f08c379a00000000000000000000000000000000000000000000000000000000081526004016105d99061113a565b60405180910390fd5b60008473ffffffffffffffffffffffffffffffffffffffff1663b04eec593386866040518463ffffffff1660e01b8152600401610621939291906111a7565b6020604051808303816000875af1158015610640573d6000803e3d6000fd5b505050506040513d601f19601f8201168201806040525081019061066491906111ee565b905060405180604001604052803373ffffffffffffffffffffffffffffffffffffffff16815260200183815250600360008773ffffffffffffffffffffffffffffffffffffffff1673ffffffffffffffffffffffffffffffffffffffff168152602001908152602001600020600083815260200190815260200160002060008201518160000160006101000a81548173ffffffffffffffffffffffffffffffffffffffff021916908373ffffffffffffffffffffffffffffffffffffffff16021790555060208201518160010155905050808573ffffffffffffffffffffffffffffffffffffffff167f8b06cda60618abf2b2d07227f9dd63ec6349ca3269ce0eb18d49122a48362ad8338560405161077e929190610d3e565b60405180910390a35061078f610c38565b50505050565b61079d610bf2565b6000600360008473ffffffffffffffffffffffffffffffffffffffff1673ffffffffffffffffffffffffffffffffffffffff16815260200190815260200160002060008381526020019081526020016000206040518060400160405290816000820160009054906101000a900473ffffffffffffffffffffffffffffffffffffffff1673ffffffffffffffffffffffffffffffffffffffff1673ffffffffffffffffffffffffffffffffffffffff168152602001600182015481525050905060008160200151116108a3576040517f08c379a000000000000000000000000000000000000000000000000000000000815260040161089a90611267565b60405180910390fd5b80602001513410156108ea576040517f08c379a00000000000000000000000000000000000000000000000000000000081526004016108e1906112d3565b60405180910390fd5b60006103e8600154346108fd9190611322565b6109079190611393565b90506000813461091791906113c4565b90506000836000015173ffffffffffffffffffffffffffffffffffffffff168260405161094390611429565b60006040518083038185875af1925050503d8060008114610980576040519150601f19603f3d011682016040523d82523d6000602084013e610985565b606091505b50509050806109c9576040517f08c379a00000000000000000000000000000000000000000000000000000000081526004016109c09061148a565b60405180910390fd5b6000600260009054906101000a900473ffffffffffffffffffffffffffffffffffffffff1673ffffffffffffffffffffffffffffffffffffffff1684604051610a1190611429565b60006040518083038185875af1925050503d8060008114610a4e576040519150601f19603f3d011682016040523d82523d6000602084013e610a53565b606091505b5050905080610a97576040517f08c379a0000000000000000000000000000000000000000000000000000000008152600401610a8e906114f6565b60405180910390fd5b8673ffffffffffffffffffffffffffffffffffffffff166342842e0e866000015133896040518463ffffffff1660e01b8152600401610ad893929190611516565b600060405180830381600087803b158015610af257600080fd5b505af1158015610b06573d6000803e3d6000fd5b50505050600360008873ffffffffffffffffffffffffffffffffffffffff1673ffffffffffffffffffffffffffffffffffffffff1681526020019081526020016000206000878152602001908152602001600020600080820160006101000a81549073ffffffffffffffffffffffffffffffffffffffff021916905560018201600090555050858773ffffffffffffffffffffffffffffffffffffffff167f686fb6eb169cadc38afcea6d15c9b04b00e9a461889d6a280f21f5ffda48095d338860200151604051610bd9929190610d3e565b60405180910390a35050505050610bee610c38565b5050565b600260005403610c2e576040517f3ee5aeb500000000000000000000000000000000000000000000000000000000815260040160405180910390fd5b6002600081905550565b6001600081905550565b600080fd5b600080fd5b600073ffffffffffffffffffffffffffffffffffffffff82169050919050565b6000610c7782610c4c565b9050919050565b610c8781610c6c565b8114610c9257600080fd5b50565b600081359050610ca481610c7e565b92915050565b6000819050919050565b610cbd81610caa565b8114610cc857600080fd5b50565b600081359050610cda81610cb4565b92915050565b60008060408385031215610cf757610cf6610c42565b5b6000610d0585828601610c95565b9250506020610d1685828601610ccb565b9150509250929050565b610d2981610c6c565b82525050565b610d3881610caa565b82525050565b6000604082019050610d536000830185610d20565b610d606020830184610d2f565b9392505050565b600080600060608486031215610d8057610d7f610c42565b5b6000610d8e86828701610c95565b9350506020610d9f86828701610ccb565b9250506040610db086828701610ccb565b9150509250925092565b6000602082019050610dcf6000830184610d2f565b92915050565b6000602082019050610dea6000830184610d20565b92915050565b600080fd5b600080fd5b600080fd5b60008083601f840112610e1557610e14610df0565b5b8235905067ffffffffffffffff811115610e3257610e31610df5565b5b602083019150836001820283011115610e4e57610e4d610dfa565b5b9250929050565b60008060008060608587031215610e6f57610e6e610c42565b5b6000610e7d87828801610c95565b945050602085013567ffffffffffffffff811115610e9e57610e9d610c47565b5b610eaa87828801610dff565b93509350506040610ebd87828801610ccb565b91505092959194509250565b600082825260208201905092915050565b7f5072696365206d7573742062652067726561746572207468616e207a65726f00600082015250565b6000610f10601f83610ec9565b9150610f1b82610eda565b602082019050919050565b60006020820190508181036000830152610f3f81610f03565b9050919050565b600081519050610f5581610c7e565b92915050565b600060208284031215610f7157610f70610c42565b5b6000610f7f84828501610f46565b91505092915050565b7f4e6f74204e4654206f776e657200000000000000000000000000000000000000600082015250565b6000610fbe600d83610ec9565b9150610fc982610f88565b602082019050919050565b60006020820190508181036000830152610fed81610fb1565b9050919050565b60006040820190506110096000830185610d20565b6110166020830184610d20565b9392505050565b60008115159050919050565b6110328161101d565b811461103d57600080fd5b50565b60008151905061104f81611029565b92915050565b60006020828403121561106b5761106a610c42565b5b600061107984828501611040565b91505092915050565b7f4d61726b6574706c616365206e6f7420617070726f7665640000000000000000600082015250565b60006110b8601883610ec9565b91506110c382611082565b602082019050919050565b600060208201905081810360008301526110e7816110ab565b9050919050565b7f5072696365206d757374206265203e2030000000000000000000000000000000600082015250565b6000611124601183610ec9565b915061112f826110ee565b602082019050919050565b6000602082019050818103600083015261115381611117565b9050919050565b82818337600083830152505050565b6000601f19601f8301169050919050565b60006111868385610ec9565b935061119383858461115a565b61119c83611169565b840190509392505050565b60006040820190506111bc6000830186610d20565b81810360208301526111cf81848661117a565b9050949350505050565b6000815190506111e881610cb4565b92915050565b60006020828403121561120457611203610c42565b5b6000611212848285016111d9565b91505092915050565b7f4e4654206e6f74206c6973746564000000000000000000000000000000000000600082015250565b6000611251600e83610ec9565b915061125c8261121b565b602082019050919050565b6000602082019050818103600083015261128081611244565b9050919050565b7f4e465420656e6f756768204554482073656e7400000000000000000000000000600082015250565b60006112bd601383610ec9565b91506112c882611287565b602082019050919050565b600060208201905081810360008301526112ec816112b0565b9050919050565b7f4e487b7100000000000000000000000000000000000000000000000000000000600052601160045260246000fd5b600061132d82610caa565b915061133883610caa565b925082820261134681610caa565b9150828204841483151761135d5761135c6112f3565b5b5092915050565b7f4e487b7100000000000000000000000000000000000000000000000000000000600052601260045260246000fd5b600061139e82610caa565b91506113a983610caa565b9250826113b9576113b8611364565b5b828204905092915050565b60006113cf82610caa565b91506113da83610caa565b92508282039050818111156113f2576113f16112f3565b5b92915050565b600081905092915050565b50565b60006114136000836113f8565b915061141e82611403565b600082019050919050565b600061143482611406565b9150819050919050565b7f53656c6c6572207061796d656e74206661696c65640000000000000000000000600082015250565b6000611474601583610ec9565b915061147f8261143e565b602082019050919050565b600060208201905081810360008301526114a381611467565b9050919050565b7f466565207472616e73666572206661696c656400000000000000000000000000600082015250565b60006114e0601383610ec9565b91506114eb826114aa565b602082019050919050565b6000602082019050818103600083015261150f816114d3565b9050919050565b600060608201905061152b6000830186610d20565b6115386020830185610d20565b6115456040830184610d2f565b94935050505056fea2646970667358221220e480489eee902142018d8555fb8fc7140ca33c50b8de5dd7505ec48b3a14a6c664736f6c634300081c0033",
  "linkReferences": {},
  "deployedLinkReferences": {}
}