{
  "_format": "hh-sol-artifact-1",
  "contractName": "NFTMarketplace",
  "sourceName": "contracts/NFTMarketplace.sol",
  "abi": [
    {
      "inputs": [],
      "stateMutability": "nonpayable",
      "type": "constructor"
    },
    {
      "inputs": [],
      "name": "ReentrancyGuardReentrantCall",
      "type": "error"
    },
    {
      "anonymous": false,
      "inputs": [
        {
          "indexed": true,
          "internalType": "address",
          "name": "nft",
          "type": "address"
        },
        {
          "indexed": true,
          "internalType": "uint256",
          "name": "tokenId",
          "type": "uint256"
        },
        {
          "indexed": false,
          "internalType": "address",
          "name": "seller",
          "type": "address"
        },
        {
          "indexed": false,
          "internalType": "uint256",
          "name": "price",
          "type": "uint256"
        }
      ],
      "name": "Listed",
      "type": "event"
    },
    {
      "anonymous": false,
      "inputs": [
        {
          "indexed": true,
          "internalType": "address",
          "name": "nft",
          "type": "address"
        },
        {
          "indexed": true,
          "internalType": "uint256",
          "name": "tokenId",
          "type": "uint256"
        },
        {
          "indexed": false,
          "internalType": "address",
          "name": "buyer",
          "type": "address"
        },
        {
          "indexed": false,
          "internalType": "uint256",
          "name": "price",
          "type": "uint256"
        }
      ],
      "name": "Sale",
      "type": "event"
    },
    {
      "inputs": [
        {
          "internalType": "address",
          "name": "_nft",
          "type": "address"
        },
        {
          "internalType": "uint256",
          "name": "_tokenId",
          "type": "uint256"
        },
        {
          "internalType": "uint256",
          "name": "_price",
          "type": "uint256"
        }
      ],
      "name": "ListNFT",
      "outputs": [],
      "stateMutability": "nonpayable",
      "type": "function"
    },
    {
      "inputs": [
        {
          "internalType": "address",
          "name": "_nft",
          "type": "address"
        },
        {
          "internalType": "uint256",
          "name": "_tokenId",
          "type": "uint256"
        }
      ],
      "name": "buyNFT",
      "outputs": [],
      "stateMutability": "payable",
      "type": "function"
    },
    {
      "inputs": [],
      "name": "feePercent",
      "outputs": [
        {
          "internalType": "uint256",
          "name": "",
          "type": "uint256"
        }
      ],
      "stateMutability": "view",
      "type": "function"
    },
    {
      "inputs": [
        {
          "internalType": "address",
          "name": "",
          "type": "address"
        },
        {
          "internalType": "uint256",
          "name": "",
          "type": "uint256"
        }
      ],
      "name": "listings",
      "outputs": [
        {
          "internalType": "address",
          "name": "seller",
          "type": "address"
        },
        {
          "internalType": "uint256",
          "name": "price",
          "type": "uint256"
        }
      ],
      "stateMutability": "view",
      "type": "function"
    },
    {
      "inputs": [
        {
          "internalType": "address",
          "name": "_nft",
          "type": "address"
        },
        {
          "internalType": "string",
          "name": "tokenURI",
          "type": "string"
        },
        {
          "internalType": "uint256",
          "name": "price",
          "type": "uint256"
        }
      ],
      "name": "mintAndListNFT",
      "outputs": [],
      "stateMutability": "nonpayable",
      "type": "function"
    },
    {
      "inputs": [
        {
          "internalType": "address",
          "name": "_nft",
          "type": "address"
        },
        {
          "internalType": "string",
          "name": "tokenURI",
          "type": "string"
        }
      ],
      "name": "mintNFT",
      "outputs": [],
      "stateMutability": "nonpayable",
      "type": "function"
    },
    {
      "inputs": [],
      "name": "owner",
      "outputs": [
        {
          "internalType": "address",
          "name": "",
          "type": "address"
        }
      ],
      "stateMutability": "view",
      "type": "function"
    }
  ],
  "bytecode": "0x60806040526019600155348015601457600080fd5b50600160008190555033600260006101000a81548173ffffffffffffffffffffffffffffffffffffffff021916908373ffffffffffffffffffffffffffffffffffffffff1602179055506116bd8061006d6000396000f3fe60806040526004361061006f5760003560e01c80638da5cb5b1161004e5780638da5cb5b1461010657806399cdd7e614610131578063a82ba76f1461015a578063eacabe14146101765761006f565b806207df30146100745780636cd52e2a146100b25780637fd6f15c146100db575b600080fd5b34801561008057600080fd5b5061009b60048036038101906100969190610dba565b61019f565b6040516100a9929190610e18565b60405180910390f35b3480156100be57600080fd5b506100d960048036038101906100d49190610e41565b6101f0565b005b3480156100e757600080fd5b506100f06105af565b6040516100fd9190610e94565b60405180910390f35b34801561011257600080fd5b5061011b6105b5565b6040516101289190610eaf565b60405180910390f35b34801561013d57600080fd5b5061015860048036038101906101539190610f2f565b6105db565b005b610174600480360381019061016f9190610dba565b6107d9565b005b34801561018257600080fd5b5061019d60048036038101906101989190610fa3565b610c36565b005b6003602052816000526040600020602052806000526040600020600091509150508060000160009054906101000a900473ffffffffffffffffffffffffffffffffffffffff16908060010154905082565b60008111610233576040517f08c379a000000000000000000000000000000000000000000000000000000000815260040161022a90611060565b60405180910390fd5b60008390503373ffffffffffffffffffffffffffffffffffffffff168173ffffffffffffffffffffffffffffffffffffffff16636352211e856040518263ffffffff1660e01b81526004016102889190610e94565b602060405180830381865afa1580156102a5573d6000803e3d6000fd5b505050506040513d601f19601f820116820180604052508101906102c99190611095565b73ffffffffffffffffffffffffffffffffffffffff161461031f576040517f08c379a00000000000000000000000000000000000000000000000000000000081526004016103169061110e565b60405180910390fd5b8073ffffffffffffffffffffffffffffffffffffffff1663e985e9c533306040518363ffffffff1660e01b815260040161035a92919061112e565b602060405180830381865afa158015610377573d6000803e3d6000fd5b505050506040513d601f19601f8201168201806040525081019061039b919061118f565b8061044a57503073ffffffffffffffffffffffffffffffffffffffff168173ffffffffffffffffffffffffffffffffffffffff1663081812fc856040518263ffffffff1660e01b81526004016103f19190610e94565b602060405180830381865afa15801561040e573d6000803e3d6000fd5b505050506040513d601f19601f820116820180604052508101906104329190611095565b73ffffffffffffffffffffffffffffffffffffffff16145b610489576040517f08c379a000000000000000000000000000000000000000000000000000000000815260040161048090611208565b60405180910390fd5b60405180604001604052803373ffffffffffffffffffffffffffffffffffffffff16815260200183815250600360008673ffffffffffffffffffffffffffffffffffffffff1673ffffffffffffffffffffffffffffffffffffffff168152602001908152602001600020600085815260200190815260200160002060008201518160000160006101000a81548173ffffffffffffffffffffffffffffffffffffffff021916908373ffffffffffffffffffffffffffffffffffffffff16021790555060208201518160010155905050828473ffffffffffffffffffffffffffffffffffffffff167f8b06cda60618abf2b2d07227f9dd63ec6349ca3269ce0eb18d49122a48362ad833856040516105a1929190610e18565b60405180910390a350505050565b60015481565b600260009054906101000a900473ffffffffffffffffffffffffffffffffffffffff1681565b6105e3610ccc565b60008111610626576040517f08c379a000000000000000000000000000000000000000000000000000000000815260040161061d90611274565b60405180910390fd5b60008473ffffffffffffffffffffffffffffffffffffffff1663b04eec593386866040518463ffffffff1660e01b8152600401610665939291906112e1565b6020604051808303816000875af1158015610684573d6000803e3d6000fd5b505050506040513d601f19601f820116820180604052508101906106a89190611328565b905060405180604001604052803373ffffffffffffffffffffffffffffffffffffffff16815260200183815250600360008773ffffffffffffffffffffffffffffffffffffffff1673ffffffffffffffffffffffffffffffffffffffff168152602001908152602001600020600083815260200190815260200160002060008201518160000160006101000a81548173ffffffffffffffffffffffffffffffffffffffff021916908373ffffffffffffffffffffffffffffffffffffffff16021790555060208201518160010155905050808573ffffffffffffffffffffffffffffffffffffffff167f8b06cda60618abf2b2d07227f9dd63ec6349ca3269ce0eb18d49122a48362ad833856040516107c2929190610e18565b60405180910390a3506107d3610d12565b50505050565b6107e1610ccc565b6000600360008473ffffffffffffffffffffffffffffffffffffffff1673ffffffffffffffffffffffffffffffffffffffff16815260200190815260200160002060008381526020019081526020016000206040518060400160405290816000820160009054906101000a900473ffffffffffffffffffffffffffffffffffffffff1673ffffffffffffffffffffffffffffffffffffffff1673ffffffffffffffffffffffffffffffffffffffff168152602001600182015481525050905060008160200151116108e7576040517f08c379a00000000000000000000000000000000000000000000000000000000081526004016108de906113a1565b60405180910390fd5b806020015134101561092e576040517f08c379a00000000000000000000000000000000000000000000000000000000081526004016109259061140d565b60405180910390fd5b60006103e860015434610941919061145c565b61094b91906114cd565b90506000813461095b91906114fe565b90506000836000015173ffffffffffffffffffffffffffffffffffffffff168260405161098790611563565b60006040518083038185875af1925050503d80600081146109c4576040519150601f19603f3d011682016040523d82523d6000602084013e6109c9565b606091505b5050905080610a0d576040517f08c379a0000000000000000000000000000000000000000000000000000000008152600401610a04906115c4565b60405180910390fd5b6000600260009054906101000a900473ffffffffffffffffffffffffffffffffffffffff1673ffffffffffffffffffffffffffffffffffffffff1684604051610a5590611563565b60006040518083038185875af1925050503d8060008114610a92576040519150601f19603f3d011682016040523d82523d6000602084013e610a97565b606091505b5050905080610adb576040517f08c379a0000000000000000000000000000000000000000000000000000000008152600401610ad290611630565b60405180910390fd5b8673ffffffffffffffffffffffffffffffffffffffff166342842e0e866000015133896040518463ffffffff1660e01b8152600401610b1c93929190611650565b600060405180830381600087803b158015610b3657600080fd5b505af1158015610b4a573d6000803e3d6000fd5b50505050600360008873ffffffffffffffffffffffffffffffffffffffff1673ffffffffffffffffffffffffffffffffffffffff1681526020019081526020016000206000878152602001908152602001600020600080820160006101000a81549073ffffffffffffffffffffffffffffffffffffffff021916905560018201600090555050858773ffffffffffffffffffffffffffffffffffffffff167f686fb6eb169cadc38afcea6d15c9b04b00e9a461889d6a280f21f5ffda48095d338860200151604051610c1d929190610e18565b60405180910390a35050505050610c32610d12565b5050565b610c3e610ccc565b8273ffffffffffffffffffffffffffffffffffffffff1663b04eec593384846040518463ffffffff1660e01b8152600401610c7b939291906112e1565b6020604051808303816000875af1158015610c9a573d6000803e3d6000fd5b505050506040513d601f19601f82011682018060405250810190610cbe9190611328565b50610cc7610d12565b505050565b600260005403610d08576040517f3ee5aeb500000000000000000000000000000000000000000000000000000000815260040160405180910390fd5b6002600081905550565b6001600081905550565b600080fd5b600080fd5b600073ffffffffffffffffffffffffffffffffffffffff82169050919050565b6000610d5182610d26565b9050919050565b610d6181610d46565b8114610d6c57600080fd5b50565b600081359050610d7e81610d58565b92915050565b6000819050919050565b610d9781610d84565b8114610da257600080fd5b50565b600081359050610db481610d8e565b92915050565b60008060408385031215610dd157610dd0610d1c565b5b6000610ddf85828601610d6f565b9250506020610df085828601610da5565b9150509250929050565b610e0381610d46565b82525050565b610e1281610d84565b82525050565b6000604082019050610e2d6000830185610dfa565b610e3a6020830184610e09565b9392505050565b600080600060608486031215610e5a57610e59610d1c565b5b6000610e6886828701610d6f565b9350506020610e7986828701610da5565b9250506040610e8a86828701610da5565b9150509250925092565b6000602082019050610ea96000830184610e09565b92915050565b6000602082019050610ec46000830184610dfa565b92915050565b600080fd5b600080fd5b600080fd5b60008083601f840112610eef57610eee610eca565b5b8235905067ffffffffffffffff811115610f0c57610f0b610ecf565b5b602083019150836001820283011115610f2857610f27610ed4565b5b9250929050565b60008060008060608587031215610f4957610f48610d1c565b5b6000610f5787828801610d6f565b945050602085013567ffffffffffffffff811115610f7857610f77610d21565b5b610f8487828801610ed9565b93509350506040610f9787828801610da5565b91505092959194509250565b600080600060408486031215610fbc57610fbb610d1c565b5b6000610fca86828701610d6f565b935050602084013567ffffffffffffffff811115610feb57610fea610d21565b5b610ff786828701610ed9565b92509250509250925092565b600082825260208201905092915050565b7f5072696365206d7573742062652067726561746572207468616e207a65726f00600082015250565b600061104a601f83611003565b915061105582611014565b602082019050919050565b600060208201905081810360008301526110798161103d565b9050919050565b60008151905061108f81610d58565b92915050565b6000602082840312156110ab576110aa610d1c565b5b60006110b984828501611080565b91505092915050565b7f4e6f74204e4654206f776e657200000000000000000000000000000000000000600082015250565b60006110f8600d83611003565b9150611103826110c2565b602082019050919050565b60006020820190508181036000830152611127816110eb565b9050919050565b60006040820190506111436000830185610dfa565b6111506020830184610dfa565b9392505050565b60008115159050919050565b61116c81611157565b811461117757600080fd5b50565b60008151905061118981611163565b92915050565b6000602082840312156111a5576111a4610d1c565b5b60006111b38482850161117a565b91505092915050565b7f4d61726b6574706c616365206e6f7420617070726f7665640000000000000000600082015250565b60006111f2601883611003565b91506111fd826111bc565b602082019050919050565b60006020820190508181036000830152611221816111e5565b9050919050565b7f5072696365206d757374206265203e2030000000000000000000000000000000600082015250565b600061125e601183611003565b915061126982611228565b602082019050919050565b6000602082019050818103600083015261128d81611251565b9050919050565b82818337600083830152505050565b6000601f19601f8301169050919050565b60006112c08385611003565b93506112cd838584611294565b6112d6836112a3565b840190509392505050565b60006040820190506112f66000830186610dfa565b81810360208301526113098184866112b4565b9050949350505050565b60008151905061132281610d8e565b92915050565b60006020828403121561133e5761133d610d1c565b5b600061134c84828501611313565b91505092915050565b7f4e4654206e6f74206c6973746564000000000000000000000000000000000000600082015250565b600061138b600e83611003565b915061139682611355565b602082019050919050565b600060208201905081810360008301526113ba8161137e565b9050919050565b7f4e465420656e6f756768204554482073656e7400000000000000000000000000600082015250565b60006113f7601383611003565b9150611402826113c1565b602082019050919050565b60006020820190508181036000830152611426816113ea565b9050919050565b7f4e487b7100000000000000000000000000000000000000000000000000000000600052601160045260246000fd5b600061146782610d84565b915061147283610d84565b925082820261148081610d84565b915082820484148315176114975761149661142d565b5b5092915050565b7f4e487b7100000000000000000000000000000000000000000000000000000000600052601260045260246000fd5b60006114d882610d84565b91506114e383610d84565b9250826114f3576114f261149e565b5b828204905092915050565b600061150982610d84565b915061151483610d84565b925082820390508181111561152c5761152b61142d565b5b92915050565b600081905092915050565b50565b600061154d600083611532565b91506115588261153d565b600082019050919050565b600061156e82611540565b9150819050919050565b7f53656c6c6572207061796d656e74206661696c65640000000000000000000000600082015250565b60006115ae601583611003565b91506115b982611578565b602082019050919050565b600060208201905081810360008301526115dd816115a1565b9050919050565b7f466565207472616e73666572206661696c656400000000000000000000000000600082015250565b600061161a601383611003565b9150611625826115e4565b602082019050919050565b600060208201905081810360008301526116498161160d565b9050919050565b60006060820190506116656000830186610dfa565b6116726020830185610dfa565b61167f6040830184610e09565b94935050505056fea2646970667358221220f711e8634648c3e07132e0cf9859fea98b3c00aac6ebd0e8393945dff15c592f64736f6c634300081c0033",
  "linkReferences": {},
  "deployedLinkReferences": {}
}