{
  "_format": "hh-sol-artifact-1",
  "contractName": "NFTMarketplace",
  "sourceName": "contracts/NFTMarketplace.sol",
  "abi": [
    {
      "inputs": [],
      "stateMutability": "nonpayable",
      "type": "constructor"
    },
    {
      "inputs": [],
      "name": "ReentrancyGuardReentrantCall",
      "type": "error"
    },
    {
      "anonymous": false,
      "inputs": [
        {
          "indexed": true,
          "internalType": "address",
          "name": "nft",
          "type": "address"
        },
        {
          "indexed": true,
          "internalType": "uint256",
          "name": "tokenId",
          "type": "uint256"
        },
        {
          "indexed": false,
          "internalType": "address",
          "name": "seller",
          "type": "address"
        },
        {
          "indexed": false,
          "internalType": "uint256",
          "name": "price",
          "type": "uint256"
        }
      ],
      "name": "Listed",
      "type": "event"
    },
    {
      "anonymous": false,
      "inputs": [
        {
          "indexed": true,
          "internalType": "address",
          "name": "nft",
          "type": "address"
        },
        {
          "indexed": true,
          "internalType": "uint256",
          "name": "tokenId",
          "type": "uint256"
        },
        {
          "indexed": false,
          "internalType": "address",
          "name": "buyer",
          "type": "address"
        },
        {
          "indexed": false,
          "internalType": "uint256",
          "name": "price",
          "type": "uint256"
        }
      ],
      "name": "Sale",
      "type": "event"
    },
    {
      "inputs": [
        {
          "internalType": "address",
          "name": "_nft",
          "type": "address"
        },
        {
          "internalType": "uint256",
          "name": "_tokenId",
          "type": "uint256"
        },
        {
          "internalType": "uint256",
          "name": "_price",
          "type": "uint256"
        }
      ],
      "name": "ListNFT",
      "outputs": [],
      "stateMutability": "nonpayable",
      "type": "function"
    },
    {
      "inputs": [
        {
          "internalType": "address",
          "name": "_nft",
          "type": "address"
        },
        {
          "internalType": "uint256",
          "name": "_tokenId",
          "type": "uint256"
        }
      ],
      "name": "buyNFT",
      "outputs": [],
      "stateMutability": "payable",
      "type": "function"
    },
    {
      "inputs": [],
      "name": "feePercent",
      "outputs": [
        {
          "internalType": "uint256",
          "name": "",
          "type": "uint256"
        }
      ],
      "stateMutability": "view",
      "type": "function"
    },
    {
      "inputs": [
        {
          "internalType": "address",
          "name": "_nft",
          "type": "address"
        },
        {
          "internalType": "uint256",
          "name": "tokenId",
          "type": "uint256"
        },
        {
          "internalType": "uint256",
          "name": "price",
          "type": "uint256"
        }
      ],
      "name": "listNFT",
      "outputs": [],
      "stateMutability": "nonpayable",
      "type": "function"
    },
    {
      "inputs": [
        {
          "internalType": "address",
          "name": "",
          "type": "address"
        },
        {
          "internalType": "uint256",
          "name": "",
          "type": "uint256"
        }
      ],
      "name": "listings",
      "outputs": [
        {
          "internalType": "address",
          "name": "seller",
          "type": "address"
        },
        {
          "internalType": "uint256",
          "name": "price",
          "type": "uint256"
        }
      ],
      "stateMutability": "view",
      "type": "function"
    },
    {
      "inputs": [
        {
          "internalType": "address",
          "name": "_nft",
          "type": "address"
        },
        {
          "internalType": "string",
          "name": "tokenURI",
          "type": "string"
        },
        {
          "internalType": "uint256",
          "name": "price",
          "type": "uint256"
        }
      ],
      "name": "mintAndListNFT",
      "outputs": [],
      "stateMutability": "nonpayable",
      "type": "function"
    },
    {
      "inputs": [
        {
          "internalType": "address",
          "name": "_nft",
          "type": "address"
        },
        {
          "internalType": "string",
          "name": "tokenURI",
          "type": "string"
        }
      ],
      "name": "mintNFT",
      "outputs": [],
      "stateMutability": "nonpayable",
      "type": "function"
    },
    {
      "inputs": [],
      "name": "owner",
      "outputs": [
        {
          "internalType": "address",
          "name": "",
          "type": "address"
        }
      ],
      "stateMutability": "view",
      "type": "function"
    }
  ],
  "bytecode": "0x60806040526019600155348015601457600080fd5b50600160008190555033600260006101000a81548173ffffffffffffffffffffffffffffffffffffffff021916908373ffffffffffffffffffffffffffffffffffffffff1602179055506118fa8061006d6000396000f3fe60806040526004361061007a5760003560e01c806399cdd7e61161004e57806399cdd7e61461013c578063a82ba76f14610165578063ad05f1b414610181578063eacabe14146101aa5761007a565b806207df301461007f5780636cd52e2a146100bd5780637fd6f15c146100e65780638da5cb5b14610111575b600080fd5b34801561008b57600080fd5b506100a660048036038101906100a19190610ff7565b6101d3565b6040516100b4929190611055565b60405180910390f35b3480156100c957600080fd5b506100e460048036038101906100df919061107e565b610224565b005b3480156100f257600080fd5b506100fb6105e3565b60405161010891906110d1565b60405180910390f35b34801561011d57600080fd5b506101266105e9565b60405161013391906110ec565b60405180910390f35b34801561014857600080fd5b50610163600480360381019061015e919061116c565b61060f565b005b61017f600480360381019061017a9190610ff7565b61080d565b005b34801561018d57600080fd5b506101a860048036038101906101a3919061107e565b610c6a565b005b3480156101b657600080fd5b506101d160048036038101906101cc91906111e0565b610d9f565b005b6003602052816000526040600020602052806000526040600020600091509150508060000160009054906101000a900473ffffffffffffffffffffffffffffffffffffffff16908060010154905082565b60008111610267576040517f08c379a000000000000000000000000000000000000000000000000000000000815260040161025e9061129d565b60405180910390fd5b60008390503373ffffffffffffffffffffffffffffffffffffffff168173ffffffffffffffffffffffffffffffffffffffff16636352211e856040518263ffffffff1660e01b81526004016102bc91906110d1565b602060405180830381865afa1580156102d9573d6000803e3d6000fd5b505050506040513d601f19601f820116820180604052508101906102fd91906112d2565b73ffffffffffffffffffffffffffffffffffffffff1614610353576040517f08c379a000000000000000000000000000000000000000000000000000000000815260040161034a9061134b565b60405180910390fd5b8073ffffffffffffffffffffffffffffffffffffffff1663e985e9c533306040518363ffffffff1660e01b815260040161038e92919061136b565b602060405180830381865afa1580156103ab573d6000803e3d6000fd5b505050506040513d601f19601f820116820180604052508101906103cf91906113cc565b8061047e57503073ffffffffffffffffffffffffffffffffffffffff168173ffffffffffffffffffffffffffffffffffffffff1663081812fc856040518263ffffffff1660e01b815260040161042591906110d1565b602060405180830381865afa158015610442573d6000803e3d6000fd5b505050506040513d601f19601f8201168201806040525081019061046691906112d2565b73ffffffffffffffffffffffffffffffffffffffff16145b6104bd576040517f08c379a00000000000000000000000000000000000000000000000000000000081526004016104b490611445565b60405180910390fd5b60405180604001604052803373ffffffffffffffffffffffffffffffffffffffff16815260200183815250600360008673ffffffffffffffffffffffffffffffffffffffff1673ffffffffffffffffffffffffffffffffffffffff168152602001908152602001600020600085815260200190815260200160002060008201518160000160006101000a81548173ffffffffffffffffffffffffffffffffffffffff021916908373ffffffffffffffffffffffffffffffffffffffff16021790555060208201518160010155905050828473ffffffffffffffffffffffffffffffffffffffff167f8b06cda60618abf2b2d07227f9dd63ec6349ca3269ce0eb18d49122a48362ad833856040516105d5929190611055565b60405180910390a350505050565b60015481565b600260009054906101000a900473ffffffffffffffffffffffffffffffffffffffff1681565b610617610f09565b6000811161065a576040517f08c379a0000000000000000000000000000000000000000000000000000000008152600401610651906114b1565b60405180910390fd5b60008473ffffffffffffffffffffffffffffffffffffffff1663b04eec593386866040518463ffffffff1660e01b81526004016106999392919061151e565b6020604051808303816000875af11580156106b8573d6000803e3d6000fd5b505050506040513d601f19601f820116820180604052508101906106dc9190611565565b905060405180604001604052803373ffffffffffffffffffffffffffffffffffffffff16815260200183815250600360008773ffffffffffffffffffffffffffffffffffffffff1673ffffffffffffffffffffffffffffffffffffffff168152602001908152602001600020600083815260200190815260200160002060008201518160000160006101000a81548173ffffffffffffffffffffffffffffffffffffffff021916908373ffffffffffffffffffffffffffffffffffffffff16021790555060208201518160010155905050808573ffffffffffffffffffffffffffffffffffffffff167f8b06cda60618abf2b2d07227f9dd63ec6349ca3269ce0eb18d49122a48362ad833856040516107f6929190611055565b60405180910390a350610807610f4f565b50505050565b610815610f09565b6000600360008473ffffffffffffffffffffffffffffffffffffffff1673ffffffffffffffffffffffffffffffffffffffff16815260200190815260200160002060008381526020019081526020016000206040518060400160405290816000820160009054906101000a900473ffffffffffffffffffffffffffffffffffffffff1673ffffffffffffffffffffffffffffffffffffffff1673ffffffffffffffffffffffffffffffffffffffff1681526020016001820154815250509050600081602001511161091b576040517f08c379a0000000000000000000000000000000000000000000000000000000008152600401610912906115de565b60405180910390fd5b8060200151341015610962576040517f08c379a00000000000000000000000000000000000000000000000000000000081526004016109599061164a565b60405180910390fd5b60006103e8600154346109759190611699565b61097f919061170a565b90506000813461098f919061173b565b90506000836000015173ffffffffffffffffffffffffffffffffffffffff16826040516109bb906117a0565b60006040518083038185875af1925050503d80600081146109f8576040519150601f19603f3d011682016040523d82523d6000602084013e6109fd565b606091505b5050905080610a41576040517f08c379a0000000000000000000000000000000000000000000000000000000008152600401610a3890611801565b60405180910390fd5b6000600260009054906101000a900473ffffffffffffffffffffffffffffffffffffffff1673ffffffffffffffffffffffffffffffffffffffff1684604051610a89906117a0565b60006040518083038185875af1925050503d8060008114610ac6576040519150601f19603f3d011682016040523d82523d6000602084013e610acb565b606091505b5050905080610b0f576040517f08c379a0000000000000000000000000000000000000000000000000000000008152600401610b069061186d565b60405180910390fd5b8673ffffffffffffffffffffffffffffffffffffffff166342842e0e866000015133896040518463ffffffff1660e01b8152600401610b509392919061188d565b600060405180830381600087803b158015610b6a57600080fd5b505af1158015610b7e573d6000803e3d6000fd5b50505050600360008873ffffffffffffffffffffffffffffffffffffffff1673ffffffffffffffffffffffffffffffffffffffff1681526020019081526020016000206000878152602001908152602001600020600080820160006101000a81549073ffffffffffffffffffffffffffffffffffffffff021916905560018201600090555050858773ffffffffffffffffffffffffffffffffffffffff167f686fb6eb169cadc38afcea6d15c9b04b00e9a461889d6a280f21f5ffda48095d338860200151604051610c51929190611055565b60405180910390a35050505050610c66610f4f565b5050565b610c72610f09565b60405180604001604052803373ffffffffffffffffffffffffffffffffffffffff16815260200182815250600360008573ffffffffffffffffffffffffffffffffffffffff1673ffffffffffffffffffffffffffffffffffffffff168152602001908152602001600020600084815260200190815260200160002060008201518160000160006101000a81548173ffffffffffffffffffffffffffffffffffffffff021916908373ffffffffffffffffffffffffffffffffffffffff16021790555060208201518160010155905050818373ffffffffffffffffffffffffffffffffffffffff167f8b06cda60618abf2b2d07227f9dd63ec6349ca3269ce0eb18d49122a48362ad83384604051610d8a929190611055565b60405180910390a3610d9a610f4f565b505050565b610da7610f09565b60008373ffffffffffffffffffffffffffffffffffffffff1663b04eec593385856040518463ffffffff1660e01b8152600401610de69392919061151e565b6020604051808303816000875af1158015610e05573d6000803e3d6000fd5b505050506040513d601f19601f82011682018060405250810190610e299190611565565b905060405180604001604052803373ffffffffffffffffffffffffffffffffffffffff1681526020016000815250600360008673ffffffffffffffffffffffffffffffffffffffff1673ffffffffffffffffffffffffffffffffffffffff168152602001908152602001600020600083815260200190815260200160002060008201518160000160006101000a81548173ffffffffffffffffffffffffffffffffffffffff021916908373ffffffffffffffffffffffffffffffffffffffff1602179055506020820151816001015590505050610f04610f4f565b505050565b600260005403610f45576040517f3ee5aeb500000000000000000000000000000000000000000000000000000000815260040160405180910390fd5b6002600081905550565b6001600081905550565b600080fd5b600080fd5b600073ffffffffffffffffffffffffffffffffffffffff82169050919050565b6000610f8e82610f63565b9050919050565b610f9e81610f83565b8114610fa957600080fd5b50565b600081359050610fbb81610f95565b92915050565b6000819050919050565b610fd481610fc1565b8114610fdf57600080fd5b50565b600081359050610ff181610fcb565b92915050565b6000806040838503121561100e5761100d610f59565b5b600061101c85828601610fac565b925050602061102d85828601610fe2565b9150509250929050565b61104081610f83565b82525050565b61104f81610fc1565b82525050565b600060408201905061106a6000830185611037565b6110776020830184611046565b9392505050565b60008060006060848603121561109757611096610f59565b5b60006110a586828701610fac565b93505060206110b686828701610fe2565b92505060406110c786828701610fe2565b9150509250925092565b60006020820190506110e66000830184611046565b92915050565b60006020820190506111016000830184611037565b92915050565b600080fd5b600080fd5b600080fd5b60008083601f84011261112c5761112b611107565b5b8235905067ffffffffffffffff8111156111495761114861110c565b5b60208301915083600182028301111561116557611164611111565b5b9250929050565b6000806000806060858703121561118657611185610f59565b5b600061119487828801610fac565b945050602085013567ffffffffffffffff8111156111b5576111b4610f5e565b5b6111c187828801611116565b935093505060406111d487828801610fe2565b91505092959194509250565b6000806000604084860312156111f9576111f8610f59565b5b600061120786828701610fac565b935050602084013567ffffffffffffffff81111561122857611227610f5e565b5b61123486828701611116565b92509250509250925092565b600082825260208201905092915050565b7f5072696365206d7573742062652067726561746572207468616e207a65726f00600082015250565b6000611287601f83611240565b915061129282611251565b602082019050919050565b600060208201905081810360008301526112b68161127a565b9050919050565b6000815190506112cc81610f95565b92915050565b6000602082840312156112e8576112e7610f59565b5b60006112f6848285016112bd565b91505092915050565b7f4e6f74204e4654206f776e657200000000000000000000000000000000000000600082015250565b6000611335600d83611240565b9150611340826112ff565b602082019050919050565b6000602082019050818103600083015261136481611328565b9050919050565b60006040820190506113806000830185611037565b61138d6020830184611037565b9392505050565b60008115159050919050565b6113a981611394565b81146113b457600080fd5b50565b6000815190506113c6816113a0565b92915050565b6000602082840312156113e2576113e1610f59565b5b60006113f0848285016113b7565b91505092915050565b7f4d61726b6574706c616365206e6f7420617070726f7665640000000000000000600082015250565b600061142f601883611240565b915061143a826113f9565b602082019050919050565b6000602082019050818103600083015261145e81611422565b9050919050565b7f5072696365206d757374206265203e2030000000000000000000000000000000600082015250565b600061149b601183611240565b91506114a682611465565b602082019050919050565b600060208201905081810360008301526114ca8161148e565b9050919050565b82818337600083830152505050565b6000601f19601f8301169050919050565b60006114fd8385611240565b935061150a8385846114d1565b611513836114e0565b840190509392505050565b60006040820190506115336000830186611037565b81810360208301526115468184866114f1565b9050949350505050565b60008151905061155f81610fcb565b92915050565b60006020828403121561157b5761157a610f59565b5b600061158984828501611550565b91505092915050565b7f4e4654206e6f74206c6973746564000000000000000000000000000000000000600082015250565b60006115c8600e83611240565b91506115d382611592565b602082019050919050565b600060208201905081810360008301526115f7816115bb565b9050919050565b7f4e465420656e6f756768204554482073656e7400000000000000000000000000600082015250565b6000611634601383611240565b915061163f826115fe565b602082019050919050565b6000602082019050818103600083015261166381611627565b9050919050565b7f4e487b7100000000000000000000000000000000000000000000000000000000600052601160045260246000fd5b60006116a482610fc1565b91506116af83610fc1565b92508282026116bd81610fc1565b915082820484148315176116d4576116d361166a565b5b5092915050565b7f4e487b7100000000000000000000000000000000000000000000000000000000600052601260045260246000fd5b600061171582610fc1565b915061172083610fc1565b9250826117305761172f6116db565b5b828204905092915050565b600061174682610fc1565b915061175183610fc1565b92508282039050818111156117695761176861166a565b5b92915050565b600081905092915050565b50565b600061178a60008361176f565b91506117958261177a565b600082019050919050565b60006117ab8261177d565b9150819050919050565b7f53656c6c6572207061796d656e74206661696c65640000000000000000000000600082015250565b60006117eb601583611240565b91506117f6826117b5565b602082019050919050565b6000602082019050818103600083015261181a816117de565b9050919050565b7f466565207472616e73666572206661696c656400000000000000000000000000600082015250565b6000611857601383611240565b915061186282611821565b602082019050919050565b600060208201905081810360008301526118868161184a565b9050919050565b60006060820190506118a26000830186611037565b6118af6020830185611037565b6118bc6040830184611046565b94935050505056fea2646970667358221220a2451a445a5256dccb8ff5cfd838ec23b31755729a8d7592f9af561c4a4ad7b564736f6c634300081c0033",
  "linkReferences": {},
  "deployedLinkReferences": {}
}